:020000040800F2
:10000000F807002079020008D5260008D726000846
:10001000DB260008DF260008E326000800000000B9
:10002000000000000000000000000000E7260008BB
:10003000E926000800000000EB260008ED26000875
:10004000930200089302000893020008930200083C
:10005000930200089302000893020008930200082C
:10006000930200089302000893020008930200081C
:10007000930200089302000893020008930200080C
:1000800093020008930200089302000893020008FC
:1000900093020008930200089302000893020008EC
:1000A00093020008930200089302000893020008DC
:1000B000B930000893020008930200089302000878
:1000C00093020008930200089302000893020008BC
:1000D000930200087D2A00084D2B00082D2C0008F3
:1000E000930200089302000893020008930200089C
:1000F000930200089302000893020008930200088C
:10010000930200089302000893020008930200087B
:10011000930200089302000893020008930200086B
:10012000930200089302000893020008930200085B
:1001300000F002F800F090F80AA090E8000C824469
:100140008344AAF10107DA4501D100F085F8AFF246
:10015000090EBAE80F0013F0010F18BFFB1A43F0A5
:10016000010318470C5900002C590000103A24BF15
:1001700078C878C1FAD8520724BF30C830C144BF0C
:1001800004680C607047000000230024002500264E
:10019000103A28BF78C1FBD8520728BF30C148BFEA
:1001A0000B6070476E2903F0C383702903F0158735
:1001B000662904F07687652904F07387672904F0BF
:1001C00070876129AFF3008003681B0A28BF41F0E4
:1001D0008001692903F0AC81642903F0A9817529A4
:1001E00003F0A6816F2903F0A286782903F0E18647
:1001F000E92903F03D86E42903F03A86F52903F066
:100200003786EF2903F09F86F82903F0E08603681C
:10021000DB0928BF41F08001632903F0F3877329CC
:1002200003F0F887E32904F00380F32904F0088041
:10023000002070471FB503F051FF0400002000218B
:1002400004F05AFD401C60600020002104F03EFDD7
:10025000E0601FBD10B510BD04F0D8F81146FFF7DF
:10026000E9FF02F01BF804F004F903B4FFF7F2FF12
:1002700003BC02F0B3FA0000094880470948004770
:10028000FEE7FEE7FEE7FEE7FEE7FEE7FEE7FEE746
:10029000FEE7FEE704480549054A064B70470000A3
:1002A0009703000831010008F8010020F80700203A
:1002B000F8030020F80300200CB500200190009006
:1002C0006C48006840F480306A49086000BF6948A3
:1002D000006800F4003000900198401C01900098E4
:1002E00018B90198B0F5A06FF1D16248006800F428
:1002F000003010B10120009001E000200090009833
:10030000012843D15C48006840F010005A49086059
:100310000846006820F0030008600846006840F0C6
:1003200002000860534840685249486008464068E7
:1003300048600846406840F480604860084640686D
:1003400020F47C1048600846406840F4E81048609B
:100350000846006840F08070086000BF45480068AB
:1003600000F000700028F9D04248406820F00300F7
:10037000404948600846406840F00200486000BFBD
:100380003C48406800F00C000828F9D10CBD10B5BD
:10039000FFF792FF10BD10B53648006840F001002D
:1003A000344908600846406834490840314948608B
:1003B00008460068324908402E490860084600682F
:1003C00020F4802008600846406820F4FE00486061
:1003D0004FF41F008860FFF7DAFF4FF000602949F3
:1003E000086010BD10B5002100200022214B5B6881
:1003F00003F00C0121B1042906D0082928D107E017
:10040000214B224C236027E01F4B204C236023E02C
:10041000184B5B6803F47010164B5B6803F4803272
:10042000022303EB904022B9194B4343174C23603E
:100430000DE0104B5B6803F4003323B1144B4343CE
:10044000124C236003E0104B4343104C236003E045
:100450000D4B0E4C236000BF00BF064B5B68C3F31F
:1004600003130C4CE15C094B1B68CB40074C236029
:1004700010BD000000100240002002400000FFF804
:10048000FFFFF6FE08ED00E000127A0000000020F9
:1004900000093D000400002031490143314A116048
:1004A000704770B5002100230F22C47804B32D4C8F
:1004B000246804F4E064C4F5E064210AC1F1040393
:1004C000CA40447804FA03F18478144021430901B6
:1004D000254C0678A155047804F01F050124AC4092
:1004E00005786D11AD0005F1E025C5F8004109E082
:1004F000047804F01F050124AC401C4D06787611E9
:1005000045F8264070BD1A4A0A400243154B1B1F8E
:100510001A60704739B1134A121D12680243114B19
:100520001B1D1A6006E00F4A121D126882430D4B14
:100530001B1D1A607047042808D14FF0E02109699B
:1005400041F004014FF0E022116107E04FF0E0219B
:10055000096921F004014FF0E022116170470000A9
:100560000000FA050CED00E000E400E080E100E0AE
:1005700080FFFF1F10B50446CC48844208D10121FA
:10058000042000F02FFD0021042000F02BFD46E0A8
:10059000C748844208D10121082000F023FD002132
:1005A000082000F01FFD3AE0C248844208D1012132
:1005B000102000F017FD0021102000F013FD2EE0A8
:1005C000BD48844208D10121202000F00BFD00210C
:1005D000202000F007FD22E0B848844208D1012124
:1005E000402000F0FFFC0021402000F0FBFC16E062
:1005F000B348844208D10121802000F0F3FC00219F
:10060000802000F0EFFC0AE0AE48844207D10121CF
:10061000801500F0E7FC0021A01500F0E3FC10BD00
:1006200010B50121084600F0DDFC0021012000F09A
:10063000D9FC10BD2DE9F04102460025002600201E
:1006400000230024002791F803C00CF00F0591F857
:1006500003C00CF0100CBCF1000F03D091F802C0E5
:100660004CEA050591F800C0BCF1000F31D01468C8
:1006700000202BE04FF0010C0CFA00F3B1F800C0A1
:100680000CEA03069E4220D183004FF00F0C0CFAB7
:1006900003F7BC4305FA03FC4CEA040491F803C0D9
:1006A000BCF1280F06D14FF0010C0CFA00FCC2F887
:1006B00014C00AE091F803C0BCF1480F05D14FF017
:1006C000010C0CFA00FCC2F810C0401C0828D1D361
:1006D0001460B1F800C0BCF1FF0F34DD5468002095
:1006E0002EE000F1080C4FF0010808FA0CF3B1F805
:1006F00000C00CEA03069E4221D183004FF00F0C8C
:100700000CFA03F7BC4305FA03FC4CEA040491F825
:1007100003C0BCF1280F05D100F1080C08FA0CF851
:10072000C2F8148091F803C0BCF1480F07D100F162
:10073000080C4FF0010808FA0CF8C2F81080401CB1
:100740000828CED35460BDE8F0814FF6FF710180D8
:10075000022181700421C170704702460020936815
:100760000B400BB1012000E0002070470146886873
:1007700080B2704702460020D3680B400BB10120C5
:1007800000E0002070470146C86880B270470161F0
:100790007047416170470AB1016100E041617047F3
:1007A000C16070474FF480320A4382618161826187
:1007B00082698269704702460020434B18684FF6F1
:1007C0008073184040EA021008433F4B186070479E
:1007D0003E49C8617047F0B50A4600230024002155
:1007E000002500F00046B6F1004F02D1364EF16907
:1007F00001E0354E7168C0F3034583B200F4401642
:10080000B6F5401F08D121F070612F4E766826F0B2
:1008100070662D4F7E6012E000F48016B6F5801FE2
:1008200006D1032606FA05F4A14341F0706106E003
:10083000460D360103FA06F6B14341F0706122B16C
:10084000460D360103FA06F6314300F00046B6F1D4
:10085000004F02D11C4EF16101E01B4E7160F0BDF2
:1008600030B500228B071C0F0F2303FA04F2164B3E
:1008700008338C1053F824309343134C08348D10F4
:1008800044F8253023468C1053F824308C07240F6D
:1008900000FA04F423430C4C08348D1044F825303E
:1008A00030BD0A49DC310860704700000008014093
:1008B000000C0140001001400014014000180140EC
:1008C000001C0140002001400000014000002042C7
:1008D00010B50446F748844209D10121480500F0CB
:1008E0008EFB00214FF4001000F089FB08E001218D
:1008F000880500F084FB00214FF4800000F07FFBAE
:1009000010BD2DE9F04385B004460D460026B146E2
:100910000427DFF8A483A6884FF6C0700640684617
:1009200000F0D9FADDF80880E448B8FBF0F01FFACF
:1009300080F946EA0906A68020884FF6FE71084035
:1009400020800026DE49286888420CD828684000AC
:10095000B8FBF0F087B2042F00DA04273E4309F118
:100960000100208427E0E8884BF6FF71884206D119
:10097000286800EB4000B8FBF0F087B209E0286877
:1009800000EBC00101EB0010B8FBF0F087B247F4B8
:100990008047C7F30B0008B947F0010747F4004050
:1009A00006434FF4967009FB00F04FF47A7190FB08
:1009B000F1F0401C2084A683208840F001002080B4
:1009C00026884FF6F5300640A88869890843064313
:1009D0002680A88929890843208105B0BDE8F083D5
:1009E00041F288310160002181804BF6FF71C180A6
:1009F0000021018141814FF480418181704721B103
:100A0000028842F00102028004E002884FF6FE7381
:100A10001A400280704721B1828842F400628280CD
:100A200004E082884FF2FF731A408280704721B140
:100A3000828842F48052828004E082884EF6FF73FE
:100A40001A408280704721B1028842F4807202808D
:100A500004E002884FF6FF631A400280704721B11C
:100A6000028842F40072028004E002884FF6FF53CD
:100A70001A400280704721B1028842F480620280ED
:100A800004E002884FF6FF331A40028070470A469E
:100A9000002181894FF60173194002F0FE031943CA
:100AA0008181704721B1828942F00102828104E094
:100AB00082894FF6FE731A408281704721B1028805
:100AC00042F04002028004E002884FF6BF731A40F1
:100AD000028070471AB183880B43838002E08388C9
:100AE0008B4383807047018270470146088AC0B2F9
:100AF000704712B141F0010102E04FF6FE73194058
:100B00000182704708B502460020009000920098CC
:100B1000084400900098008808BD21B1028842F482
:100B20000042028003E00288C2F30E020280704796
:100B3000B1F5006F04D1028842F40062028004E043
:100B400002884FF2FF731A4002807047B1F5005FD0
:100B500004D1028842F40052028004E002884DF67B
:100B6000FF731A400280704721B1028842F480521C
:100B7000028004E002884EF6FF731A40028070473C
:100B8000B1F5006F04D1028842F40062028004E0F3
:100B900002884FF2FF731A400280704721B1028829
:100BA00042F02002028004E002884FF6DF731A4010
:100BB000028070470146088B0012704721B10288FD
:100BC00042F01002028004E002884FF6EF731A40F0
:100BD0000280704721B9028842F08002028004E05E
:100BE00002884FF67F731A4002807047B1F5804F3C
:100BF00005D0828B4BF6FF731A40828303E0828B11
:100C000042F480428283704770B50246002400257A
:100C100000230020958A138B1B0445EA030626F067
:100C20007F4404EA01068E4201D1012000E0002049
:100C300070BD10B501460020002300228B8A0A8B6C
:100C4000120443EA020424F07F4010BD0CB50246B2
:100C5000002000230193009300920B0F019321F0D9
:100C60007F41019B1BB1009B1433009303E0090CEF
:100C7000009B18330093009B1B680B400BB10120B5
:100C800000E000200CBD002221F07F42D34383828C
:100C9000704730B5024600200023948801F0E065DB
:100CA00004EA154321F07F41948A0C4054B14BB1C2
:100CB000012008E00054004000127A0040420F007A
:100CC000A0860100002030BD002221F07F42D343E6
:100CD00083827047DF48006840F00100DD4908600A
:100CE00008464068DC490840DA4948600846006820
:100CF000DA490840D74908600846006820F4802097
:100D000008600846406820F4FE0048604FF41F0069
:100D100088607047CF49096821F48031CD4A11605D
:100D20001146096821F480211160B0F5803F03D09D
:100D3000B0F5802F0ED106E0C649096841F4803134
:100D4000C44A116007E0C349096841F4A021C14ABF
:100D5000116000E000BF00BF704710B501460022DF
:100D6000002300204A11012A02D1BA4C236806E070
:100D7000022A02D1B74C236A01E0B64C636A01F043
:100D80001F02012494401C400CB1012000E000200F
:100D900010BD38B5002000900024002500BF312090
:100DA000FFF7DBFF05460098401C00900098B0F567
:100DB000A06F01D0002DF2D03120FFF7CEFF08B197
:100DC000012400E00024204638BD01460020A14A4D
:100DD000106820F0F80040EAC10010607047A04998
:100DE00008607047024600209A4B586820F47C1037
:100DF00042EA01031843974B5860704798490866C8
:100E0000704701460020934A506820F003000843D1
:100E1000506070478F48406800F00C0070470146F2
:100E200000208C4A506820F0F00008435060704762
:100E300001460020874A506820F4E0600843506073
:100E4000704701460020834A506820F4605040EA11
:100E5000C1005060704729B17E4A527A02437D4BEF
:100E60005A7204E07B4A527A82437A4B5A72704734
:100E70007B49D8310860704701460020754A5068A8
:100E800020F440400843506070470021714A2032EE
:100E90001170704A82F82010012802D004280AD16B
:100EA00004E001216B4A2032117005E00521694AF6
:100EB0002032117000E000BF00BF70476949086030
:100EC00070476449096A0143624A11627047654983
:100ED00044390860704730B5002100220024002307
:100EE0005C4D6D6805F00C0121B1042905D008297D
:100EF00023D105E05C4D056022E05B4D05601FE0FD
:100F0000544D6D6805F47012524D6D6805F48034CF
:100F1000022505EB92421CB9544D554305600BE088
:100F20004C4D6D6805F400351DB1504D55430560BD
:100F300002E04D4D5543056002E04B4D056000BF9A
:100F400000BF444D6D6805F0F0010909484D6B5C28
:100F50000568DD4045603F4D6D6805F4E061090AB4
:100F6000434D6B5C4568DD4085603A4D6D6805F426
:100F70006051C90A3E4D6B5C4568DD40C560354D2A
:100F80006D6805F44041890B3A4D6B5CC568B5FB53
:100F9000F3F5056130BD29B12E4A526902432D4B4C
:100FA0005A6104E02B4A526982432A4B5A617047C6
:100FB00029B1284A92690243264B9A6104E0254AE6
:100FC00092698243234B9A61704729B1214AD269C1
:100FD0000243204BDA6104E01E4AD26982431D4B72
:100FE000DA61704729B11B4AD2680243194BDA60B3
:100FF00004E0184AD2688243164BDA60704729B180
:10100000144A12690243134B1A6104E0114A12692F
:101010008243104B1A61704712494039086070478B
:101020000F49C86470470B49C87170470948406A46
:1010300040F0807007494862704701460020054A29
:1010400092680A400AB1012000E00020704701497F
:1010500088727047001002400000FFF8FFFFF6FEA4
:10106000000042428004424200127A0000093D0022
:10107000140000202400002010B50446FE488442DD
:1010800008D10121C014FFF7ADFF0021E014FFF7E4
:10109000A9FFC4E0B4F1804F08D101210846FFF751
:1010A000AEFF00210120FFF7AAFFB8E0F348844219
:1010B00008D101210220FFF7A2FF00210220FFF743
:1010C0009EFFACE0EE48844208D101210420FFF7E6
:1010D00096FF00210420FFF792FFA0E0E948844238
:1010E00008D101210820FFF78AFF00210820FFF71F
:1010F00086FF94E0E448844208D101211020FFF7E4
:101100007EFF00211020FFF77AFF88E0DF4884424D
:1011100008D101212020FFF772FF00212020FFF7D6
:101120006EFF7CE0DA48844208D101214014FFF7C9
:1011300059FF00216014FFF755FF70E0D548844245
:1011400009D10121C804FFF74DFF00214FF4002011
:10115000FFF748FF63E0D048844209D10121080528
:10116000FFF740FF00214FF48010FFF73BFF56E0F0
:10117000CA48844209D101214805FFF733FF002105
:101180004FF40010FFF72EFF49E0C548844208D114
:1011900001214020FFF733FF00214020FFF72FFF00
:1011A0003DE0C048844208D101218020FFF727FF9D
:1011B00000218020FFF723FF31E0BB48844208D1A3
:1011C00001218015FFF71BFF0021A015FFF717FF76
:1011D00025E0B648844209D101210804FFF702FF47
:1011E00000214FF48030FFF7FDFE18E0B048844244
:1011F00009D101214804FFF7F5FE00214FF400302A
:10120000FFF7F0FE0BE0AB48844208D101218804CF
:10121000FFF7E8FE00214FF48020FFF7E3FE10BD4A
:1012200000220288944B98420ED0994B98420BD0E2
:10123000B0F1804F08D0914B984205D0904B984226
:1012400002D0904B984204D14FF68F731A404B88CE
:101250001A438D4B984207D08C4B984204D04FF6DE
:10126000FF431A40CB881A4302808B8883850B8802
:101270000385814B98420BD0854B984208D08B4B0D
:10128000984205D08A4B984202D08A4B984201D1AD
:101290000B7A038601238382704770B500240022F5
:1012A0000023058C4FF6FE7635400584028C83883A
:1012B000048B4FF68F752C40B51E2C400D882C43A7
:1012C000751E2A400D892A434D882A436A4DA8423B
:1012D0000BD06F4DA84208D0744DA84205D0744D74
:1012E000A84202D0734DA84213D14FF6F7752A4099
:1012F0004D892A434FF6FB752A408D882A434FF6C5
:10130000FF652B404FF6FF552B408D892B43CD8930
:101310002B4383800483CD888586028470BD70B59D
:10132000002400220023058C4FF6EF76354005841B
:10133000028C8388048B48F6FF752C404FF6FF45DE
:101340002C400D884FF6FF7606EA05252C434FF614
:10135000DF752A400D8906EA05152A434D8806EAFD
:1013600005152A43444DA84202D0494DA8421DD13B
:101370004FF67F752A404D894FF6FF7606EA051530
:101380002A434FF6BF752A408D8806EA05152A4381
:101390004FF6FF352B404FF2FF752B408D8906EA43
:1013A00085052B43CD8906EA85052B43838004837D
:1013B000CD880587028470BD70B50024002200230B
:1013C000058C4FF6FF6635400584028C8388848B3C
:1013D0004FF68F752C404FF6FC752C400D882C4332
:1013E0004FF6FF552A400D894FF6FF7606EA052590
:1013F0002A434D8806EA05252A431F4DA84202D0FC
:10140000234DA8421DD14FF2FF752A404D894FF65A
:10141000FF7606EA05252A434FF6FF352A408D88D8
:1014200006EA05252A434EF6FF752B404DF6FF755B
:101430002B408D8906EA05152B43CD8906EA051553
:101440002B4383808483CD888587028470BD70B5EB
:10145000002200230024058C4EF6FF7635400584DB
:10146000038C8488828B48F6FF752A404FF6FF452F
:101470002A400D8820E00000002C014000040040BC
:1014800000080040000C0040001000400014004024
:1014900000340140004C0140005001400054014024
:1014A00000180040001C00400020004000400140A7
:1014B00000440140004801404FF6FF7606EA05254A
:1014C0002A434DF6FF752B400D8906EA05352B435F
:1014D0004D8806EA05352B43FA4DA84202D0FA4D55
:1014E000A84208D14BF6FF752C408D894FF6FF7648
:1014F00006EA85152C4384808283CD88A0F840506D
:10150000038470BD828B4FF2FF331A408283828B3B
:101510004FF6FF7303EA01231A4382837047F0B545
:101520000C461546002200210026078C4EF6FF7C53
:1015300007EA0C070784828B018C4FF6FF7707EAD6
:10154000043640F6FF473A404FF6FF7707EA052793
:101550003A434FF6FF7707EA03373A43D94FB84289
:101560000ED0D94FB8420BD0B0F1804F08D0D74F32
:10157000B84205D0D64FB84202D0D64FB84206D1B5
:101580004DF6FF77394046F48057394305E047F67A
:10159000FF57394044F48057394382830184F0BDBA
:1015A000828B4FF6F3731A408283828B0A438283C5
:1015B0007047F0B50C461546002200210026078C26
:1015C0004FF6FF6C07EA0C070784828B018C4FF6FD
:1015D000FF7707EA04264FF60C773A404FF6FF777D
:1015E00007EA03172F433A43B64FB8420ED0B64F1F
:1015F000B8420BD0B0F1804F08D0B44FB84205D0FC
:10160000B34FB84202D0B34FB84206D14FF6FF579E
:10161000394046F48077394305E04FF2FF573940AF
:1016200044F48077394382830184F0BD028B4FF20A
:10163000FF331A400283028B4FF6FF7303EA012344
:101640001A4302837047F0B50C461546002200216C
:101650000026078C4FF6EF7C07EA0C070784028B05
:10166000018C4FF6FF7707EA041640F6FF473A4031
:101670004FF6FF7707EA03373A434FF6FF7707EA5B
:1016800005273A438F4FB8420ED08F4FB8420BD048
:10169000B0F1804F08D08D4FB84205D08C4FB84282
:1016A00002D08C4FB84206D14FF6DF77394046F072
:1016B0001007394305E04FF65F77394044F01007D3
:1016C000394302830184F0BD028B4FF6F3731A4055
:1016D0000283028B0A4302837047F0B50C4615461D
:1016E00000220021068C4FF6FE773E400684028BD6
:1016F000018C4FF60C7632407E1C06EA03162E4310
:101700003243704EB0420ED06F4EB0420BD0B0F1AB
:10171000804F08D06D4EB04205D06D4EB04202D021
:101720006C4EB04206D14FF6FD76314044F00106D2
:10173000314305E04FF6F576314044F00106314380
:1017400002830184F0BD70B505460C465D488542B4
:101750000ED05D4885420BD0B5F1804F08D05B4874
:10176000854205D05A48854202D05A48854200D168
:1017700000E000BF208850B92389A28861882846EC
:10178000FFF7ABFFE1882846FFF79EFF25E02088A2
:1017900004280AD12389A28861882846FFF753FFCD
:1017A000E1882846FFF742FF17E0208808280AD181
:1017B0002389A28861882846FFF7FBFEE188284636
:1017C000FFF7EEFE09E02389A28861882846FFF72B
:1017D000A6FEE1882846FFF795FE70BD2DE9F04191
:1017E00005460C4600260127608808B9022600E05D
:1017F0000026A088012801D1022700E001272088C7
:10180000A0B92389A28861882846FFF766FFE1888E
:101810002846FFF759FF23893A4631462846FFF705
:1018200012FFE1882846FFF701FF13E02389A28811
:1018300061882846FFF707FFE1882846FFF7F6FE94
:1018400023893A4631462846FFF747FFE188284674
:10185000FFF73AFFBDE8F0810A884B881A438B886E
:101860001A43CB881A430B891A434B891A438B8935
:101870001A43A0F8442070474FF6FF718180002181
:101880000180C18041800172704700210180418048
:101890008180C180018141818181C18170470021A6
:1018A00001804180012181800021C1800181704738
:1018B0000021018041808180C1800181418181813D
:1018C00070470000002C014000340140000400403B
:1018D00000080040000C004021B1028842F00102E3
:1018E000028004E002884FF6FE731A4002807047BF
:1018F00031B1B0F8442042F40042A0F8442005E0A1
:10190000B0F84420C2F30E02A0F8442070471AB188
:1019100083890B43838102E083898B4383817047F2
:101920008182704741EA0203A0F8483070471AB13B
:1019300083890B43838102E083898B4383817047D2
:1019400001894FF6F8721140018170470A46002163
:1019500001894FF68F73194011430181704730B5EB
:1019600004460D4629462046FFF7F0FF208940F047
:101970000700208130BD2DE9F04104460D46164692
:101980001F46602D06D13B46012231462046FFF717
:101990005AFE05E03B46012231462046FFF79DFEF8
:1019A00029462046FFF7D2FF208940F0070020811A
:1019B000BDE8F08130B50C4600210189C9B24FF66F
:1019C000FF7505EA0325154325432943018130BDF1
:1019D0002DE9F04105460E46174698460024434639
:1019E0003A4631462846FFF7E5FF2C894FF6F87056
:1019F000044044F007044FF68F70044044F0700434
:101A00002C81BDE8F081F0B504460D4616461F4610
:101A10003B46324629462046FFF7CCFF208940F45A
:101A200080402081F0BD0185828270470A460021F6
:101A300001884FF68F731940114301807047F0B54C
:101A40000C4615461E460021002200230189028B08
:101A5000038C4FF6F877394021434FF6FC473A4064
:101A600040F201173A434FF6DD773B404FF6FF77E0
:101A700007EA06172F433B43018102830384F0BD2D
:101A80000A460021018B4FF68F73194011430183E1
:101A900070470A460021018B48F6FF7319404FF644
:101AA000FF7303EA02231943018370470A460021AA
:101AB000818B4FF68F7319401143818370470A461B
:101AC0000021818B48F6FF7319404FF6FF7303EA3C
:101AD000022319438183704721B1028842F08002BA
:101AE000028004E002884FF67F731A40028070473C
:101AF00021B1828842F00402828004E082884FF69D
:101B0000FB731A408280704721B1828842F008023C
:101B1000828004E082884FF6F7731A408280704713
:101B200021B1828842F00102828004E082884FF66F
:101B3000FE731A40828070470A460021018B4FF6DF
:101B4000F77319401143018370470A460021018B46
:101B50004FF2FF7319404FF6FF7303EA0223194354
:101B6000018370470A460021818B4FF6F7731940B5
:101B70001143818370470A460021818B4FF2FF7326
:101B800019404FF6FF7303EA02231943818370471C
:101B90000A460021018B4FF6FB7319401143018364
:101BA00070470A460021018B4FF6FF3319404FF66C
:101BB000FF7303EA02231943018370470A46002199
:101BC000818B4FF6FB7319401143818370470A469E
:101BD0000021818B4FF6FF3319404FF6FF7303EA64
:101BE00002231943818370470A460021018B4FF677
:101BF0007F7319401143018370470A460021018B0E
:101C0000C1F30E014FF6FF7303EA02231943018368
:101C100070470A460021818B4FF67F7319401143AC
:101C2000818370470A460021818BC1F30E014FF674
:101C3000FF7303EA02231943818370470A46002198
:101C4000018C4FF6FD7319401143018470470A4619
:101C50000021018C4FF6F77319401143018470473E
:101C60000A460021018C4FF6DF7319404FF6FF73CF
:101C700003EA02131943018470470A460021018CCC
:101C80004FF67F7319404FF6FF7303EA02131943AF
:101C9000018470470A460021018C4FF6FF5319401A
:101CA0004FF6FF7303EA02231943018470470A4683
:101CB0000021018C4FF2FF7319404FF6FF7303EAC6
:101CC00002231943018470470A460021018C4DF616
:101CD000FF7319404FF6FF7303EA0233194301847F
:101CE000704730B5002301248C40A3B2048C9C4380
:101CF0000484048C02FA01F5ADB22C43048430BD97
:101D000030B5002304248C40A3B2048C9C4304848B
:101D1000048C02FA01F5ADB22C43048430BD70B5D9
:101D20000346002000241846183001258D40ACB22F
:101D30001D8CA5431D8409B1082909D100EB610060
:101D4000056825F0700505600568154305600EE01F
:101D50000D1FC5F34E052844056825F4E0450560D0
:101D600005684FF6FF7606EA02263543056070BD2A
:101D700021B1028842F00202028004E002884FF69C
:101D8000FD731A400280704721B1028842F00402BC
:101D9000028004E002884FF6FB731A40028070470D
:101DA00021B1828842F08002828004E082884FF66E
:101DB0007F731A408280704702884FF6F7731A408B
:101DC000028002880A430280704782884FF68F7330
:101DD0001A40828082880A438280704702894FF6C7
:101DE000F8731A40028102890A430281704702890E
:101DF0004FF67F731A40028102890A4302817047BD
:101E0000818470478185704781867047018770475C
:101E100081877047A0F84010704702884FF6FF4353
:101E20001A40028002880A43028070470146888E69
:101E300070470146088F70470146888F70470146FA
:101E4000B1F8400070470146888C70470146088D04
:101E5000704702460020138A0B400BB1012000E0BE
:101E600000207047CA430282704730B50246002006
:101E700000230024158A05EA0103958905EA010477
:101E800013B10CB1012000E0002030BDCA43028232
:101E90007047000010B50446FB48844209D1012177
:101EA0008803FFF79FF800214FF48040FFF79AF86E
:101EB00032E0F648844209D101214804FFF79FF837
:101EC00000214FF40030FFF79AF825E0F0488442F3
:101ED00009D101218804FFF792F800214FF48020F6
:101EE000FFF78DF818E0EB48844209D10121C804BE
:101EF000FFF785F800214FF40020FFF780F80BE092
:101F0000E548844208D101210805FFF778F800214F
:101F10004FF48010FFF773F810BD2DE9F04786B03D
:101F200005460E460024A24600BFA1460027B08900
:101F300000B100BF2F462C8A4CF6FF700440F08899
:101F400004432C82AC894EF6F3100440B0883189EA
:101F50000843718908430443AC81AC8A4FF6FF40C3
:101F60000440B0890443AC8201A8FEF7B4FFC64820
:101F7000874202D1DDF810A001E0DDF80CA0A889AD
:101F800000F4004040B10AEBCA0000EB0A103168CF
:101F90004900B0FBF1F807E00AEBCA0000EB0A10B9
:101FA00031688900B0FBF1F86420B8FBF0F004015F
:101FB0002009642101FB1089A88900F4004040B188
:101FC000322000EBC900B0FBF1F000F00700044341
:101FD00008E0322000EB09106421B0FBF1F000F0C2
:101FE0000F0004432C8106B0BDE8F0874FF4165172
:101FF000016000218180C18001810C21418100218B
:102000008181704710B502460020108A4FF2FF030D
:1020100018400B884C8823438C882343CC88234367
:102020001843108210BD0021018041808180C18051
:10203000704721B1828942F40052828104E0828992
:102040004DF6FF731A4082817047F0B503460024B5
:1020500000260025002040F66A17B94200D100BFD3
:102060001846C1F3421401F01F06012707FA06F5CE
:10207000012C01D10C3004E0022C01D1103000E021
:1020800014301AB107682F43076002E00768AF43B6
:102090000760F0BD1AB1838A0B43838202E0838A12
:1020A0008B4383827047028A4FF6F0731A40028294
:1020B000028A0A430282704782894FF2FF731A40F4
:1020C000828182890A438281704721B1828942F0EC
:1020D0000202828104E082894FF6FD731A408281F8
:1020E0007047028A4FF6DF731A400282028A0A435F
:1020F0000282704721B1028A42F48042028204E0E7
:10210000028A4BF6FF731A4002827047C1F308023D
:102110008280704701468888C0F308007047818933
:1021200041F0010181817047028BD2B20283028BA0
:1021300042EA012202837047028B02F47F4202834B
:10214000028B0A430283704721B1828A42F0200247
:10215000828204E0828A4FF6DF731A4082827047DF
:1021600021B1828A42F01002828204E0828A4FF614
:10217000EF731A408282704721B1828A42F00802CE
:10218000828204E0828A4FF6F7731A408282704797
:1021900021B1828942F40042828103E08289C2F344
:1021A0000E028281704721B1828A42F400628282EB
:1021B00004E0828A4FF2FF731A4082827047828A5B
:1021C0004FF6FB731A408282828A0A4382827047EA
:1021D00021B1828A42F00202828204E0828A4FF6B2
:1021E000FD731A408282704702460020B1F5007FDD
:1021F00000D100BF13880B400BB1012000E000208C
:10220000704701F40072B2F5007F00D100BFCA43ED
:102210000280704770B5024600240023002500208C
:1022200040F66A16B14200D100BFC1F3421501F079
:102230001F03012606FA03F3012D02D196893340CC
:1022400006E0022D02D1168A334001E0968A33401F
:102250000C12012606FA04F41688344013B10CB1AE
:10226000012000E0002070BD10B50022002340F6E0
:102270006A14A14200D100BF0A1201249440A3B203
:10228000DC43048010BD00000038014000440040E1
:1022900000480040004C00400050004086B04FF025
:1022A000000AD146002400F023FA01F0BAF84FF4F6
:1022B000E13000F0A2FA4FF4165000F0EAFA4FF4C1
:1022C000E13000F036FB00F085FD0223B1A2194693
:1022D000002000F009FE00F03BFF00F076FD022335
:1022E000B0A21946002000F0FFFD00F0B7FE00F09C
:1022F0006CFD0020AF4908704BE1AF480078002822
:10230000FAD04FF0000AD14609E0AC4810F80900B5
:10231000504400F0FF0A09F1010000F0FF09A7484E
:10232000C078001D4845F0DCA44810F8090050456D
:102330007ED1A24C241D2288A1A1A34801F0BAF8A5
:102340000123A14A1946002000F0CEFD606802F08A
:1023500041FE074600229D4B02F0E4FC05462A465A
:102360000B469BA1984801F0A5F80123964A19460F
:10237000322000F0B9FD208902F02CFE0546002233
:10238000924B02F0CFFC07463A460B4693A18E488B
:1023900001F090F801238C4A0221002000F0A4FDF6
:1023A000608902F017FE05460022884B02F0BAFC55
:1023B00007463A460B468CA1834801F07BF801237F
:1023C000814A02213F2000F08FFDA28989A17E4829
:1023D00001F070F801237C4A0321002000F084FD05
:1023E000606902F0F7FD05460022784B02F09AFC86
:1023F00007463A460B4681A1734801F05BF801237A
:10240000714A03213F2000F06FFD228A7EA16E48B1
:1024100001F050F801236C4A0421002000F064FD13
:10242000E2897BA1684801F045F80123664A00E093
:10243000ACE004213F2000F057FD7748028877A1E7
:10244000614801F037F801235F4A0521002000F0C0
:102450004BFD7448028874A15B4801F02BF80123FE
:10246000594A05213F2000F03FFD608970490988E5
:10247000884218DA4F480078A8B101236DA20621DE
:10248000002000F031FD012000F0BEFF6B48007815
:1024900090B96B4801686B48006800F024FF012088
:1024A0006649087008E0002000F0AEFF012366A234
:1024B0000621002000F018FD208A5749098888422B
:1024C0001DDD3C480078D0B1012000F090FF0123D1
:1024D0005FA20621282000F007FD58480078B8B90F
:1024E000228A5DA1384800F0E5FF5E480168554842
:1024F000006800F0F8FE01205049087008E0002054
:1025000000F082FF012358A20621282000F0ECFCF5
:1025100044490988606988421DD226480078D0B1B4
:10252000012000F059FF012351A20621502000F0A4
:10253000DBFC42480078B8B94FA12348626900F03B
:10254000B9FF504801683F48006800F0CCFE012008
:102550003A49087008E0002000F03EFF01234AA23B
:102560000621502000F0C0FC208AE189A38962691D
:10257000CDE90231CDE9040260892189CDE900105D
:10258000228843A15248636800F023FA00200A49D8
:102590000870B2E65769666920496E6974696E67AA
:1025A0002E2E2E0047534D20496E6974696E672E9A
:1025B0002E2E00003E0000204C0000209000002045
:1025C00049443A252D356400600000200000594040
:1025D000503A252D382E316670610000543A252D71
:1025E000342E326643000000483A25352E326625E7
:1025F00025000000413A252D36646D004C3A252D0A
:10260000372E326666780000533A252D3464000078
:10261000523A252D346400003A00002054533A25E4
:102620002D3464003C000020544C3A252D346400C5
:1026300038000020483A4F4E000000003F000020C4
:102640003400002028000020483A4F464600000091
:10265000533A4F4E20000000536F696C3D256420B3
:102660000000000030000020533A4F4646000000B2
:102670004C3A4F4E200000004C69676874203D259D
:10268000642000002C0000204C3A4F464600000019
:102690007B226964223A25642C2270223A25642C1C
:1026A0002274223A25642C2268223A252E642C2298
:1026B00061223A25642C2272223A25642C2273224C
:1026C0003A25642C226C223A25647D0A0000000021
:1026D00000380140704700BFFEE700BFFEE700BFC3
:1026E000FEE700BFFEE77047704770477047000085
:1026F00010B56FF00400FDF71EFF34480068344940
:10270000B0FBF1F0334908700846007800EB400157
:10271000C1EBC0104FF6FF7101EAC0002E490880DE
:1027200010BD01462B4A12784A434FF0E0235A610C
:1027300000229A611A46126942F001021A6100BF32
:102740004FF0E022106900F001021AB100F480326B
:10275000002AF5D04FF0E022126922F001024FF07A
:10276000E0231A6100229A61704701461A4A1288D2
:102770004A434FF0E0235A6100229A611A461269D7
:1027800042F001021A6100BF4FF0E022106900F030
:1027900001021AB100F48032002AF5D04FF0E02295
:1027A000126922F001024FF0E0231A6100229A61BF
:1027B000704730B50446002505E04FF47A70FFF706
:1027C000D4FF681CC5B2A542F7D330BD000000207D
:1027D00000127A004000002042000020014600BFA5
:1027E000704700BFFE4A128802F04002002AF9D06A
:1027F000C2B2FB4B1B1D1A80704710B586B0044651
:10280000012144F20400FEF7D3FB4FF40070ADF851
:10281000140003208DF8160018208DF8170005A964
:10282000F048FDF707FF4FF48060ADF81400042076
:102830008DF8170005A9EB48FDF7FCFE25208DF863
:10284000000003208DF801008DF8020001208DF8B2
:1028500003006846FDF725FE01940020ADF808004E
:10286000ADF80A00ADF80C00ADF810000C20ADF882
:102870000E0001A9DA48FFF750FB012240F2255172
:10288000D748FFF7E2FB0121D548FFF7D2FB06B09E
:1028900010BD10B586B0044601210420FEF788FB68
:1028A00001214804FEF791FBCF48FFF7F3FA182007
:1028B0008DF817000420ADF8140003208DF81600E1
:1028C00005A9C848FDF7B6FE04208DF817000820BA
:1028D000ADF8140005A9C348FDF7ACFE0194002033
:1028E000ADF810000C20ADF80E000020ADF80C0083
:1028F000ADF80A00ADF8080001A9BB48FFF70DFBD1
:102900000121B948FFF795FB012240F22551B64855
:10291000FFF79BFB26208DF8000001208DF80300B7
:102920008DF801008DF802006846FDF7BAFD06B08B
:1029300010BD10B586B0044601210820FEF738FB13
:1029400001218804FEF741FB4FF48060ADF81400CC
:1029500003208DF8160018208DF8170005A9A3484C
:10296000FDF768FE4FF40060ADF8140004208DF808
:10297000170005A99D48FDF75DFE01940020ADF804
:1029800010000C20ADF80E000020ADF80C00ADF8E2
:102990000A00ADF8080001A99548FFF7BEFA012129
:1029A0009348FFF746FB012240F225519048FFF77C
:1029B0004CFB27208DF8000001208DF8030000203B
:1029C0008DF801008DF802006846FDF76AFD06B03B
:1029D00010BD0FB430B5CBB0054601AC50A8009087
:1029E00001A8009A4F9900F053FD002000900BE0E1
:1029F00014F8011B2846FFF789FB00BF4021284639
:102A0000FFF7F2FB0028F9D020780028F0D14BB076
:102A100030BC5DF814FB2DE9F04107460C46154625
:102A200000260DE014F8011B3846FFF76FFB00BFCE
:102A300040213846FFF7D8FB0028F9D0701C86B239
:102A4000AE42EFDBBDE8F08110B504460BE000BFFD
:102A500040216748FFF7C8FB0028F9D014F8011B94
:102A60006348FFF753FB20780028F0D100BF4021D6
:102A70005F48FFF7B9FB0028F9D010BD10B540F250
:102A800025515748FFF7C6FB00285ED05448FFF792
:102A900041FBC4B220215248FFF7B3FB55480078F0
:102AA00040B92A2C02D10120524908700020524915
:102AB00008704AE0504800780F2804DA4F484E4921
:102AC0000978445404E000204B49087049490870D3
:102AD000232C35D14948007847282BD1002047497D
:102AE0004871481C00F024FE45490860084600680B
:102AF000002808DD08460068B0F5805F03DA084664
:102B000000884049088000203C498872881D00F0F8
:102B10000FFE3B49086008460068002809DD0846AA
:102B2000006842F20F71884203DA3548008836495E
:102B3000088000BF00BF00202E4908702E49087091
:102B40002D480078401C2C49087010BD10B540F28B
:102B500025512548FFF75EFB002865D0202122483B
:102B6000FFF74FFB2048FFF7D5FAC1B2274802789C
:102B70000078401C254B18702548815400785A284D
:102B800002D000201946087020480078022806D19B
:102B90001F4840785A2802D000201C4908701B4862
:102BA0000078032840DD1A48C078401D174909788D
:102BB000884200D010BD1648807815282ED03528C0
:102BC0002DD045282CD11348007838B91E22104941
:102BD000114800F0CCFD01200E49087020E023E0F0
:102BE000003801400008014000440040000C014052
:102BF000004800404F0000204E00002080000020D0
:102C0000480000203A0000203C0000205100002035
:102C1000780100204C0000209000002000E000BF60
:102C200000BF00201349087000BFC3E710B540F291
:102C300025511148FFF7EEFAD0B10F48FFF76AFAB5
:102C4000C4B221460D48FFF761FA0D480D490978D5
:102C500044540C480078401C0A4908700846007823
:102C6000C82801DD0020087020210348FFF7C9FAB9
:102C700010BD000051000020004800400038014015
:102C8000B00000204D00002000B585B001214805AE
:102C9000FEF79BF901210820FEF78AF9C020ADF864
:102CA000000003208DF802001C208DF80300694607
:102CB000E348FDF7BFFCE348FDF70AFE0020ADF84E
:102CC00008004BF6FF70ADF80A003020ADF80C009C
:102CD0004FF48060ADF80E000001ADF81000DA4846
:102CE00001900121D748FDF78AFE01A9D548FDF7DB
:102CF00008FE05B000BD70B504460D4600BF4FF498
:102D00000031D048FDF7A2FF0028F8D10121CD48BD
:102D1000FDF799FE00BFCD49CA48FDF775FF0028B1
:102D2000F9D000227821C748FDF7E3FE00BFC8496B
:102D3000C448FDF769FF0028F9D02146C148FDF7D6
:102D4000D2FE00BFC249891CBE48FDF75DFF0028C6
:102D5000F8D02946BB48FDF7C6FE00BFBC49891C18
:102D6000B848FDF751FF0028F8D00121B548FDF71C
:102D700076FE70BD10B5044621460020FFF7BBFF6C
:102D800010BD10B5044621464020FFF7B4FF10BD2A
:102D900070B50646002415E004F1B001C8B2FFF793
:102DA000E9FF0020FFF7E6FF1020FFF7E3FF002513
:102DB00004E03046FFF7E5FF681CC5B2802DF8DB64
:102DC000601CC4B2082CE7DB70BD10B50020FFF713
:102DD000DFFF10BD10B5FFF757FF6420FFF7C5FCFC
:102DE000AE20FFF7C7FF2020FFF7C4FF1020FFF73A
:102DF000C1FFB020FFF7BEFFC820FFF7BBFF0020D8
:102E0000FFF7B8FF1020FFF7B5FF4020FFF7B2FF34
:102E10008120FFF7AFFFFF20FFF7ACFFA120FFF7F6
:102E2000A9FFA620FFF7A6FFA820FFF7A3FF3F20DA
:102E3000FFF7A0FFA420FFF79DFFD320FFF79AFF25
:102E40000020FFF797FFD520FFF794FFF020FFF752
:102E500091FFD920FFF78EFF2220FFF78BFFDA20AA
:102E6000FFF788FF1220FFF785FFDB20FFF782FFC7
:102E70002020FFF77FFF8D20FFF77CFF1420FFF756
:102E800079FFAF20FFF776FF0120FFF76EFCFFF719
:102E90009CFF10BD70B504460D4605F1B001C8B2E7
:102EA000FFF768FF102141EA1410FFF763FF04F0F9
:102EB0000F0141F00100FFF75DFF70BD10B58D20DF
:102EC000FFF758FF1420FFF755FFAF20FFF752FF21
:102ED00010BD10B58D20FFF74DFF1020FFF74AFF02
:102EE000AE20FFF747FF10BD2DE9F04706468946A3
:102EF00017469A464FF0000800240025BAF1010F4A
:102F000003D0BAF1020F5ED125E020E0785D2038D1
:102F100000F0FF087E2E04DD002609F1010000F01C
:102F2000FF0949463046FFF7B5FF002409E008EBEA
:102F30004801484A02EB4101085DFFF722FF601C8F
:102F4000C4B2062CF3DBB01DC6B2681CC5B2785DF6
:102F50000028DBD137E032E0785D203800F0FF0850
:102F6000782E04DD002609F1010000F0FF09494632
:102F70003046FFF78FFF002407E004EB0811364AC4
:102F8000505CFFF7FEFE601CC4B2082CF5DB09F1B3
:102F90000100C1B23046FFF77DFF002408E004EBDA
:102FA000081108312C4A505CFFF7EBFE601CC4B2DC
:102FB000082CF4DB06F10800C6B2681CC5B2785DC7
:102FC0000028C9D100BF00BFBDE8F0872DE9F05F40
:102FD00006460F4690461C46DDF828A04FF0000B31
:102FE000E11704EB5171C910A4EBC10131B92046BE
:102FF000E11704EB5171C1F3C70506E02046E11764
:1030000004EB5171C910491CCDB23D4614E029466C
:103010003046FFF73FFFB1460AE059460BF1010B7E
:103020001AF80100FFF7ADFE09F1010000F0FF09F9
:10303000C145F2DB681CC5B2A542E8DBBDE8F09FE4
:10304000000C014000540040801A060001000300FB
:1030500082000700A6500008CE5200081FB50121CB
:103060000846FDF7B2FF42F20F70ADF8080041F6D6
:103070001F40ADF804000020ADF80A00ADF80600CE
:1030800001A94FF08040FEF7CBF81C208DF800001E
:1030900001208DF801008DF802008DF803006846CC
:1030A000FDF7FFF9012211469007FEF730FC0121E0
:1030B0008807FEF711FC1FBD10B501218807FEF738
:1030C000D4FE002836D001218807FEF7DFFE1A481B
:1030D0000078012805D119480088401C174908804C
:1030E00002E000201549088014480088782804DD93
:1030F000002012490880104908701148007820B15A
:1031000010480078401C0F4908700E4800780E499E
:103110000978884204DD00200949087009490870CF
:103120000A48007818B100200849087002E0012020
:103130000649087010BD00003F000020520000202A
:103140005E0000205C0000205D0000205400002094
:1031500010B54FF4FA70FFF708FB13A11548FFF7FD
:1031600038FC0620FFF725FB13A11248FFF731FCBE
:103170004FF4FA70FFF7F9FA13A10E48FFF729FC94
:103180000320FFF716FB1AA10A48FFF722FC4FF4B1
:10319000FA70FFF7EAFA1AA10648FFF71AFC4FF493
:1031A000FA70FFF7E2FA10BD41542B5253540D0A46
:1031B000000000000038014041542B4349504D5558
:1031C000583D300D0A00000041542B4349505354E0
:1031D0004152543D22544350222C223138322E3653
:1031E000312E35352E3436222C383839380D0A0038
:1031F00041542B4349504D4F44453D310D0A000089
:1032000041542B43495053454E440D0A00000000E1
:10321000002004E00021544A1154411C88B2C828FF
:10322000F8DB0021514A1170704710B50446214661
:103230004D4800F08AFA08B1012010BD0020FCE7DB
:103240002DE9F04104460D461646A046FFF7E0FF83
:10325000002727E02846FFF7E8FFF8B94448007840
:1032600000BB44460BE000BF40214248FEF7BCFFD4
:103270000028F9D021783F48FEF748FF641C2078E9
:103280000028F0D13CA0FFF7DFFB00203B4908708D
:103290003B48067001203649087003E001270020F2
:1032A00033490870002FD5D0FFF7B2FFBDE8F08199
:1032B00010B5032233A134A0FFF7C2FF032231A1CE
:1032C00032A0FFF7BDFF03222EA132A0FFF7B8FF07
:1032D00003222CA132A0FFF7B3FF032229A135A0BE
:1032E000FFF7AEFF10BD70B505460C46032235A1B1
:1032F0002846FFF7A5FF34480068FFF7A5FB2046E6
:10330000FFF7A2FB1A211B48FEF700FF1AA0FFF7E8
:103310009BFB70BD70B50025FFF77AFF20E0FFF73B
:1033200077FF2AA0FFF790FB13A0FFF78DFB042087
:10333000FFF73FFA002410E00B48005D3A280AD15D
:103340000949201D085C312803D0201D085C352860
:1033500001D1012503E0601CC4B2C82CECDB00BF26
:10336000002DDCD070BD0000B00000204D0000201A
:103370005E000020004800400D0A00005C000020B4
:103380005D0000204F4B0000415400004154264690
:103390000000000041542B434D47463D31000000E2
:1033A00041542B43534D503D31372C3136372C325D
:1033B0002C32350041542B435343533D2255435344
:1033C000322200003E0000005800002041542B43F0
:1033D0005245473F00000000012803D10121284A3F
:1033E000116003E010B90021254A116070470128DF
:1033F00004D10121224A121D116004E018B90021F4
:103400001F4A121D11607047012804D101211C4A76
:103410001032116004E018B90021194A103211600D
:10342000704708B501210420FDF7C2FD4FF4184094
:10343000ADF8000010208DF8030003208DF8020085
:1034400069461048FDF7F6F801210820FDF7B0FDA8
:103450004FF44050ADF8000048208DF803000320E1
:103460008DF8020069460848FDF7E4F80020FFF7F0
:10347000CBFF0020FFF7BBFF0020FFF7ADFF08BD2B
:10348000AC01214200080140000C014070470000DF
:103490001CB50C46064B7B4469460090204600F064
:1034A00070FC04460020694600F07EFC20461CBDEE
:1034B0000F0900000FB41CB5084B06AA7B446946EF
:1034C0000090059800F05DFC04460020694600F07D
:1034D0006BFC20461CBC5DF814FB0000E9080000F2
:1034E00070B5044685690068C10601D5302600E044
:1034F0002026C00707D070BDD4E90121304690478F
:10350000206A401C20626D1EF6D570BD70B5044661
:1035100085690078C00707D170BDD4E9012120205A
:103520009047206A401C20626D1EF6D570BD0000D9
:103530002DE9F0410646002410687529314616A58C
:1035400010D000F061F9002802DA404213A507E02C
:1035500031688A0701D512A502E0490704D511A5F3
:10356000012401E000F059F900210A2206F12407A4
:1035700009E0B0FBF2FCB0FBF2F302FB1C003030C0
:1035800078541846491C0028F3D123462A46304671
:10359000BDE8F04100F073B9000000002D0000000C
:1035A0002B000000200000002DE9F05F8946044652
:1035B0004FF0000ADFF874B1FB44C0F820A02046A9
:1035C000E1688847002874D0252806D0D4E9012175
:1035D0009047206A401C2062F1E700265F462046A3
:1035E000E16888472028054607DB312D05D2781988
:1035F00010F8200C08B10643F1E7B00701D526F01A
:103600000406C4F81CA00027C4F818A02A2D09D06D
:10361000284601F053FB38B304EB8708303DC8F867
:10362000185019E059F8041B204604EB87029161F9
:10363000E1688847012F054618D1E069002820DAA3
:1036400026F020061DE0D8F8180000EB800005EBFE
:1036500040003038C8F818002046E1688847054621
:1036600001F02CFB0028EED1012F0AD02E2D08D11D
:103670002046E16888477F1C0546022F46F0200659
:10368000C4DBA069002803DA404246F00106A061CD
:10369000F00701D026F010066C2D0BD0682D09D054
:1036A0004C2D39D06A2D35D0742D35D07A2D33D0AC
:1036B00016E038E0E1682F4620468847B8420546C4
:1036C00009D16C2F26D04FF48060E1680643204674
:1036D0008847054604E06C2F1AD04FF480700643EB
:1036E0000DB3A5F14100192802D8203546F4006633
:1036F0004A462946204626604E46FCF753FD80B1D7
:1037000001280BD0F61D26F0070000F1080956E746
:103710004020E4E78020D8E70020D6E706F104093E
:103720004DE7284652E7206ABDE8F09F02230000DB
:1037300070B5064600F064F80468054630460A2273
:10374000002100F055FC2C6070BD30B505460B46DD
:103750002A4613F8014B12F8010B08B1A042F8D029
:103760001CB1002802D06D1CF1E7284630BD032AA9
:1037700040F2308010F0030C00F0158011F8013B8E
:10378000BCF1020F624498BF11F801CB00F8013B75
:1037900038BF11F8013BA2F1040298BF00F801CB39
:1037A00038BF00F8013B11F0030300F05984083AD8
:1037B000C0F0088051F8043B083A51F804CBA0E867
:1037C0000810F5E7121D5CBF51F8043B40F8043BBC
:1037D000AFF30080D20724BF11F8013B11F801CBF1
:1037E00048BF11F8012B24BF00F8013B00F801CBC2
:1037F00048BF00F8012B704770477047704770470B
:10380000004870479801002009684A0501D540B278
:103810007047C905FCD500B2704709684A0501D553
:10382000C0B27047C905FCD580B2704770B50C4670
:103830000546012A05D02878800600D5EA690023CC
:1038400002E0012305E05B1C934202D2E05C002809
:10385000F9D1A869E618C01AA861286A1844286234
:103860002846FFF73DFE04E0D5E9012114F8010BDD
:103870009047B442F8D32846FFF748FE70BD2DE9C3
:10388000F0470D4699469246044600F12408016827
:10389000880604D5E06921F01001216000E00120D4
:1038A000A84201DD471B00E00027A1697A1902EB5D
:1038B0000900081AA0612078C00602D42046FFF74C
:1038C0000FFE002608E0D4E901211AF8060090470F
:1038D000206A401C761C20624E45F4DB2078C0062E
:1038E0000AD52046FFF7FCFD06E0D4E9012130208F
:1038F0009047206A401C2062381EA7F10107F4DCC3
:1039000007E0D4E9012118F805009047206A401C1F
:103910002062281EA5F10105F3DC2046FFF7F6FD25
:103920002078000602D50220BDE8F0870120FBE7E1
:1039300011680268006A530501D508700AE0D305D2
:1039400001D5088006E0130603D5C217C1E90002BD
:1039500000E008600120704770472DE9FF4F0C46DA
:103960001E464FF0FF378BB0D2E90001DDF86080D2
:103970000A908A46C1F30A5505B93D46002108461A
:103980004FF00000BAF1000F00F4400005DA00EB40
:1039900080004FF4400101EA50004FEA9059B9F11C
:1039A000010F00DDB9460A9850EA4A000ED044F6ED
:1039B0001050A5F2FF3545432F14B8F1000F1ED06B
:1039C0007542291E1EDDC9F100021CE0B8F1010F8D
:1039D0004FF0000001D0302103E0F24305E0215414
:1039E000401CB042FBDB30460022002121540B99E1
:1039F000C1F80880C1E900200FB0BDE8F08FBD1B01
:103A00006D1CDEE74A4600DA694206A800F06CFC4D
:103A100006AB93E8070003AB83E8070050460A991A
:103A200000F070FD8DE80700A0F500501F380090F1
:103A30000398002D0ADD42F21F014A460844002384
:103A400003A90390684600F0D9FF09E0A0F50050F3
:103A50004A461F38002303A90390684600F0E3FF9D
:103A60008DE807000004000C03D04FF0FF30410840
:103A700000E01046B8F1000F03D000220092154676
:103A80001EE0751E05D400F02DFB303262556D1E10
:103A9000F9D5B3460122084302D000227F1C04E07E
:103AA0002078302801D100227F1E002A099784D077
:103AB0001DE0112D07DA00F015FB303262556D1C48
:103AC00050EA0102F5D1084302D00098C8B10EE0D7
:103AD0000021681E05E0235C625C63542254401E92
:103AE000491C8142F7DBAB46A81B401E0990002011
:103AF00004F80B000B98099AC0F80880C0E9002B65
:103B00007AE711264FF0000857E72DE9F04F884675
:103B10000446D21D22F0070191B0D1E90001CDE9A0
:103B20000A0101F0B7F802460B98C00F01D02D2012
:103B300007E02068810701D52B2002E0202101EA5F
:103B4000C000032A099001D0072A05DB034641463D
:103B5000204600F00DFB0BE12078800601D5E069DE
:103B600000E00620B8F1650F814606D0B8F1660F77
:103B700018D0B8F1670F70D131E00020B9F1110F02
:103B8000009001DB112301E009F101030AAA01A958
:103B90000CA8FFF7E2FEDDE90C70002609F1010533
:103BA000834647E001204B4600904FF000470AAAA9
:103BB00001A90CA8FFF7D1FEDDE90DB00C995D4617
:103BC000002610B909F101000D18B9EB050003D466
:103BD000C0F1FF3609F10105A5EB09002BE0B9F1B1
:103BE000010F01DA4FF001090020B9F1110F009027
:103BF000484601DD112300E003460AAA01A90CA8EA
:103C0000FFF7ABFEDDE90C704D46002683462078B9
:103C100000070AD4AB4500DA5D4601A8012D04DD9A
:103C2000411911F8011C302907D04F4502DA17F16C
:103C3000040F04DA012082460FE06D1EEEE7002F2C
:103C400002DCED1B3E4403E0781CA84200DD7D1C35
:103C5000B81B00F1010A4FF000472078000703D499
:103C6000AA4501DB4FF0FF3A0021B7F1004F0DF1FB
:103C700043088DF8431024D002202B23002F01DAB3
:103C80007F422D230A21021EA0F1010000DC5FB15A
:103C900097FBF1FC97FBF1F201FB1C7C17460CF142
:103CA000300C08F801CDEEE7A8F10100037021887F
:103CB000090501D5452100E06521A0F1010800F8C2
:103CC000011C09980FA9A1EB0807FF1D00B10120F5
:103CD000411901EBEA70A1693844081A401EA0613D
:103CE0002078C00602D42046FFF7FAFB099828B1D5
:103CF000D4E901219047206A401C20622078C00648
:103D000022D52046FFF7ECFB1EE0002E04DBB34576
:103D100002DD01A8805D00E03020D4E90121904758
:103D2000206A401C2062761CAAF101005FEA000AAA
:103D30000AD100F0D3F9C0680168405CD4E90121E0
:103D40009047206A401C2062281EA5F10105DCDC9A
:103D500007E0D4E9012118F8010B9047206A401CC4
:103D60002062381EA7F10107F3DC2046FFF7CEFBE7
:103D7000032011B041E6000001694A1C0261087885
:103D8000704700B58FB0CDE901310021059105499B
:103D90007944CDE9031011466846FFF705FC0FB0E2
:103DA00000BD0000E5FFFFFF0A6802F8010B0A6092
:103DB000704700002DE9FF5F15468A460446DFF88C
:103DC000AC80F8440027D8E900103E46CDE9001049
:103DD00010E03AF816106A4602A800F0F7FA411C03
:103DE00007D02178890603D5E269391891420DD8A8
:103DF0000744761C2078800602D5E069B84205DDCC
:103E0000AE42E6DB3AF816000028E2D1A069C01BFA
:103E1000A0612046FFF764FBD8E90010CDE900104F
:103E2000002017E03AF818106A4602A800F0CEFA0F
:103E3000B0F1FF3F81460BD000250DF1080B05E0E6
:103E4000D4E901211BF8050090476D1C4D45F7D3BF
:103E500008F10100B0428046E4DB206A3844206269
:103E60002046FFF753FBBDE8FF9F00000A1B000040
:103E70002DE9F0418046D21D22F007020025D2E94B
:103E80000002F52915A614D0011E72F1000106DA10
:103E90000023D0EB030063EB020211A608E0D8F880
:103EA00000108B0701D50FA602E0490701D50EA629
:103EB00001251146002408F1240704E000F012F95E
:103EC00030323A55641C50EA0102F7D12B46324693
:103ED00021464046BDE8F041FFF7D1BC000000009C
:103EE0002D0000002B0000002000000030B4002155
:103EF00000F1240408E002F00705D208303542EA58
:103F00004372DB086554491C52EA0305F3D1046887
:103F1000002310A2250707D5A40600D421B1C46947
:103F200001230DA2641EC46130BCFFF7A8BC10B50C
:103F3000044621461068FFF770FC02462046BDE8A3
:103F400010400023D2E7D21D22F00701D1E900235F
:103F5000CCE700000000000030000000F0B40D4687
:103F60000188090502D5214C7C4402E01F4C7C44A9
:103F70000E34002100F1240608E002F00F071209B8
:103F8000E75D42EA03721B097754491C52EA0307B2
:103F9000F3D102780023120704D5702D06D009B1A1
:103FA000022311342246F0BCFFF769BC0123103410
:103FB000F8E770B504460D4621461068FFF72DFC62
:103FC000024629462046BDE870400023C6E7D21DC0
:103FD00022F00703D3E90023C0E70368126843F027
:103FE000200303600823C3610023B7E76C190000B6
:103FF0002DE9F04791460F4680460446002614F806
:10400000015B2DB100F062F80068405DC007F6D199
:104010002B2D02D02D2D18D0641E4A46394620463D
:1040200000F012F927B13968A14201D1C7F8008028
:104030004FF0020471050BD54042002803DDFFF765
:10404000DFFB0460A007BDE8F08746F48066E4E784
:104050000028F8DAFFF7D4FB04606FF00040F2E7C5
:1040600010B5203AC0F00B80B1E81850203AA0E813
:104070001850B1E81850A0E81850BFF4F5AF5FEA47
:10408000027C24BFB1E81850A0E8185044BF18C9FA
:1040900018C0BDE810405FEA827C24BF51F8043BA1
:1040A00040F8043B08BF7047D20728BF31F8023BF5
:1040B00048BF11F8012B28BF20F8023B48BF00F889
:1040C000012B7047004870479801002010B500F0A0
:1040D00005F8001D10BD00BF210C0000004870470E
:1040E000B801002030B5B0F10A024FEA900E71F12C
:1040F00000034EEA817EB0EB0E0061EB91014FEAC6
:10410000101E4EEA017E10EB0E0041EB11114FEA3A
:10411000102E4EEA016E10EB0E0041EB11214FEA1A
:10412000104E4EEA014E10EB0E0041EB11414018CB
:1041300041F100014FEAD00040EA41704FEAD1015D
:1041400010EB80054FEA810444EA907444EB0104CB
:104150006D1944EB0404521BA3414FF0000348BF08
:104160000A3200D530BD401C41F1000130BD0000D5
:104170002DE9F0411F46044603260168072A01F491
:10418000006004DB08B116A505E016A503E008B140
:1041900015A500E015A521F010002060A069C01E43
:1041A000A0610FB1401EA0612046FFF799F94FB101
:1041B000D4E9012138469047206A401C2062C01C87
:1041C000206206E0206AFAE7D4E9012115F8010B24
:1041D0009047761EF8D22046FFF798F9BDE8F081A7
:1041E0004E414E006E616E00494E4600696E66009B
:1041F00010B5436913B1AFF3008001E0FFF716FB80
:10420000012010BD127800F124010A7000224A70CA
:104210000122EDE711684FF0FF32E9E710B543697D
:1042200013B1AFF3008001E0FFF7C4FD012010BD22
:10423000128800F1240182840022C2840122EDE769
:1042400011684FF0FF32E9E72DE9F05F824615462D
:104250008B4600270AF10104B9460078302801D0C6
:104260009DB113E014F8010B0127782803D05828DA
:1042700001D045B10AE00DB1102D07D1002714F887
:10428000010B102502E0082500E00A250026B046B3
:104290000EE005FB080005FB06F101271FFA80F878
:1042A00001EB1046B6F5803F00D3B94614F8010B78
:1042B000294600F0D0F80028EBDABBF1000F05D05A
:1042C0000FB1641E00E05446CBF80040B9F1000F76
:1042D00006D0FFF795FA02210160C81EBDE8F09FE5
:1042E00048EA0640FAE700002DE9F0478146164605
:1042F0008AB0354878440DC88DE80D0032487844BE
:10430000801C03AC0DC884E80D0041F69B300844C6
:10431000372190FBF1F290FBF1F5A5F1800501FB4F
:1043200012041B3C02D56442012000E00020DFF8AB
:1043300098A080460027FA44AAF1BE0A0EE0E007E2
:104340000AD03246684607EB470101230AEB810198
:1043500000F069FB8DE8070064107F1C002CEED193
:10436000194F7F44AE3F19E0E80715D007EB041062
:104370000DF1180A90E80E008AE80E00C068F042BD
:1043800001D1981908903246012306A903A800F02C
:104390004AFB03AB83E807006D10641C002DE3D1DA
:1043A0004FF0010332466946B8F1000F03A802D06E
:1043B00000F024FB01E000F036FBC9E90001C9F878
:1043C00008200AB0BDE8F0878416000070B51646D4
:1043D0000C460546FFF77AFE036893F801010128B1
:1043E00006D0FF2C0FD8185D68B101202C7070BD6D
:1043F000D3F807013246214603F207130344284647
:10440000BDE8704018474FF0FF3070BD7546FFF7AC
:1044100059FEAE4605006946534620F00700854622
:1044200018B020B5FBF736FFBDE820404FF000067E
:104430004FF000074FF000084FF0000B21F007018C
:10444000AC46ACE8C009ACE8C009ACE8C009ACE8CF
:10445000C0098D4670473A2800D2303820F020023B
:10446000412A01D3A2F13700884201D34FF0FF3037
:10447000704710B50446AFF300802046BDE81040F9
:10448000FBF7F3BE4FF0013C50F8042B51F8043B0E
:104490009A4221D1A2EB0C03934313EACC1317D118
:1044A00050F8042B51F8043B9A4215D1A2EB0C03AF
:1044B000934313EACC130BD150F8042B51F8043B6F
:1044C0009A4209D1A2EB0C03934313EACC13DBD03D
:1044D0004FF00000704700BFD01A01BAB1FA81F165
:1044E00001F0180122FA01F0CB40C1F12001DBB24A
:1044F000C0B2C01A2CFA01F3D11A914311EAC311C8
:10450000E6D170475FEA400C08BF91F0000F4FEA18
:104510008C234FEAC12243EA51514FEA1C5018BF85
:1045200000F5F0404FEA300018BF41F000415FEA6B
:104530006C5C00F02980BCF1FF3F08BF40F0804078
:104540007047130C06BF12044FF0100C4FF0000C14
:10455000130E04BF12020CF1080C130F04BF12015A
:104560000CF1040C930F04BF92000CF1020CD30F5A
:1045700004BF52000CF1010C11464FF00002A0F1F3
:104580001F00A0EB0C00704711F0004F08BF7047F0
:1045900031F000413FF4D5AF0B0C06BF09044FF0DA
:1045A000100C4FF0000C0B0E04BF09020CF1080CAC
:1045B0000B0F04BF09010CF1040C8B0F04BF890021
:1045C0000CF1020CCB0F04BF49000CF1010CCCF133
:1045D0002003A0EB0C0022FA03F302FA0CF241EAEA
:1045E000030100F10100704720F07F4C80EA0300D6
:1045F00023F07F47ACEB070303F57C5300F000404A
:1046000003F1FF032DE980494FEA154B09B44FEA46
:10461000144325EA0B4E24EA03480FF2042606EB66
:10462000132749083E785FEA320203FB0667C7F5A5
:10463000000707FB06F64FEA54374FEAD64606F165
:10464000020607FB066CCCF1005C4FEA1C472CEA23
:10465000074C07FB06F40CFB06F504EB15464FEA86
:10466000961634BF00204FF000404FEAD13706FBCA
:1046700007FC4FEA1C4C0CFB0BF7D21B03FB0CF79F
:1046800061EB07010CFB0EF7B0EB074072EB174232
:104690000CFB08F734BFA2EB0742B2EB074261EB19
:1046A00017414FEA0C444FEA910706FB07FC4FEA1B
:1046B0001C4C0CFB0BF7B0EBC74072EB573203FB03
:1046C0000CF734BFA2EBC742B2EBC74261EB5731E4
:1046D0000CFB0EF7B0EBC70072EB57720CFB08F740
:1046E00034BFA2EBC702B2EBC70261EB5771039F65
:1046F0004FEA816141EA921104EBCC044FEAD137D1
:104700004FEA826206FB07FC42EA90124FEA8060A1
:104710004FEA1C4C0CFB0BF7D21B03FB0CF761EBB5
:1047200007010CFB0EF7B0EB074072EB17420CFBD6
:1047300008F734BFA2EB0742B2EB074261EB174127
:104740004FEA8C554FEA910704EB9C2406FB07FCCB
:104750004FEA1C4C0CFB0BF7B0EBC74072EB573227
:1047600003FB0CF734BFA2EBC742B2EBC74261EBCD
:1047700057310CFB0EF7B0EBC70072EB57720CFB16
:1047800008F734BFA2EBC702B2EBC70261EB577167
:1047900015EB4C254FEA816141EA92114FEA8262A2
:1047A0004FEAD13742EA901206FB07FC44F10004BD
:1047B0004FEA80604FEA1C4C0CFB0BF7D21B03FB4B
:1047C0000CF761EB07010CFB0EF7B0EB074072EB47
:1047D00017420CFB08F734BFA2EB0742B2EB0742CB
:1047E00061EB174115EB1C154FEA813141EA92410B
:1047F0004FEA823242EA90424FEA80304FEA0C762A
:1048000044F1000448EA03434EEA0B484FF0000E1F
:10481000B2EB080C71EB030724BF624639464EEB3E
:104820000E0E4FF0000B0018524149414BEB0B0BA1
:10483000B2EB080C71EB03077BF1000B24BF62465F
:1048400039464EEB0E0E4FF0000B00185241494115
:104850004BEB0B0BB2EB080C71EB03077BF1000B7E
:1048600024BF624639464EEB0E0E51EA020718BFCE
:1048700046F0010616EB0E7655F1000254F10001E8
:1048800003D5BDE88901BDE80088BDE88901BDE820
:104890000048B619524141EB0101A3F101037047F1
:1048A00080807F7E7D7C7B7A79787776767574736D
:1048B000727171706F6E6E6D6C6C6B6A6A6968682C
:1048C000676666656464636362616160605F5F5EC2
:1048D0005E5D5D5C5C5B5B5A5A5959585857575638
:1048E000565555555454535352525251515050509D
:1048F0004F4F4F4E4E4D4D4D4C4C4C4B4B4B4A4AEF
:104900004A49494948484847474747464646454532
:10491000454444444443434343424242424141416B
:10492000002B9C4630D477002BD01CB54FEA3707BC
:1049300003B44FF010004FF01001BAF1000F06D091
:10494000BCF1000FDCBF40F0080040F008014FF060
:1049500000000FBCBDE810400BF1010BBBF1010FD3
:1049600008BF5FEA170722BF12F1010211F101012E
:104970004FF0004143F1000300F0004043EA000023
:104980007047F9D35708D0E746EA064613F1400FBF
:104990004FEA16461FDD13F1200FDFBF16430A460C
:1049A000002120335B42BED0C3F1200746EA064611
:1049B00002FA07F74FEA164646EA0706C3F1200750
:1049C00022FA03F201FA07F721FA03F14FF000038C
:1049D00042EA0702A7E746EA020646EA06464FEA27
:1049E000164646EA0106BCBF46EA0646360C4FF0BC
:1049F00000034FF000024FF0000194E72DE9804CD6
:104A00009A46934670B491E8380007C831EA400CE2
:104A100048BF34EA430C03D5FFF7E6FDFFF780FFFC
:104A2000F0BCBDE8008C2DE9804C9A46934670B4EA
:104A300091E8380007C810F0804F08BF13F0804F8E
:104A400003D100F005F8FFF76BFFF0BCBDE8008C68
:104A500020F07F4780EA030023F07F4C07EB0C0334
:104A6000A3F57C5300F00040A3F1FE0392F0000F89
:104A700000F0B38095F0000F00F077802DE9014938
:104A80004FEA11404FEA144621EA004800FB06FCB9
:104A900024EA064708FB06F607FB08F800FB07F7C1
:104AA00018EB06484CEB164C4FEA124B18EB074834
:104AB0004FEA15464CEB174022EA0B4E0BFB06FC67
:104AC00025EA06470EFB06F607FB0EFE0BFB07F773
:104AD0001EEB064E4CEB164C4FF000061EEB074E3D
:104AE0004CEB174B18EB0B0840F1000018EB0E0BCA
:104AF00058EB000840F100008F1A4FF000013CBF56
:104B0000C943661B14BFB5EB040C00213CBFC9436D
:104B1000F61B4FEA17444EEA8E0E27EA04454FEA89
:104B20001C4704FB07622CEA074C05FB07F70CFB4C
:104B300005F604FB0CFC16EB074642EB174216EB9E
:104B40000C4642EB1C421BEB060658EB02024141AD
:104B500046EA9E0601D5BDE80189B619524141EBEE
:104B60000101A3F10103BDE801894FEA14454FEAB1
:104B7000114724EA054621EA074C05FB07F406FB2A
:104B800007F70CFB06F105FB0CFC11EB074144EBAE
:104B900017444FEA124711EB0C4144EB1C4422EA44
:104BA000074C05FB07F206FB07F70CFB06F605FBB7
:104BB0000CFC16EB074642EB174216EB0C4642EB99
:104BC0001C456A1854F1000148BF7047B61952419C
:104BD00041EB0101A3F10103704795F0000F37D0BD
:104BE0004FEA11424FEA144721EA024624EA074CF1
:104BF00002FB07F106FB07F70CFB06F402FB0CFCBB
:104C000014EB074441EB17414FEA154714EB0C44F2
:104C100041EB1C4125EA074C02FB07F506FB07F7B1
:104C20000CFB06F602FB0CFC16EB074645EB1745A2
:104C300016EB0C4645EB1C42121951F1000148BF1E
:104C40007047B619524141EB0101A3F101037047CE
:104C50004FEA14454FEA114724EA054621EA074C7A
:104C600005FB07F106FB07F70CFB06F24FF0000609
:104C700005FB0CFC12EB074241EB174112EB0C4217
:104C800051EB1C4148BF7047921841EB0101A3F161
:104C900001037047490050EAC12018BF04204A0DA3
:104CA00018BF40F0010040F2FF72B2EB515F08BF45
:104CB00040F00200012808BF0520704730380A285C
:104CC00001D20120704700207047000010B5002974
:104CD0000AD00878002807D005487844FFF7D2FBAF
:104CE000002801D0002010BD0248784410BD00000B
:104CF000B60D0000AE0D000010B500290AD00878EE
:104D0000002807D005487844FFF7BCFB002801D0F5
:104D1000002010BD0248784410BD0000A60D000020
:104D20009E0D00002DE9C04130B4DFF8A0C23CEA7E
:104D3000111418BF3CEA131400F0EC8081EA03055B
:104D40001CEA111444EAD57418BF1CEA131500F0CC
:104D5000C780A4EB05044FF0004545EAC12145EAB0
:104D6000C32341EA505143EA525304F17F749942FC
:104D700004F500344FEAC0204FEAC22208BF904237
:104D800000F09C804FEA13650FF24016765D4FEA03
:104D9000134506FB05F7C7F1807706FB07F74FEAD7
:104DA000D737A7FB03687642C8F58038A7FB06CE45
:104DB00038BFA8F1010807FB08E64FF0000EA6FB7C
:104DC000028CE6FB03CEDCF1000CCEF1004E38BFC6
:104DD000AEF1010EA6FB0C584FF000074FF0000596
:104DE000E6FB0E87A1FB08C6A0FB07CE16EB0E065E
:104DF00045F10005E1FB076515F1E04E7EBFA4F526
:104E000080345FEA46066D4116F1800745F10005E2
:104E10004FEA17274FEA066647EA0567A6F1DE461E
:104E2000B6F1805F4FEA15251FD9384624F0010CF2
:104E300005EBC471BCF1FE6F01EB0C1102D8F0BCA4
:104E4000BDE8008124425CBF01F5801E9EEAC47F5C
:104E500002D4F0BCBDE80081244238D4F0BCA1F1FA
:104E6000C041BDE8004100F016B94FEAD22242EA43
:104E700043524FEAD323A7FB02864FEAD02040EAF1
:104E8000415007FB03661EEA0E0F4FEAD12105FBD6
:104E9000026658BFA6EB0056B6EB00564FEA520E1C
:104EA0004EEAC37E18EB0E0E56EB530EBDD518EB33
:104EB00002085E417F1C55F10005B6E74FF48015EE
:104EC0004FF000074FF000064FF00008ADE7F0BCD0
:104ED0004FF0000001F1C04101F00041BDE8008148
:104EE00011EA0C1F0CEA131500D00CE013EA0C1F9A
:104EF00000F025804FF00000F0BC81EA030101F0D2
:104F00000041BDE80081F0BCBDE8004181EA030139
:104F100000F0C1B8F0BCBDE8004170B500F06DF81C
:104F2000097EFC3E00F007B881EA03014FF0000063
:104F300001F00041704781EA030100F0ACB8F0BC19
:104F4000BDE800414FF0000021497047FFFDFBF92B
:104F5000F7F5F4F2F0EEEDEBE9E8E6E4E3E1E0DEAC
:104F6000DDDBDAD8D7D5D4D3D1D0CFCDCCCBCAC81E
:104F7000C7C6C5C4C2C1C0BFBEBDBCBBBAB9B8B745
:104F8000B6B5B4B3B2B1B0AFAEADACABAAA9A8A838
:104F9000A7A6A5A4A3A3A2A1A09F9F9E9D9C9C9B06
:104FA0009A999998979796959594939392919190B1
:104FB0008F8F8E8E8D8C8C8B8B8A89898888878742
:104FC0008685858484838382828181800000FF07B7
:104FD0000000F87FB0FA80F310FA03F10AD0C3F1B1
:104FE0001D0303F580634FEA41504FEA035202EB81
:104FF000D12170474FF0000070470EF1020E2EF0E5
:10500000030E5EF8046B364205D4012A43EB030518
:1050100015F5001F12D8012841EB010C1CF5001FEB
:105020000CD80ED14FEAD17C15F5001F0CEB4C0CBF
:105030000CF1020C08BF4CEBD37C04E04FF0080CE1
:1050400001E04FEAD37C0CEB4C0526FA05F606F09E
:105050000706B6F1040C06D20EEB860CBDE87040D4
:105060004CF0010C6047DFE80CF0090B02024FF036
:1050700000414FF00000A1F5002170BD1946104617
:10508000012851EB010418BFD4F5001484BF00209F
:1050900001F0004170BD0808A0F500114FEA310190
:1050A0007047FEF732BD0000000000000000002F36
:1050B000000000000700070000147F147F14002484
:1050C0002A7F2A12006264081323003649552250B1
:1050D00000000503000000001C22410000004122E6
:1050E0001C000014083E08140008083E08080000D0
:1050F00000A06000000808080808000060600000C8
:10510000002010080402003E5149453E0000427F45
:105110004000004261514946002141454B31001891
:1051200014127F10002745454539003C4A49493053
:10513000000171090503003649494936000649490D
:10514000291E000036360000000056360000000818
:1051500014224100001414141414000041221408F5
:1051600000020151090600324959513E007C1211DA
:10517000127C007F49494936003E41414122007F6F
:105180004141221C007F49494941007F0909090129
:10519000003E4149497A007F0808087F0000417FAE
:1051A0004100002040413F01007F08142241007F60
:1051B00040404040007F020C027F007F0408107FC7
:1051C000003E4141413E007F09090906003E415130
:1051D000215E007F091929460046494949310001ED
:1051E000017F0101003F4040403F001F2040201F41
:1051F000003F4038403F0063140814630007087004
:10520000080700615149454300007F4141000055B6
:105210002A552A55000041417F0000040201020482
:10522000004040404040000001020400002054546F
:105230005478007F484444380038444444200038BF
:105240004444487F00385454541800087E09010231
:105250000018A4A4A47C007F080404780000447D06
:105260004000004080847D00007F10284400000042
:10527000417F4000007C04180478007C0804047816
:1052800000384444443800FC242424180018242402
:1052900018FC007C080404080048545454200004FE
:1052A0003F444020003C4040207C001C2040201C0B
:1052B000003C4030403C004428102844001CA0A082
:1052C000A07C004464544C441414141414140000BE
:1052D00000000000000000000000000000000000CE
:1052E00000F8000000000000003330000000001053
:1052F0000C06100C0600000000000000000040C07A
:105300007840C0784000043F04043F04040000706B
:1053100088FC08300000001820FF211E0000F00863
:10532000F000E018000000211C031E211E0000F008
:105330000888700000001E21232419272110101650
:105340000E0000000000000000000000000000004F
:1053500000E01804020000000007182040000002CE
:105360000418E00000000040201807000000404042
:1053700080F0804040000202010F010202000000A4
:1053800000F0000000000101011F01010100000008
:1053900000000000000080B070000000000000006D
:1053A00000000000000000010101010101010000F6
:1053B000000000000000003030000000000000008D
:1053C000000080601804006018060100000000E082
:1053D00010080810E000000F102020100F0000102F
:1053E00010F8000000000020203F20200000007086
:1053F000080808887000003028242221300000307E
:105400000888884830000018202020110E00000075
:10541000C02010F8000000070424243F240000F8F6
:105420000888880808000019212020110E0000E0DB
:10543000108888180000000F112020110E0000387D
:105440000808C83808000000003F00000000007095
:10545000880808887000001C222121221C0000E01E
:1054600010080810E0000000312222110F00000097
:1054700000C0C0000000000000303000000000004C
:1054800000800000000000008060000000000000BC
:105490008040201008000001020408102000404055
:1054A0004040404040000404040404040400000898
:1054B000102040800000002010080402010000704D
:1054C00048080808F0000000003036010000C03035
:1054D000C828E810E0000718272423140B00000058
:1054E000C038E0000000203C23020227382008F8E2
:1054F000888888700000203F202020110E00C030D6
:10550000080808083800071820202010080008F8AC
:1055100008080810E000203F202020100F0008F8A5
:105520008888E8081000203F20202320180008F871
:105530008888E8081000203F200003000000C030E9
:1055400008080838000007182020221E020008F86A
:1055500008000008F808203F210101213F20000831
:1055600008F8080800000020203F2020000000006C
:105570000808F8080800C08080807F00000008F854
:1055800088C028180800203F20012638200008F88D
:10559000080000000000203F20202020300008F8F4
:1055A000F800F8F80800203F003F003F200008F80E
:1055B00030C00008F808203F200007183F00E01026
:1055C00008080810E0000F10202020100F0008F835
:1055D00008080808F000203F210101010000E01048
:1055E00008080810E0000F18242438504F0008F86D
:1055F000888888887000203F2000030C30200070CD
:105600008808080838000038202121221C001808CA
:1056100008F8080818000000203F2000000008F8E3
:1056200008000008F808001F202020201F0008782C
:10563000880000C83808000007380E010000F8088C
:1056400000F80008F800033C0700073C03000818B6
:1056500068808068180820302C03032C302008381C
:10566000C800C83808000000203F200000001008D3
:105670000808C8380800203826212020180000001B
:1056800000FE020202000000007F40404000000CCB
:1056900030C000000000000000010638C000000219
:1056A0000202FE000000004040407F0000000000B9
:1056B00004020202040000000000000000000000DC
:1056C00000000000000080808080808080800002D8
:1056D00002040000000000000000000000000000C4
:1056E0008080808000000019242222223F2008F8B8
:1056F000008080000000003F112020110E000000FB
:10570000008080800000000E112020201100000089
:1057100000808088F800000E112020103F2000003B
:10572000808080800000001F22222222130000803F
:1057300080F0888888180020203F2020000000008A
:10574000808080808000006B94949493600008F8BF
:10575000008080800000203F210000203F2000804A
:105760009898000000000020203F2020000000004A
:1057700000809898000000C08080807F000008F8BA
:10578000000080808000203F24022D30200000088F
:1057900008F8000000000020203F2020000080804A
:1057A000808080808000203F20003F20003F80805C
:1057B000008080800000203F210000203F2000006A
:1057C000808080800000001F202020201F0080801B
:1057D00000808000000080FFA12020110E0000004A
:1057E000008080808000000E112020A0FF8080803B
:1057F00080008080800020203F21200001000000E8
:1058000080808080800000332424242419000080BC
:1058100080E0808000000000001F202000008080C9
:10582000000000808000001F202020103F2080808A
:1058300080000080808000010E300806010080801A
:105840000080008080800F300C030C300F0000803F
:105850008000808080000020312E0E31200080806A
:1058600080000080808080818E701806010000809A
:105870008080808080000021302C222130000000B8
:105880000000807C020200000000003F4040000059
:105890000000FF00000000000000FF000000000208
:1058A000027C800000000040403F00000000000635
:1058B00001010202040400000000000000000400D6
:1058C00000080000000000000002000100001000BD
:1058D000000000000000000030313233343536372C
:1058E0003839414243444546403058003031323324
:1058F0003435363738396162636465664030780024
:1059000002400000000000A0000000000540000070
:10591000000000C8000000000C4000000000409C97
:1059200000000000194000000020BCBE0000000084
:1059300034400000BFC91B8E00000004B5400000C9
:10594000504BCFD06607E2CF010000006C41000051
:105950003E8251AADFEEA73401000000D9420000C8
:10596000DCB5A0E23A301F97FFFFFFFFB44500000F
:10597000FD25A0C8E9A3C14FFFFFFFFFFF3F0000C7
:105980000000008000000000FF3F000000000080D9
:105990000000000041542B434D47533D223030332B
:1059A00031303033333030333730303333303033DD
:1059B00037303033353030333630303331303033C8
:1059C0003230303331303033342200003537314615
:1059D0003538453437463341364333344646303123
:1059E0000000000037413741364331343545373206
:1059F0003731453546463031000000003531343905
:105A000037454246353932413636393746463031E8
:105A100000000000333031303645323939394138F1
:105A20003633443039313932333031313630413820
:105A30003736383438323832373042393635373005
:105A400036333645354235383537323835463032DB
:105A500035453338464630433546303235453338A0
:105A60003533394635364530464631410000000071
:105A7000BC5B000800000020600000006C01000812
:105A80001C5C0008600000209807000088010008E6
:105A90001C00000043000000F8FFFFFF0C000000A6
:105AA0000E0000000F0000002E000000100100009A
:105AB00043000000F8FFFFFF0040404040404040EE
:105AC00040404141414141404040404040404040D1
:105AD0004040404040404040400502020202020275
