:020000040800F2
:10000000D006002079020008792900087B29000821
:100010007F290008832900088729000800000000C4
:100020000000000000000000000000008B29000814
:100030008D290008000000008F2900089129000880
:10004000930200089302000893020008930200083C
:10005000930200089302000893020008930200082C
:10006000930200089302000893020008930200081C
:10007000930200089302000893020008930200080C
:1000800093020008930200089302000893020008FC
:1000900093020008930200089302000893020008EC
:1000A00093020008930200089302000893020008DC
:1000B00093020008BB320008930200089302000874
:1000C00093020008930200089302000893020008BC
:1000D00093020008AD2B0008930200089302000869
:1000E000930200089302000893020008930200089C
:1000F000930200089302000893020008930200088C
:10010000930200089302000893020008930200087B
:10011000930200089302000893020008930200086B
:10012000930200089302000893020008930200085B
:1001300000F002F800F090F80AA090E8000C824469
:100140008344AAF10107DA4501D100F085F8AFF246
:10015000090EBAE80F0013F0010F18BFFB1A43F0A5
:1001600001031847A0720000C0720000103A24BFBB
:1001700078C878C1FAD8520724BF30C830C144BF0C
:1001800004680C607047000000230024002500264E
:10019000103A28BF78C1FBD8520728BF30C148BFEA
:1001A0000B6070476E2903F07E86702903F0F78498
:1001B000662906F0B683652906F0B383672906F041
:1001C000B0836129AFF3008003681B0A28BF41F0A8
:1001D0008001692903F06884642903F06584752926
:1001E00003F062846F2904F05C81782903F0C384F2
:1001F000E92904F0F780E42904F0F480F52904F0FB
:10020000F180EF2904F05981F82903F0C2840368D2
:10021000DB0928BF41F08001632904F03182732992
:1002200004F03682E32904F04182F32904F0468287
:10023000002070471FB504F08FF904000020002152
:1002400005F020FD401C60600020002105F004FD49
:10025000E0601FBD10B510BD04F016FB1146FFF79E
:10026000E9FF02F043FA04F042FB03B4FFF7F2FFA8
:1002700003BC02F005FC000009488047094800471C
:10028000FEE7FEE7FEE7FEE7FEE7FEE7FEE7FEE746
:10029000FEE7FEE704480549054A064B70470000A3
:1002A0009703000831010008D0000020D00600208C
:1002B000D0020020D00200200CB500200190009058
:1002C0006C48006840F480306A49086000BF6948A3
:1002D000006800F4003000900198401C01900098E4
:1002E00018B90198B0F5A06FF1D16248006800F428
:1002F000003010B10120009001E000200090009833
:10030000012843D15C48006840F010005A49086059
:100310000846006820F0030008600846006840F0C6
:1003200002000860534840685249486008464068E7
:1003300048600846406840F480604860084640686D
:1003400020F47C1048600846406840F4E81048609B
:100350000846006840F08070086000BF45480068AB
:1003600000F000700028F9D04248406820F00300F7
:10037000404948600846406840F00200486000BFBD
:100380003C48406800F00C000828F9D10CBD10B5BD
:10039000FFF792FF10BD10B53648006840F001002D
:1003A000344908600846406834490840314948608B
:1003B00008460068324908402E490860084600682F
:1003C00020F4802008600846406820F4FE00486061
:1003D0004FF41F008860FFF7DAFF4FF000602949F3
:1003E000086010BD10B5002100200022214B5B6881
:1003F00003F00C0121B1042906D0082928D107E017
:10040000214B224C236027E01F4B204C236023E02C
:10041000184B5B6803F47010164B5B6803F4803272
:10042000022303EB904022B9194B4343174C23603E
:100430000DE0104B5B6803F4003323B1144B4343CE
:10044000124C236003E0104B4343104C236003E045
:100450000D4B0E4C236000BF00BF064B5B68C3F31F
:1004600003130C4CE15C094B1B68CB40074C236029
:1004700010BD000000100240002002400000FFF804
:10048000FFFFF6FE08ED00E000127A0000000020F9
:1004900000093D000400002031490143314A116048
:1004A000704770B5002100230F22C47804B32D4C8F
:1004B000246804F4E064C4F5E064210AC1F1040393
:1004C000CA40447804FA03F18478144021430901B6
:1004D000254C0678A155047804F01F050124AC4092
:1004E00005786D11AD0005F1E025C5F8004109E082
:1004F000047804F01F050124AC401C4D06787611E9
:1005000045F8264070BD1A4A0A400243154B1B1F8E
:100510001A60704739B1134A121D12680243114B19
:100520001B1D1A6006E00F4A121D126882430D4B14
:100530001B1D1A607047042808D14FF0E02109699B
:1005400041F004014FF0E022116107E04FF0E0219B
:10055000096921F004014FF0E022116170470000A9
:100560000000FA050CED00E000E400E080E100E0AE
:1005700080FFFF1F10B50446FA48844208D10121CC
:10058000401500F057FF0021601500F053FF17E001
:10059000F548844208D10121001500F04BFF0021ED
:1005A000201500F047FF0BE0F048844208D10121FC
:1005B000C80300F03FFF00214FF4004000F03AFF75
:1005C00010BD30B50246002000235068E84C2040A2
:1005D0000D790C6844EA0524204350609068E54C8E
:1005E0002040D1E902542C434D7944EA450420438C
:1005F0009060D06A20F470000C7C641EE4B2234347
:1006000040EA0350D06230BD0021016001714171A8
:100610008160C16001210174704721B1826842F09C
:100620000102826003E0826822F00102826070476A
:1006300021B1826842F48072826003E0826822F411
:1006400080728260704710B50023CBB21AB1446843
:100650001C43446002E044689C43446010BD8168D0
:1006600041F0080181607047014600208A6802F06D
:1006700008020AB1012000E000207047816841F0C3
:10068000040181607047014600208A6802F004027C
:100690000AB1012000E00020704721B1826842F4D5
:1006A000A002826003E0826822F4A00282607047A8
:1006B000014600208A6802F480020AB1012000E0AD
:1006C0000020704710B50A4600210023416821F43C
:1006D0006041531E41EA4331416010BD21B142687F
:1006E00042F40062426003E0426822F40062426029
:1006F0007047F0B504460D4600200021092D11DD9C
:10070000E068A5F10A0606EB4607072606FA07F198
:100710008843A5F10A0606EB460603FA06F10843EC
:10072000E0600CE0206905EB4507072606FA07F1B3
:10073000884305EB450603FA06F108432061072AC2
:100740000FDA606B561E06EB86071F2606FA07F1C6
:100750008843561E06EB860605FA06F108436063D9
:1007600022E00D2A0FDA206BD61F06EB86071F2624
:1007700006FA07F18843D61F06EB860605FA06F14E
:100780000843206310E0E06AA2F10D0606EB86073D
:100790001F2606FA07F18843A2F10D0606EB86062E
:1007A00005FA06F10843E062F0BD21B1826842F427
:1007B0008012826003E0826822F4801282607047B7
:1007C0000146C86C80B2704766484C30006870477C
:1007D00021B1426842F48062426003E0426822F440
:1007E00080624260704721B1426842F480524260A8
:1007F00003E0426822F48052426070470A460021BA
:10080000816821F4E04111438160704721B1826821
:1008100042F40042826003E0826822F40042826077
:10082000704721B1826842F40212826003E082685C
:1008300022F4021282607047014600208A6802F4A6
:1008400000120AB1012000E000207047F0B5044614
:100850001546002000220026092911DDE068A1F1DB
:100860000A0707EB470C072707FA0CF29043A1F1A0
:100870000A0707EB470703FA07F21043E0600CE0B2
:10088000206901EB410C072707FA0CF2904301EBBA
:10089000410703FA07F210432061A06BC0F3015631
:1008A000EF1C06F1010CA7EB0C0707EB870C1F27C9
:1008B00007FA0CF29043EF1C06F1010CA7EB0C07B2
:1008C00007EB870701FA07F21043A063F0BD10B5EC
:1008D0000A4600210023816B21F44011531E41EA96
:1008E0000351816310BD08B5002300930090009B65
:1008F0000B440093009B1A6008BD08B50246002017
:100900000090009201F12800009B1844009000988C
:10091000006880B208BD0A4600214168164B1940A4
:100920001143416070474162826270470A4600216C
:10093000416821F01F0111434160704740B10949EE
:100940000831096841F40001064A0832116007E0E5
:1009500004490831096821F40001024A0832116093
:10096000704700000024014000280140003C014085
:10097000FFFEF0FFFDF7F1FFFFFD3FFF0246002005
:1009800013680B400BB1012000E000207047CA4300
:100990000260704770B502460020002300240B124D
:1009A0005568CEB205EA060415681D4015B10CB1B4
:1009B000012000E0002070BD00220A12D343036032
:1009C0007047000010B50446CC48844208D101218C
:1009D000042000F02FFD0021042000F02BFD46E054
:1009E000C748844208D10121082000F023FD0021DE
:1009F000082000F01FFD3AE0C248844208D10121DE
:100A0000102000F017FD0021102000F013FD2EE053
:100A1000BD48844208D10121202000F00BFD0021B7
:100A2000202000F007FD22E0B848844208D10121CF
:100A3000402000F0FFFC0021402000F0FBFC16E00D
:100A4000B348844208D10121802000F0F3FC00214A
:100A5000802000F0EFFC0AE0AE48844207D101217B
:100A6000801500F0E7FC0021A01500F0E3FC10BDAC
:100A700010B50121084600F0DDFC0021012000F046
:100A8000D9FC10BD2DE9F0410246002500260020CA
:100A900000230024002791F803C00CF00F0591F803
:100AA00003C00CF0100CBCF1000F03D091F802C091
:100AB0004CEA050591F800C0BCF1000F31D0146874
:100AC00000202BE04FF0010C0CFA00F3B1F800C04D
:100AD0000CEA03069E4220D183004FF00F0C0CFA63
:100AE00003F7BC4305FA03FC4CEA040491F803C085
:100AF000BCF1280F06D14FF0010C0CFA00FCC2F833
:100B000014C00AE091F803C0BCF1480F05D14FF0C2
:100B1000010C0CFA00FCC2F810C0401C0828D1D30C
:100B20001460B1F800C0BCF1FF0F34DD5468002040
:100B30002EE000F1080C4FF0010808FA0CF3B1F8B0
:100B400000C00CEA03069E4221D183004FF00F0C37
:100B50000CFA03F7BC4305FA03FC4CEA040491F8D1
:100B600003C0BCF1280F05D100F1080C08FA0CF8FD
:100B7000C2F8148091F803C0BCF1480F07D100F10E
:100B8000080C4FF0010808FA0CF8C2F81080401C5D
:100B90000828CED35460BDE8F0814FF6FF71018084
:100BA000022181700421C1707047024600209368C1
:100BB0000B400BB1012000E000207047014688681F
:100BC00080B2704702460020D3680B400BB1012071
:100BD00000E0002070470146C86880B2704701619C
:100BE0007047416170470AB1016100E0416170479F
:100BF000C16070474FF480320A4382618161826133
:100C000082698269704702460020434B18684FF69C
:100C10008073184040EA021008433F4B1860704749
:100C20003E49C8617047F0B50A4600230024002100
:100C3000002500F00046B6F1004F02D1364EF169B2
:100C400001E0354E7168C0F3034583B200F44016ED
:100C5000B6F5401F08D121F070612F4E766826F05E
:100C600070662D4F7E6012E000F48016B6F5801F8E
:100C700006D1032606FA05F4A14341F0706106E0AF
:100C8000460D360103FA06F6B14341F0706122B118
:100C9000460D360103FA06F6314300F00046B6F180
:100CA000004F02D11C4EF16101E01B4E7160F0BD9E
:100CB00030B500228B071C0F0F2303FA04F2164BEA
:100CC00008338C1053F824309343134C08348D10A0
:100CD00044F8253023468C1053F824308C07240F19
:100CE00000FA04F423430C4C08348D1044F82530EA
:100CF00030BD0A49DC31086070470000000801403F
:100D0000000C014000100140001401400018014097
:100D1000001C014000200140000001400000204272
:100D200010B50446F748844209D10121480500F076
:100D30008EFB00214FF4001000F089FB08E0012138
:100D4000880500F084FB00214FF4800000F07FFB59
:100D500010BD2DE9F04385B004460D460026B1468E
:100D60000427DFF8A483A6884FF6C07006406846C3
:100D700000F0D9FADDF80880E448B8FBF0F01FFA7B
:100D800080F946EA0906A68020884FF6FE710840E1
:100D900020800026DE49286888420CD82868400058
:100DA000B8FBF0F087B2042F00DA04273E4309F1C4
:100DB0000100208427E0E8884BF6FF71884206D1C5
:100DC000286800EB4000B8FBF0F087B209E0286823
:100DD00000EBC00101EB0010B8FBF0F087B247F464
:100DE0008047C7F30B0008B947F0010747F40040FC
:100DF00006434FF4967009FB00F04FF47A7190FBB4
:100E0000F1F0401C2084A683208840F0010020805F
:100E100026884FF6F5300640A888698908430643BE
:100E20002680A88929890843208105B0BDE8F08380
:100E300041F288310160002181804BF6FF71C18051
:100E40000021018141814FF480418181704721B1AE
:100E5000028842F00102028004E002884FF6FE732D
:100E60001A400280704721B1828842F40062828079
:100E700004E082884FF2FF731A408280704721B1EC
:100E8000828842F48052828004E082884EF6FF73AA
:100E90001A408280704721B1028842F48072028039
:100EA00004E002884FF6FF631A400280704721B1C8
:100EB000028842F40072028004E002884FF6FF5379
:100EC0001A400280704721B1028842F48062028099
:100ED00004E002884FF6FF331A40028070470A464A
:100EE000002181894FF60173194002F0FE03194376
:100EF0008181704721B1828942F00102828104E040
:100F000082894FF6FE731A408281704721B10288B0
:100F100042F04002028004E002884FF6BF731A409C
:100F2000028070471AB183880B43838002E0838874
:100F30008B4383807047018270470146088AC0B2A4
:100F4000704712B141F0010102E04FF6FE73194003
:100F50000182704708B50246002000900092009878
:100F6000084400900098008808BD21B1028842F42E
:100F70000042028003E00288C2F30E020280704742
:100F8000B1F5006F04D1028842F40062028004E0EF
:100F900002884FF2FF731A4002807047B1F5005F7C
:100FA00004D1028842F40052028004E002884DF627
:100FB000FF731A400280704721B1028842F48052C8
:100FC000028004E002884EF6FF731A4002807047E8
:100FD000B1F5006F04D1028842F40062028004E09F
:100FE00002884FF2FF731A400280704721B10288D5
:100FF00042F02002028004E002884FF6DF731A40BC
:10100000028070470146088B0012704721B10288A8
:1010100042F01002028004E002884FF6EF731A409B
:101020000280704721B9028842F08002028004E009
:1010300002884FF67F731A4002807047B1F5804FE7
:1010400005D0828B4BF6FF731A40828303E0828BBC
:1010500042F480428283704770B502460024002526
:1010600000230020958A138B1B0445EA030626F013
:101070007F4404EA01068E4201D1012000E00020F5
:1010800070BD10B501460020002300228B8A0A8B18
:10109000120443EA020424F07F4010BD0CB502465E
:1010A000002000230193009300920B0F019321F085
:1010B0007F41019B1BB1009B1433009303E0090C9B
:1010C000009B18330093009B1B680B400BB1012061
:1010D00000E000200CBD002221F07F42D343838238
:1010E000704730B5024600200023948801F0E06587
:1010F00004EA154321F07F41948A0C4054B14BB16E
:10110000012008E00054004000127A0040420F0025
:10111000A0860100002030BD002221F07F42D34391
:1011200083827047DF48006840F00100DD490860B5
:1011300008464068DC490840DA49486008460068CB
:10114000DA490840D74908600846006820F4802042
:1011500008600846406820F4FE0048604FF41F0015
:1011600088607047CF49096821F48031CD4A116009
:101170001146096821F480211160B0F5803F03D049
:10118000B0F5802F0ED106E0C649096841F48031E0
:10119000C44A116007E0C349096841F4A021C14A6B
:1011A000116000E000BF00BF704710B5014600228B
:1011B000002300204A11012A02D1BA4C236806E01C
:1011C000022A02D1B74C236A01E0B64C636A01F0EF
:1011D0001F02012494401C400CB1012000E00020BB
:1011E00010BD38B5002000900024002500BF31203C
:1011F000FFF7DBFF05460098401C00900098B0F513
:10120000A06F01D0002DF2D03120FFF7CEFF08B142
:10121000012400E00024204638BD01460020A14AF8
:10122000106820F0F80040EAC10010607047A04943
:1012300008607047024600209A4B586820F47C10E2
:1012400042EA01031843974B586070479849086673
:10125000704701460020934A506820F0030008437D
:10126000506070478F48406800F00C00704701469E
:1012700000208C4A506820F0F0000843506070470E
:1012800001460020874A506820F4E060084350601F
:10129000704701460020834A506820F4605040EABD
:1012A000C1005060704729B17E4A527A02437D4B9B
:1012B0005A7204E07B4A527A82437A4B5A727047E0
:1012C0007B49D8310860704701460020754A506854
:1012D00020F440400843506070470021714A20329A
:1012E0001170704A82F82010012802D004280AD117
:1012F00004E001216B4A2032117005E00521694AA2
:101300002032117000E000BF00BF704769490860DB
:1013100070476449096A0143624A1162704765492E
:1013200044390860704730B50021002200240023B2
:101330005C4D6D6805F00C0121B1042905D0082928
:1013400023D105E05C4D056022E05B4D05601FE0A8
:10135000544D6D6805F47012524D6D6805F480347B
:10136000022505EB92421CB9544D554305600BE034
:101370004C4D6D6805F400351DB1504D5543056069
:1013800002E04D4D5543056002E04B4D056000BF46
:1013900000BF444D6D6805F0F0010909484D6B5CD4
:1013A0000568DD4045603F4D6D6805F4E061090A60
:1013B000434D6B5C4568DD4085603A4D6D6805F4D2
:1013C0006051C90A3E4D6B5C4568DD40C560354DD6
:1013D0006D6805F44041890B3A4D6B5CC568B5FBFF
:1013E000F3F5056130BD29B12E4A526902432D4BF8
:1013F0005A6104E02B4A526982432A4B5A61704772
:1014000029B1284A92690243264B9A6104E0254A91
:1014100092698243234B9A61704729B1214AD2696C
:101420000243204BDA6104E01E4AD26982431D4B1D
:10143000DA61704729B11B4AD2680243194BDA605E
:1014400004E0184AD2688243164BDA60704729B12B
:10145000144A12690243134B1A6104E0114A1269DB
:101460008243104B1A617047124940390860704737
:101470000F49C86470470B49C87170470948406AF2
:1014800040F0807007494862704701460020054AD5
:1014900092680A400AB1012000E00020704701492B
:1014A00088727047001002400000FFF8FFFFF6FE50
:1014B000000042428004424200127A0000093D00CE
:1014C000140000202400002010B50446FE48844289
:1014D00008D10121C014FFF7ADFF0021E014FFF790
:1014E000A9FFC4E0B4F1804F08D101210846FFF7FD
:1014F000AEFF00210120FFF7AAFFB8E0F3488442C5
:1015000008D101210220FFF7A2FF00210220FFF7EE
:101510009EFFACE0EE48844208D101210420FFF791
:1015200096FF00210420FFF792FFA0E0E9488442E3
:1015300008D101210820FFF78AFF00210820FFF7CA
:1015400086FF94E0E448844208D101211020FFF78F
:101550007EFF00211020FFF77AFF88E0DF488442F9
:1015600008D101212020FFF772FF00212020FFF782
:101570006EFF7CE0DA48844208D101214014FFF775
:1015800059FF00216014FFF755FF70E0D5488442F1
:1015900009D10121C804FFF74DFF00214FF40020BD
:1015A000FFF748FF63E0D048844209D101210805D4
:1015B000FFF740FF00214FF48010FFF73BFF56E09C
:1015C000CA48844209D101214805FFF733FF0021B1
:1015D0004FF40010FFF72EFF49E0C548844208D1C0
:1015E00001214020FFF733FF00214020FFF72FFFAC
:1015F0003DE0C048844208D101218020FFF727FF49
:1016000000218020FFF723FF31E0BB48844208D14E
:1016100001218015FFF71BFF0021A015FFF717FF21
:1016200025E0B648844209D101210804FFF702FFF2
:1016300000214FF48030FFF7FDFE18E0B0488442EF
:1016400009D101214804FFF7F5FE00214FF40030D5
:10165000FFF7F0FE0BE0AB48844208D1012188047B
:10166000FFF7E8FE00214FF48020FFF7E3FE10BDF6
:1016700000220288944B98420ED0994B98420BD08E
:10168000B0F1804F08D0914B984205D0904B9842D2
:1016900002D0904B984204D14FF68F731A404B887A
:1016A0001A438D4B984207D08C4B984204D04FF68A
:1016B000FF431A40CB881A4302808B8883850B88AE
:1016C0000385814B98420BD0854B984208D08B4BB9
:1016D000984205D08A4B984202D08A4B984201D159
:1016E0000B7A038601238382704770B500240022A1
:1016F0000023058C4FF6FE7635400584028C8388E6
:10170000048B4FF68F752C40B51E2C400D882C4352
:10171000751E2A400D892A434D882A436A4DA842E6
:101720000BD06F4DA84208D0744DA84205D0744D1F
:10173000A84202D0734DA84213D14FF6F7752A4044
:101740004D892A434FF6FB752A408D882A434FF670
:10175000FF652B404FF6FF552B408D892B43CD89DC
:101760002B4383800483CD888586028470BD70B549
:10177000002400220023058C4FF6EF7635400584C7
:10178000028C8388048B48F6FF752C404FF6FF458A
:101790002C400D884FF6FF7606EA05252C434FF6C0
:1017A000DF752A400D8906EA05152A434D8806EAA9
:1017B00005152A43444DA84202D0494DA8421DD1E7
:1017C0004FF67F752A404D894FF6FF7606EA0515DC
:1017D0002A434FF6BF752A408D8806EA05152A432D
:1017E0004FF6FF352B404FF2FF752B408D8906EAEF
:1017F00085052B43CD8906EA85052B438380048329
:10180000CD880587028470BD70B5002400220023B6
:10181000058C4FF6FF6635400584028C8388848BE7
:101820004FF68F752C404FF6FC752C400D882C43DD
:101830004FF6FF552A400D894FF6FF7606EA05253B
:101840002A434D8806EA05252A431F4DA84202D0A7
:10185000234DA8421DD14FF2FF752A404D894FF606
:10186000FF7606EA05252A434FF6FF352A408D8884
:1018700006EA05252A434EF6FF752B404DF6FF7507
:101880002B408D8906EA05152B43CD8906EA0515FF
:101890002B4383808483CD888587028470BD70B597
:1018A000002200230024058C4EF6FF763540058487
:1018B000038C8488828B48F6FF752A404FF6FF45DB
:1018C0002A400D8820E00000002C01400004004068
:1018D00000080040000C00400010004000140040D0
:1018E00000340140004C01400050014000540140D0
:1018F00000180040001C0040002000400040014053
:1019000000440140004801404FF6FF7606EA0525F5
:101910002A434DF6FF752B400D8906EA05352B430A
:101920004D8806EA05352B43FA4DA84202D0FA4D00
:10193000A84208D14BF6FF752C408D894FF6FF76F3
:1019400006EA85152C4384808283CD88A0F8405018
:10195000038470BD828B4FF2FF331A408283828BE7
:101960004FF6FF7303EA01231A4382837047F0B5F1
:101970000C461546002200210026078C4EF6FF7CFF
:1019800007EA0C070784828B018C4FF6FF7707EA82
:10199000043640F6FF473A404FF6FF7707EA05273F
:1019A0003A434FF6FF7707EA03373A43D94FB84235
:1019B0000ED0D94FB8420BD0B0F1804F08D0D74FDE
:1019C000B84205D0D64FB84202D0D64FB84206D161
:1019D0004DF6FF77394046F48057394305E047F626
:1019E000FF57394044F48057394382830184F0BD66
:1019F000828B4FF6F3731A408283828B0A43828371
:101A00007047F0B50C461546002200210026078CD1
:101A10004FF6FF6C07EA0C070784828B018C4FF6A8
:101A2000FF7707EA04264FF60C773A404FF6FF7728
:101A300007EA03172F433A43B64FB8420ED0B64FCA
:101A4000B8420BD0B0F1804F08D0B44FB84205D0A7
:101A5000B34FB84202D0B34FB84206D14FF6FF574A
:101A6000394046F48077394305E04FF2FF5739405B
:101A700044F48077394382830184F0BD028B4FF2B6
:101A8000FF331A400283028B4FF6FF7303EA0123F0
:101A90001A4302837047F0B50C4615460022002118
:101AA0000026078C4FF6EF7C07EA0C070784028BB1
:101AB000018C4FF6FF7707EA041640F6FF473A40DD
:101AC0004FF6FF7707EA03373A434FF6FF7707EA07
:101AD00005273A438F4FB8420ED08F4FB8420BD0F4
:101AE000B0F1804F08D08D4FB84205D08C4FB8422E
:101AF00002D08C4FB84206D14FF6DF77394046F01E
:101B00001007394305E04FF65F77394044F010077E
:101B1000394302830184F0BD028B4FF6F3731A4000
:101B20000283028B0A4302837047F0B50C461546C8
:101B300000220021068C4FF6FE773E400684028B81
:101B4000018C4FF60C7632407E1C06EA03162E43BB
:101B50003243704EB0420ED06F4EB0420BD0B0F157
:101B6000804F08D06D4EB04205D06D4EB04202D0CD
:101B70006C4EB04206D14FF6FD76314044F001067E
:101B8000314305E04FF6F576314044F0010631432C
:101B900002830184F0BD70B505460C465D48854260
:101BA0000ED05D4885420BD0B5F1804F08D05B4820
:101BB000854205D05A48854202D05A48854200D114
:101BC00000E000BF208850B92389A2886188284698
:101BD000FFF7ABFFE1882846FFF79EFF25E020884E
:101BE00004280AD12389A28861882846FFF753FF79
:101BF000E1882846FFF742FF17E0208808280AD12D
:101C00002389A28861882846FFF7FBFEE1882846E1
:101C1000FFF7EEFE09E02389A28861882846FFF7D6
:101C2000A6FEE1882846FFF795FE70BD2DE9F0413C
:101C300005460C4600260127608808B9022600E008
:101C40000026A088012801D1022700E00127208872
:101C5000A0B92389A28861882846FFF766FFE1883A
:101C60002846FFF759FF23893A4631462846FFF7B1
:101C700012FFE1882846FFF701FF13E02389A288BD
:101C800061882846FFF707FFE1882846FFF7F6FE40
:101C900023893A4631462846FFF747FFE188284620
:101CA000FFF73AFFBDE8F0810A884B881A438B881A
:101CB0001A43CB881A430B891A434B891A438B89E1
:101CC0001A43A0F8442070474FF6FF71818000212D
:101CD0000180C180418001727047002101804180F4
:101CE0008180C180018141818181C1817047002152
:101CF00001804180012181800021C18001817047E4
:101D00000021018041808180C180018141818181E8
:101D100070470000002C01400034014000040040E6
:101D200000080040000C004021B1028842F001028E
:101D3000028004E002884FF6FE731A40028070476A
:101D400031B1B0F8442042F40042A0F8442005E04C
:101D5000B0F84420C2F30E02A0F8442070471AB134
:101D600083890B43838102E083898B43838170479E
:101D70008182704741EA0203A0F8483070471AB1E7
:101D800083890B43838102E083898B43838170477E
:101D900001894FF6F8721140018170470A4600210F
:101DA00001894FF68F73194011430181704730B597
:101DB00004460D4629462046FFF7F0FF208940F0F3
:101DC0000700208130BD2DE9F04104460D4616463E
:101DD0001F46602D06D13B46012231462046FFF7C3
:101DE0005AFE05E03B46012231462046FFF79DFEA4
:101DF00029462046FFF7D2FF208940F007002081C6
:101E0000BDE8F08130B50C4600210189C9B24FF61A
:101E1000FF7505EA0325154325432943018130BD9C
:101E20002DE9F04105460E461746984600244346E4
:101E30003A4631462846FFF7E5FF2C894FF6F87001
:101E4000044044F007044FF68F70044044F07004DF
:101E50002C81BDE8F081F0B504460D4616461F46BC
:101E60003B46324629462046FFF7CCFF208940F406
:101E700080402081F0BD0185828270470A460021A2
:101E800001884FF68F731940114301807047F0B5F8
:101E90000C4615461E460021002200230189028BB4
:101EA000038C4FF6F877394021434FF6FC473A4010
:101EB00040F201173A434FF6DD773B404FF6FF778C
:101EC00007EA06172F433B43018102830384F0BDD9
:101ED0000A460021018B4FF68F731940114301838D
:101EE00070470A460021018B48F6FF7319404FF6F0
:101EF000FF7303EA02231943018370470A46002156
:101F0000818B4FF68F7319401143818370470A46C6
:101F10000021818B48F6FF7319404FF6FF7303EAE7
:101F2000022319438183704721B1028842F0800265
:101F3000028004E002884FF67F731A4002807047E7
:101F400021B1828842F00402828004E082884FF648
:101F5000FB731A408280704721B1828842F00802E8
:101F6000828004E082884FF6F7731A4082807047BF
:101F700021B1828842F00102828004E082884FF61B
:101F8000FE731A40828070470A460021018B4FF68B
:101F9000F77319401143018370470A460021018BF2
:101FA0004FF2FF7319404FF6FF7303EA0223194300
:101FB000018370470A460021818B4FF6F773194061
:101FC0001143818370470A460021818B4FF2FF73D2
:101FD00019404FF6FF7303EA0223194381837047C8
:101FE0000A460021018B4FF6FB7319401143018310
:101FF00070470A460021018B4FF6FF3319404FF618
:10200000FF7303EA02231943018370470A46002144
:10201000818B4FF6FB7319401143818370470A4649
:102020000021818B4FF6FF3319404FF6FF7303EA0F
:1020300002231943818370470A460021018B4FF622
:102040007F7319401143018370470A460021018BB9
:10205000C1F30E014FF6FF7303EA02231943018314
:1020600070470A460021818B4FF67F731940114358
:10207000818370470A460021818BC1F30E014FF620
:10208000FF7303EA02231943818370470A46002144
:10209000018C4FF6FD7319401143018470470A46C5
:1020A0000021018C4FF6F7731940114301847047EA
:1020B0000A460021018C4FF6DF7319404FF6FF737B
:1020C00003EA02131943018470470A460021018C78
:1020D0004FF67F7319404FF6FF7303EA021319435B
:1020E000018470470A460021018C4FF6FF531940C6
:1020F0004FF6FF7303EA02231943018470470A462F
:102100000021018C4FF2FF7319404FF6FF7303EA71
:1021100002231943018470470A460021018C4DF6C1
:10212000FF7319404FF6FF7303EA0233194301842A
:10213000704730B5002301248C40A3B2048C9C432B
:102140000484048C02FA01F5ADB22C43048430BD42
:1021500030B5002304248C40A3B2048C9C43048437
:10216000048C02FA01F5ADB22C43048430BD70B585
:102170000346002000241846183001258D40ACB2DB
:102180001D8CA5431D8409B1082909D100EB61000C
:10219000056825F0700505600568154305600EE0CB
:1021A0000D1FC5F34E052844056825F4E04505607C
:1021B00005684FF6FF7606EA02263543056070BDD6
:1021C00021B1028842F00202028004E002884FF648
:1021D000FD731A400280704721B1028842F0040268
:1021E000028004E002884FF6FB731A4002807047B9
:1021F00021B1828842F08002828004E082884FF61A
:102200007F731A408280704702884FF6F7731A4036
:10221000028002880A430280704782884FF68F73DB
:102220001A40828082880A438280704702894FF672
:10223000F8731A40028102890A43028170470289B9
:102240004FF67F731A40028102890A430281704768
:102250008184704781857047818670470187704708
:1022600081877047A0F84010704702884FF6FF43FF
:102270001A40028002880A43028070470146888E15
:1022800070470146088F70470146888F70470146A6
:10229000B1F8400070470146888C70470146088DB0
:1022A000704702460020138A0B400BB1012000E06A
:1022B00000207047CA430282704730B502460020B2
:1022C00000230024158A05EA0103958905EA010423
:1022D00013B10CB1012000E0002030BDCA430282DE
:1022E0007047000010B50446FB48844209D1012123
:1022F0008803FFF79FF800214FF48040FFF79AF81A
:1023000032E0F648844209D101214804FFF79FF8E2
:1023100000214FF40030FFF79AF825E0F04884429E
:1023200009D101218804FFF792F800214FF48020A1
:10233000FFF78DF818E0EB48844209D10121C80469
:10234000FFF785F800214FF40020FFF780F80BE03D
:10235000E548844208D101210805FFF778F80021FB
:102360004FF48010FFF773F810BD2DE9F04786B0E9
:1023700005460E460024A24600BFA1460027B089AC
:1023800000B100BF2F462C8A4CF6FF700440F08845
:1023900004432C82AC894EF6F3100440B088318996
:1023A0000843718908430443AC81AC8A4FF6FF406F
:1023B0000440B0890443AC8201A8FEF7B4FFC648CC
:1023C000874202D1DDF810A001E0DDF80CA0A88959
:1023D00000F4004040B10AEBCA0000EB0A1031687B
:1023E0004900B0FBF1F807E00AEBCA0000EB0A1065
:1023F00031688900B0FBF1F86420B8FBF0F004010B
:102400002009642101FB1089A88900F4004040B133
:10241000322000EBC900B0FBF1F000F007000443EC
:1024200008E0322000EB09106421B0FBF1F000F06D
:102430000F0004432C8106B0BDE8F0874FF416511D
:10244000016000218180C18001810C214181002136
:102450008181704710B502460020108A4FF2FF03B9
:1024600018400B884C8823438C882343CC88234313
:102470001843108210BD0021018041808180C180FD
:10248000704721B1828942F40052828104E082893E
:102490004DF6FF731A4082817047F0B50346002461
:1024A00000260025002040F66A17B94200D100BF7F
:1024B0001846C1F3421401F01F06012707FA06F57A
:1024C000012C01D10C3004E0022C01D1103000E0CD
:1024D00014301AB107682F43076002E00768AF4362
:1024E0000760F0BD1AB1838A0B43838202E0838ABE
:1024F0008B4383827047028A4FF6F0731A40028240
:10250000028A0A430282704782894FF2FF731A409F
:10251000828182890A438281704721B1828942F097
:102520000202828104E082894FF6FD731A408281A3
:102530007047028A4FF6DF731A400282028A0A430A
:102540000282704721B1028A42F48042028204E092
:10255000028A4BF6FF731A4002827047C1F30802E9
:102560008280704701468888C0F3080070478189DF
:1025700041F0010181817047028BD2B20283028B4C
:1025800042EA012202837047028B02F47F420283F7
:10259000028B0A430283704721B1828A42F02002F3
:1025A000828204E0828A4FF6DF731A40828270478B
:1025B00021B1828A42F01002828204E0828A4FF6C0
:1025C000EF731A408282704721B1828A42F008027A
:1025D000828204E0828A4FF6F7731A408282704743
:1025E00021B1828942F40042828103E08289C2F3F0
:1025F0000E028281704721B1828A42F40062828297
:1026000004E0828A4FF2FF731A4082827047828A06
:102610004FF6FB731A408282828A0A438282704795
:1026200021B1828A42F00202828204E0828A4FF65D
:10263000FD731A408282704702460020B1F5007F88
:1026400000D100BF13880B400BB1012000E0002037
:10265000704701F40072B2F5007F00D100BFCA4399
:102660000280704770B50246002400230025002038
:1026700040F66A16B14200D100BFC1F3421501F025
:102680001F03012606FA03F3012D02D19689334078
:1026900006E0022D02D1168A334001E0968A3340CB
:1026A0000C12012606FA04F41688344013B10CB15A
:1026B000012000E0002070BD10B50022002340F68C
:1026C0006A14A14200D100BF0A1201249440A3B2AF
:1026D000DC43048010BD000000380140004400408D
:1026E00000480040004C0040005000408AB000F01C
:1026F00051F94FF4E13000F0D2F900F0EDFB022384
:1027000067A21946002000F071FC01F00DF900F0FD
:10271000D5FA41F61F4142F20F7000F0A1FD01F021
:10272000A5F800F02AFE0020614908706149087090
:1027300000F0CDFBB2E008A909A800F0C3FE09989B
:1027400004F060F8064632460B465BA15F4801F094
:102750006DF901235D4A1946002000F047FC0898F6
:1027600004F050F8064632460B4659A1574801F08E
:102770005DF90123554A0221002000F037FC0720B3
:1027800000F0ECFA0546012000F0E8FA804600204F
:1027900000F0E4FA0446224652A14C4801F046F902
:1027A00001234A4A0321002000F020FC2A4650A1C0
:1027B000464801F03BF90123444A0421002000F07F
:1027C00015FC42464DA1414801F030F901233F4A32
:1027D0000521002000F00AFC4B480088854207DCF8
:1027E000012001F084F818B132480078012809D19D
:1027F000012001F068F8012344A20621002000F026
:10280000F5FB08E0002001F05EF8012342A206215A
:10281000002000F0EBFB43480088804507DC0220E5
:1028200001F065F818B122480078012809D101208B
:1028300001F053F801233CA20621502000F0D6FB02
:1028400008E0002001F049F8012339A206215020B8
:1028500000F0CCFB089803F0D5FF06460F46099818
:1028600003F0D0FF8146032098FBF0F0079003208F
:1028700095FBF0F0A346CDE90291CDE904670690FF
:1028800007980090E01704EB907082102AA1394855
:10289000069B00F050F9012000F0DDF84BE7000046
:1028A0005769666920496E6974696E672E2E2E001D
:1028B000370000203600002054656D706572617429
:1028C000757265203D20252E326643004C000020A5
:1028D00048756D6964697479203D20252E3266251E
:1028E000255248004C696768743A25356400000039
:1028F0004D207120323A2535640000004D7131338E
:10290000353A2535640000002A00002042656570D4
:102910003A4F4E2000000000426565703A4F46462F
:10292000000000002800002046616E3A4F4E200053
:1029300046616E3A4F4646007B226C696768742296
:102940003A25642C226D7132223A25642C226D7155
:10295000313335223A25642C2274656D70223A2574
:102960002E32662C22776574223A252E32667D0A35
:102970000000000000380140704700BFFEE700BFC4
:10298000FEE700BFFEE700BFFEE7704770477047F5
:102990007047000010B56FF00400FDF7CCFD34481F
:1029A00000683449B0FBF1F03349087008460078FC
:1029B00000EB4001C1EBC0104FF6FF7101EAC0000F
:1029C0002E49088010BD01462B4A12784A434FF029
:1029D000E0235A6100229A611A46126942F001020C
:1029E0001A6100BF4FF0E022106900F001021AB135
:1029F00000F48032002AF5D04FF0E022126922F074
:102A000001024FF0E0231A6100229A6170470146EB
:102A10001A4A12884A434FF0E0235A6100229A6111
:102A20001A46126942F001021A6100BF4FF0E0221B
:102A3000106900F001021AB100F48032002AF5D0CA
:102A40004FF0E022126922F001024FF0E0231A61F8
:102A500000229A61704730B50446002505E04FF426
:102A60007A70FFF7D4FF681CC5B2A542F7D330BD1A
:102A70000000002000127A002C0000202E00002010
:102A8000014600BF704700BF7B4A128802F0400237
:102A9000002AF9D0C2B2784B1B1D1A80704710B5BE
:102AA00086B00446012144F20400FEF7A9FC4FF46D
:102AB0000070ADF8140003208DF8160018208DF872
:102AC000170005A96D48FDF7DDFF4FF48060ADF8F4
:102AD000140004208DF8170005A96848FDF7D2FFFF
:102AE00025208DF8000003208DF801008DF80200EC
:102AF00001208DF803006846FDF7D3FC0194002007
:102B0000ADF80800ADF80A00ADF80C00ADF8100003
:102B10000C20ADF80E0001A95748FFF726FC012252
:102B200040F225515448FFF7B8FC01215248FFF705
:102B3000A8FC06B010BD0FB430B5CBB0054601AC53
:102B400050A8009001A8009A4F9900F05DFF002066
:102B500000900BE014F8011B2846FFF7FFFC00BFB4
:102B600040212846FFF768FD0028F9D0207800288A
:102B7000F0D14BB030BC5DF814FB2DE9F0410746B5
:102B80000C46154600260DE014F8011B3846FFF7E9
:102B9000E5FC00BF40213846FFF74EFD0028F9D084
:102BA000701C86B2AE42EFDBBDE8F08110B540F29A
:102BB00025513148FFF756FD00285BD02E48FFF71E
:102BC000D1FCC4B22E48007840B92A2C02D1012091
:102BD0002B49087000202B4908704BE029480078E9
:102BE000062804DA284827490978445404E00020DC
:102BF0002449087022490870232C36D122480078D5
:102C0000532819D054282AD100211F481D4A127870
:102C10008154401C01F092F81C4908600846006885
:102C2000002808DD08460068B0F57A7F03DA084618
:102C300000881749088012E013484078422804D1E0
:102C4000114880783038134908700F48407846287A
:102C500004D10D48807830380F49087000BF00BF9C
:102C60000020074908700749087006480078401C92
:102C70000449087010BD0000003801400008014000
:102C800045000020440000203800002040000020C3
:102C900028000020360000203700002008B5012160
:102CA0000420FEF7ADFB8320ADF8000000208DF876
:102CB000030069463348FDF7E5FE08BD00B585B061
:102CC000FFF7ECFF01214802FEF79AFB002000907D
:102CD0008DF804008DF805004FF46020029000206C
:102CE000039001208DF8100069462748FDF769FC24
:102CF0004FF44040FEF7E8FA01212348FDF78DFC30
:102D00002148FDF7ACFC00BF1F48FDF7ADFC0028D3
:102D1000FAD11D48FDF7B2FC00BF1B48FDF7B3FC1C
:102D20000028FAD105B000BD70B504460025012386
:102D30001A4621461448FDF7DCFC01211248FDF734
:102D4000ACFC00BF02211048FDF718FE0028F9D0A6
:102D50000D48FDF735FD0546284670BD70B50646A1
:102D60000025002407E03046FFF7DEFF054414206D
:102D7000FFF729FE641C0A2CF5DB0A20B5FBF0F0F6
:102D800080B270BD000801400024014000B585B04C
:102D900001214805FEF741FB01210820FEF730FB29
:102DA000C020ADF8000003208DF802001C208DF833
:102DB00003006946FB48FDF765FEFB48FDF7B0FFE1
:102DC0000020ADF808004BF6FF70ADF80A00302087
:102DD000ADF80C004FF48060ADF80E000001ADF8C6
:102DE0001000F24801900121EF48FEF730F801A9E8
:102DF000ED48FDF7AEFF05B000BD70B504460D46C9
:102E000000BF4FF40031E848FEF748F90028F8D138
:102E10000121E548FEF73FF800BFE549E248FEF72B
:102E20001BF90028F9D000227821DF48FEF789F845
:102E300000BFE049DC48FEF70FF90028F9D0214631
:102E4000D948FEF778F800BFDA49891CD648FEF762
:102E500003F90028F8D02946D348FEF76CF800BFE4
:102E6000D449891CD048FEF7F7F80028F8D0012192
:102E7000CD48FEF71CF870BD10B504462146002071
:102E8000FFF7BBFF10BD10B5044621464020FFF7F9
:102E9000B4FF10BD70B50646002415E004F1B00182
:102EA000C8B2FFF7E9FF0020FFF7E6FF1020FFF7A9
:102EB000E3FF002504E03046FFF7E5FF681CC5B2DC
:102EC000802DF8DB601CC4B2082CE7DB70BD10B5A8
:102ED0000020FFF7DFFF10BD10B5FFF757FF64209C
:102EE000FFF795FDAE20FFF7C7FF2020FFF7C4FFD7
:102EF0001020FFF7C1FFB020FFF7BEFFC820FFF78B
:102F0000BBFF0020FFF7B8FF1020FFF7B5FF402000
:102F1000FFF7B2FF8120FFF7AFFFFF20FFF7ACFF05
:102F2000A120FFF7A9FFA620FFF7A6FFA820FFF723
:102F3000A3FF3F20FFF7A0FFA420FFF79DFFD320B2
:102F4000FFF79AFF0020FFF797FFD520FFF794FFC8
:102F5000F020FFF791FFD920FFF78EFF2220FFF727
:102F60008BFFDA20FFF788FF1220FFF785FFDB20B9
:102F7000FFF782FF2020FFF77FFF8D20FFF77CFF08
:102F80001420FFF779FFAF20FFF776FF0120FFF74E
:102F90003EFDFFF79CFF10BD70B504460D4605F1E0
:102FA000B001C8B2FFF768FF102141EA1410FFF723
:102FB00063FF04F00F0141F00100FFF75DFF70BDFA
:102FC00010B58D20FFF758FF1420FFF755FFAF20F5
:102FD000FFF752FF10BD10B58D20FFF74DFF1020F9
:102FE000FFF74AFFAE20FFF747FF10BD2DE9F0477E
:102FF0000646894617469A464FF0000800240025E9
:10300000BAF1010F03D0BAF1020F5ED125E020E042
:10301000785D203800F0FF087E2E04DD002609F1DF
:10302000010000F0FF0949463046FFF7B5FF0024D4
:1030300009E008EB4801604A02EB4101085DFFF737
:1030400022FF601CC4B2062CF3DBB01DC6B2681CA4
:10305000C5B2785D0028DBD137E032E0785D2038FA
:1030600000F0FF08782E04DD002609F1010000F0D1
:10307000FF0949463046FFF78FFF002407E004EBC5
:1030800008114E4A505CFFF7FEFE601CC4B2082CCB
:10309000F5DB09F10100C1B23046FFF77DFF0024E6
:1030A00008E004EB08110831444A505CFFF7EBFEDE
:1030B000601CC4B2082CF4DB06F10800C6B2681C20
:1030C000C5B2785D0028C9D100BF00BFBDE8F08758
:1030D0002DE9F04781460F46904600240026012541
:1030E0007DE00024012513E03548005D18F8061046
:1030F00088420BD13249601C095C701C18F8000032
:10310000814203D1C4EBC400450005E0A01CC4B259
:103110002B48005D7F28E7DC00BFB9F1760F03DDA7
:103120004FF00009781CC7B239464846FFF734FF14
:10313000012D21D039464846FFF72EFF002407E035
:103140001F49485DFFF79FFE681C85B2601CC4B232
:103150000E2CF5DB781CC1B24846FFF71DFF00249A
:1031600007E01749485DFFF78EFE681C85B2601CBA
:10317000C4B20E2CF5DB2CE0701CC6B239464846B2
:10318000FFF70AFF002404E00020FFF77CFE601C2C
:10319000C4B2102CF8DB781CC1B24846FFF7FCFE25
:1031A000002414E0000C014000540040801A060086
:1031B0000100030082000700866A0008AE6C000868
:1031C000166A00080020FFF75EFE601CC4B2102CD7
:1031D000F8DB09F10E0000F0FF09B01CC6B218F8C8
:1031E000060000287FF47DAFBDE8F0872DE9F05F91
:1031F00006460F4690461C46DDF828A04FF0000B0F
:10320000E11704EB5171C910A4EBC10131B920469B
:10321000E11704EB5171C1F3C70506E02046E11741
:1032200004EB5171C910491CCDB23D4614E029464A
:103230003046FFF7B1FEB1460AE059460BF1010BEB
:103240001AF80100FFF71FFE09F1010000F0FF0965
:10325000C145F2DB681CC5B2A542E8DBBDE8F09FC2
:103260007FB505460C4601210220FEF7D6F8ADF8E1
:103270000850ADF804400020ADF80A00ADF8060093
:1032800001A91648FEF7F4F9012211461348FEF78A
:1032900066FD1D208DF8000000208DF80100032040
:1032A0008DF8020001208DF803006846FDF7F9F85B
:1032B00001210A48FEF738FD7FBD10B501210748FE
:1032C000FEF7FBFF40B101210448FFF707F804486F
:1032D0000068401C0249086010BD00000004004066
:1032E0004800002070B506460C46154600F0ABF9C4
:1032F000802000F056FA00F0E7F9304600F051FA6D
:1033000000F0E2F900F09FF9812000F04AFA00F0A5
:10331000DBF906E0012000F071FA04F8010B681EE9
:1033200085B2002DF6D100F01BFA00F0AEF90020B6
:1033300070BD38B505460C46200A8DF80000E0B295
:103340008DF8010000F07FF9802000F02AFA00F0EB
:10335000BBF9284600F025FA00F0B6F99DF8000008
:1033600000F01FFA00F0B0F99DF8010000F019FA22
:1033700000F0AAF900F089F938BDF8B500F04AF973
:1033800002226946FE20FFF7ADFF9DF8000006020D
:103390009DF801000644324679A17D4800F046FBC5
:1033A00001237B4A00210846FFF720FE02226946DE
:1033B000FF20FFF797FF9DF8000005029DF8010030
:1033C00005442A4673A1724800F030FB0123704A7D
:1033D00019460020FFF70AFE45F24940864203D114
:1033E00041F25000854204D06FA1694800F01EFBF5
:1033F00003E074A1664800F019FB0123644A02212E
:103400000020FFF7F3FD4FF48054224670A160487E
:1034100000F00CFB01235E4A03210020FFF7E6FDCC
:1034200021460220FFF785FF022269461046FFF77A
:1034300059FF9DF8000004029DF801000444B4F512
:10344000805F04D166A1524800F0F0FA03E068A161
:103450004F4800F0EBFA01234D4A04210020FFF70A
:10346000C5FDF8BD10B50446002020706070A07046
:10347000E07000F0E8F8802000F093F900F024F903
:10348000002000F08EF900F01FF91420FFF7BFFABA
:1034900000F0D9F8812000F084F900F015F901203E
:1034A00000F0ACF92070012000F0A8F96070012054
:1034B00000F0A4F9A070012000F0A0F9E07000F085
:1034C000E4F810BD2DE9F04F85B081460C4604A804
:1034D000FFF7C8FF9DF811109DF8102041EA022067
:1034E00003F0BCF9C9F800000022464B10464FF02B
:1034F000804101F09FFE07468846D9F8000003F09E
:1035000081F982463A46434602F0C0FC0546002255
:103510003D4B02F067FE00223C4BCDE9000103F079
:1035200087F8CDE9020102F0C3FBC9F800000020D2
:1035300020609DF813109DF8122041EA022003F04C
:103540008DF9206000222F4B10464FF0804101F092
:1035500071FE05460E46206803F054F907462A46D8
:10356000334602F093FC0022294BCDE9020102F020
:1035700039FE824602F09CFB206005B0BDE8F08F6A
:103580004D4944203D20307825780D0A0000000088
:103590004C0000204465766963655F4944203D2006
:1035A00030782578200000002121214552524F52C9
:1035B0002C506C6561736520436865636B21212124
:1035C000000000004F6E6C696E6521212100000033
:1035D000636F6E666967203D2030782578000000B3
:1035E000436F6E66696720737563636573732E003E
:1035F000436F6E6669677520726567206661696CE6
:1036000065642E000000304000A06440000044408B
:103610000000594008B501210420FDF7F1FE6020AB
:10362000ADF8000010208DF8030003208DF8020093
:1036300069468B48FDF726FA01208A4908608A49C5
:10364000C1F8940108BD10B58548006820F47000E9
:10365000834908600846006840F440100860012073
:103660008049091F08608049C1F898010420FFF7CC
:10367000AAF900207B49091F08600420FFF7A3F97D
:1036800000207949C1F8980110BD10B57448006850
:1036900020F47000724908600846006840F4401049
:1036A000086000206F4908606F49C1F89401042048
:1036B000FFF789F901206B4908606B49C1F8940153
:1036C0000420FFF780F910BD10B50024644800689D
:1036D00020F47000624908600846006840F4000069
:1036E000086001205F49091F0860FFF76CF901209D
:1036F0005D49C1F89801FFF766F907E0601CC4B2A4
:10370000FA2C03DDFFF7C1FF012010BD55488438B6
:1037100000680028F2D15349086000BFF5E710B5F2
:103720000020504908604E48006820F470004C4961
:1037300008600846006840F44010086000204A49CC
:10374000C1F894010220FFF73EF9012045490860C5
:103750000220FFF738F900204349C1F8980110BD55
:1037600010B500203F4908603D48006820F4700013
:103770003B4908600846006840F44010086001209A
:103780003949C1F894010220FFF71DF9012035499C
:1037900008600220FFF717F900203349C1F89801AB
:1037A00010BD70B504462E48006820F470002C4906
:1037B00008600846006840F440100860002029496D
:1037C0000860002517E0E0092649091F0860600627
:1037D000040E0220FFF7F7F801202349C1F89801F1
:1037E0000220FFF7F0F800201E4908600220FFF7D2
:1037F000EAF8681CC5B2082DE5DB70BD70B505465A
:1038000000241748006820F4700015490860084635
:10381000006840F400000860002616E0002011490E
:1038200008600220FFF7CFF801200F49C1F8980186
:103830006006040E0B488438006808B1601CC4B2EE
:103840000120FFF7C0F8701CC6B2082EE6DB15B9E0
:10385000FFF786FF01E0FFF762FF204670BD000022
:1038600000080140980121420000214208B50121D1
:103870001820FDF7C5FD4FF44050ADF8000048207A
:103880008DF8030069462348FDF7FCF84FF400600B
:10389000ADF8000010208DF8030003208DF8020021
:1038A00069461C48FDF7EEF84FF48040ADF8000083
:1038B00010208DF8030003208DF802006946164899
:1038C000FDF7E0F808BD012803D10121134A11607A
:1038D00002E00021114A11607047012803D1012143
:1038E0000F4A116002E000210D4A11607047014645
:1038F0000A4878380068C2B20A48D0F83001C3B22A
:10390000012901D110467047022901D11846FAE772
:10391000FF20F8E7000C014000100140AC8121427B
:10392000B80122420080214210B50120FFF793F830
:1039300013A11648FFF7FFF80520FFF78CF814A134
:103940001248FFF7F8F80120FFF785F814A10F4897
:10395000FFF7F1F80220FFF77EF81CA10B48FFF7F4
:10396000EAF80120FFF777F81CA10848FFF7E3F811
:103970000120FFF770F81DA10448FFF7DCF810BD27
:1039800041542B5253540D0A0000000000380140EE
:1039900041542B4349504D55583D300D0A0000000D
:1039A00041542B43495053544152543D22544350A7
:1039B000222C223139322E3136382E34332E323405
:1039C00033222C383030300D0A00000041542B4394
:1039D00049504D4F44453D310D0A000041542B43A1
:1039E000495053454E440D0A000000007B22646993
:1039F00064223A31383838382C22726F6C65223A9A
:103A0000327D0A00704700001CB50C46064B7B4413
:103A100069460090204600F06EFC0446002069468E
:103A200000F07CFC20461CBD0B0900000FB41CB547
:103A3000084B06AA7B4469460090059800F05BFCA1
:103A400004460020694600F069FC20461CBC5DF875
:103A500014FB0000E508000070B5044685690068A5
:103A6000C10601D5302600E02026C00707D070BD72
:103A7000D4E9012130469047206A401C20626D1E27
:103A8000F6D570BD70B5044685690078C00707D1CA
:103A900070BDD4E9012120209047206A401C20629B
:103AA0006D1EF6D570BD00002DE9F04106460024DC
:103AB00010687529314616A510D000F060F900286D
:103AC00002DA404213A507E031688A0701D512A542
:103AD00002E0490704D511A5012401E000F058F9DE
:103AE00000210A2206F1240709E0B0FBF2FCB0FB3A
:103AF000F2F302FB1C00303078541846491C0028B1
:103B0000F3D123462A463046BDE8F04100F072B9B1
:103B1000000000002D0000002B000000200000002D
:103B2000F0B40D460188090502D5214C7C4402E021
:103B30001F4C7C440E34002100F1240608E002F002
:103B40000F071209E75D42EA03721B097754491C0B
:103B500052EA0307F3D102780023120704D5702D2F
:103B600006D009B1022311342246F0BC00F042B95C
:103B700001231034F8E770B504460D46214610685D
:103B800000F006F9024629462046BDE870400023B1
:103B9000C6E7D21D22F00703D3E90023C0E703687C
:103BA000126843F0200303600823C3610023B7E7D2
:103BB0006E3700002DE9F05F894604464FF0000A99
:103BC000DFF874B1FB44C0F820A02046E1688847C4
:103BD000002874D0252806D0D4E901219047206A16
:103BE000401C2062F1E700265F462046E1688847D6
:103BF0002028054607DB312D05D2781910F8200C56
:103C000008B10643F1E7B00701D526F00406C4F871
:103C10001CA00027C4F818A02A2D09D0284601F0BE
:103C200001FB38B304EB8708303DC8F8185019E0A1
:103C300059F8041B204604EB87029161E16888472C
:103C4000012F054618D1E069002820DA26F0200669
:103C50001DE0D8F8180000EB800005EB400030387C
:103C6000C8F818002046E1688847054601F0DAFAEE
:103C70000028EED1012F0AD02E2D08D12046E16870
:103C800088477F1C0546022F46F02006C4DBA0694A
:103C9000002803DA404246F00106A061F00701D097
:103CA00026F010066C2D0BD0682D09D04C2D39D084
:103CB0006A2D35D0742D35D07A2D33D016E038E00A
:103CC000E1682F4620468847B842054609D16C2F47
:103CD00026D04FF48060E1680643204688470546B9
:103CE00004E06C2F1AD04FF4807006430DB3A5F199
:103CF0004100192802D8203546F400664A46294674
:103D0000204626604E46FCF74DFA80B101280BD0C4
:103D1000F61D26F0070000F1080956E74020E4E709
:103D20008020D8E70020D6E706F104094DE72846B1
:103D300052E7206ABDE8F09FFE36000070B50646E7
:103D400000F00EF80468054630460A22002100F013
:103D5000BFFB2C6070BD7047704770477047000014
:103D6000004870476C00002010B5FFF7F9FF0068AD
:103D700010BD10B50446FFF7F3FF046010BD0968DD
:103D80004A0501D540B27047C905FCD500B270475D
:103D900009684A0501D5C0B27047C905FCD580B293
:103DA000704770B50C460546012A05D02878800674
:103DB00000D5EA69002302E0012305E05B1C934281
:103DC00002D2E05C0028F9D1A869E618C01AA861FF
:103DD000286A184428622846FFF73EFE04E0D5E929
:103DE000012114F8010B9047B442F8D32846FFF79D
:103DF00049FE70BD2DE9F0470D46994692460446AE
:103E000000F124080168880604D5E06921F010015A
:103E1000216000E00120A84201DD471B00E00027EF
:103E2000A1697A1902EB0900081AA0612078C0067E
:103E300002D42046FFF710FE002608E0D4E9012155
:103E40001AF806009047206A401C761C20624E45F6
:103E5000F4DB2078C0060AD52046FFF7FDFD06E01A
:103E6000D4E9012130209047206A401C2062381E8E
:103E7000A7F10107F4DC07E0D4E9012118F80500F7
:103E80009047206A401C2062281EA5F10105F3DC42
:103E90002046FFF7F7FD2078000602D50220BDE896
:103EA000F0870120FBE711680268006A530501D51D
:103EB00008700AE0D30501D5088006E0130603D593
:103EC000C217C1E9000200E0086001207047704796
:103ED0002DE9FF4F0C461E464FF0FF378BB0D2E95D
:103EE0000001DDF860800A908A46C1F30A5505B9E1
:103EF0003D46002108464FF00000BAF1000F00F4E3
:103F0000400005DA00EB80004FF4400101EA500068
:103F10004FEA9059B9F1010F00DDB9460A9850EA0D
:103F20004A000ED044F61050A5F2FF3545432F1439
:103F3000B8F1000F1ED07542291E1EDDC9F1000226
:103F40001CE0B8F1010F4FF0000001D0302103E078
:103F5000F24305E02154401CB042FBDB3046002216
:103F6000002121540B99C1F80880C1E900200FB04D
:103F7000BDE8F08FBD1B6D1CDEE74A4600DA6942E2
:103F800006A800F0EFFB06AB93E8070003AB83E85D
:103F9000070050460A9900F0F3FC8DE80700A0F5F1
:103FA00000501F3800900398002D0ADD42F21F01D7
:103FB0004A460844002303A90390684600F05CFFCA
:103FC00009E0A0F500504A461F38002303A90390DA
:103FD000684600F066FF8DE807000004000C03D07F
:103FE0004FF0FF30410800E01046B8F1000F03D059
:103FF0000022009215461EE0751E05D400F0B0FAAE
:10400000303262556D1EF9D5B3460122084302D005
:1040100000227F1C04E02078302801D100227F1E7E
:10402000002A099784D01DE0112D07DA00F098FAD4
:10403000303262556D1C50EA0102F5D1084302D0BE
:104040000098C8B10EE00021681E05E0235C625CA8
:1040500063542254401E491C8142F7DBAB46A81B27
:10406000401E0990002004F80B000B98099AC0F834
:104070000880C0E9002B7AE711264FF0000857E7C7
:104080002DE9F04F88460446D21D22F0070191B079
:10409000D1E90001CDE90A0101F03AF802460B9896
:1040A000C00F01D02D2007E02068810701D52B200B
:1040B00002E0202101EAC000032A099001D0072A6A
:1040C00005DB03464146204600F090FA0BE12078DC
:1040D000800601D5E06900E00620B8F1650F814651
:1040E00006D0B8F1660F18D0B8F1670F70D131E083
:1040F0000020B9F1110F009001DB112301E009F15B
:1041000001030AAA01A90CA8FFF7E2FEDDE90C7081
:10411000002609F10105834647E001204B46009047
:104120004FF000470AAA01A90CA8FFF7D1FEDDE96C
:104130000DB00C995D46002610B909F101000D186B
:10414000B9EB050003D4C0F1FF3609F10105A5EB79
:1041500009002BE0B9F1010F01DA4FF0010900204D
:10416000B9F1110F0090484601DD112300E003462C
:104170000AAA01A90CA8FFF7ABFEDDE90C704D46B9
:1041800000268346207800070AD4AB4500DA5D4656
:1041900001A8012D04DD411911F8011C302907D0B7
:1041A0004F4502DA17F1040F04DA012082460FE0CE
:1041B0006D1EEEE7002F02DCED1B3E4403E0781C91
:1041C000A84200DD7D1CB81B00F1010A4FF000473A
:1041D0002078000703D4AA4501DB4FF0FF3A002105
:1041E000B7F1004F0DF143088DF8431024D00220A1
:1041F0002B23002F01DA7F422D230A21021EA0F17A
:10420000010000DC5FB197FBF1FC97FBF1F201FBD1
:104210001C7C17460CF1300C08F801CDEEE7A8F134
:10422000010003702188090501D5452100E06521C1
:10423000A0F1010800F8011C09980FA9A1EB0807DB
:10424000FF1D00B10120411901EBEA70A16938445A
:10425000081A401EA0612078C00602D42046FFF74D
:10426000FBFB099828B1D4E901219047206A401C42
:1042700020622078C00622D52046FFF7EDFB1EE025
:10428000002E04DBB34502DD01A8805D00E0302094
:10429000D4E901219047206A401C2062761CAAF1D3
:1042A00001005FEA000A0AD100F056F9C06801680F
:1042B000405CD4E901219047206A401C2062281EFE
:1042C000A5F10105DCDC07E0D4E9012118F8010BB8
:1042D0009047206A401C2062381EA7F10107F3DCDA
:1042E0002046FFF7CFFB032011B041E601694A1CCD
:1042F00002610878704700B58FB0CDE90131002127
:10430000059105497944CDE9031011466846FFF748
:1043100051FC0FB000BD0000E5FFFFFF0A6802F886
:10432000010B0A60704700002DE9FF5F15468A46C1
:104330000446DFF8AC80F8440027D8E900103E4678
:10434000CDE9001010E03AF816106A4602A800F015
:104350007BFA411C07D02178890603D5E269391818
:1043600091420DD80744761C2078800602D5E0697A
:10437000B84205DDAE42E6DB3AF816000028E2D18D
:10438000A069C01BA0612046FFF766FBD8E90010BA
:10439000CDE90010002017E03AF818106A4602A88C
:1043A00000F052FAB0F1FF3F81460BD000250DF12D
:1043B000080B05E0D4E901211BF8050090476D1CAE
:1043C0004D45F7D308F10100B0428046E4DB206A96
:1043D000384420622046FFF755FBBDE8FF9F0000F0
:1043E000263000002DE9F0418046D21D22F0070260
:1043F0000025D2E90002F52915A614D0011E72F19C
:10440000000106DA0023D0EB030063EB020211A6E1
:1044100008E0D8F800108B0701D50FA602E0490785
:1044200001D50EA601251146002408F1240704E059
:1044300000F096F830323A55641C50EA0102F7D188
:104440002B46324621464046BDE8F041FFF7D2BC3C
:10445000000000002D0000002B00000020000000E4
:1044600030B4002100F1240408E002F00705D2086E
:10447000303542EA4372DB086554491C52EA0305B1
:10448000F3D10468002310A2250707D5A40600D4A1
:1044900021B1C46901230DA2641EC46130BCFFF7C1
:1044A000A9BC10B5044621461068FFF771FC02460E
:1044B0002046BDE810400023D2E7D21D22F00701BC
:1044C000D1E90023CCE7000000000000300000002C
:1044D0002DE9F04791460F4680460446002614F821
:1044E000015B2DB100F030F80068405DC007F6D1E7
:1044F0002B2D02D02D2D18D0641E4A463946204659
:1045000000F0E0F827B13968A14201D1C7F8008076
:104510004FF0020471050BD54042002803DDFFF780
:104520001FFC0460A007BDE8F08746F48066E4E75E
:104530000028F8DAFFF714FC04606FF00040F2E79F
:10454000004870476C00002010B500F005F8001D11
:1045500010BD00BF31170000004870478C000020DC
:1045600030B5B0F10A024FEA900E71F100034EEA45
:10457000817EB0EB0E0061EB91014FEA101E4EEA16
:10458000017E10EB0E0041EB11114FEA102E4EEAA6
:10459000016E10EB0E0041EB11214FEA104E4EEA76
:1045A000014E10EB0E0041EB1141401841F10001AA
:1045B0004FEAD00040EA41704FEAD10110EB80058C
:1045C0004FEA810444EA907444EB01046D1944EB12
:1045D0000404521BA3414FF0000348BF0A3200D528
:1045E00030BD401C41F1000130BD00002DE9F0411B
:1045F0001F46044603260168072A01F4006004DB15
:1046000008B116A505E016A503E008B115A500E060
:1046100015A521F010002060A069C01EA0610FB197
:10462000401EA0612046FFF717FA4FB1D4E90121DF
:1046300038469047206A401C2062C01C206206E079
:10464000206AFAE7D4E9012115F8010B9047761E9C
:10465000F8D22046FFF716FABDE8F0814E414E0031
:104660006E616E00494E4600696E660010B5436982
:1046700013B1AFF3008001E0FFF793FB012010BD01
:10468000127800F124010A7000224A700122EDE73D
:1046900011684FF0FF32E9E710B5436913B1AFF38A
:1046A000008001E0FFF740FE012010BD128800F1FC
:1046B000240182840022C2840122EDE711684FF0B8
:1046C000FF32E9E72DE9F05F824615468B46002769
:1046D0000AF10104B9460078302801D09DB113E0F9
:1046E00014F8010B0127782803D0582801D045B1D0
:1046F0000AE00DB1102D07D1002714F8010B102589
:1047000002E0082500E00A250026B0460EE005FB81
:10471000080005FB06F101271FFA80F801EB10469F
:10472000B6F5803F00D3B94614F8010B294600F0D6
:10473000D0F80028EBDABBF1000F05D00FB1641EF2
:1047400000E05446CBF80040B9F1000F06D0FFF767
:1047500007FB02210160C81EBDE8F09F48EA064041
:10476000FAE700002DE9F047814616468AB0354841
:1047700078440DC88DE80D0032487844801C03ACA5
:104780000DC884E80D0041F69B300844372190FBAA
:10479000F1F290FBF1F5A5F1800501FB12041B3C41
:1047A00002D56442012000E00020DFF898A0804696
:1047B0000027FA44AAF1BE0A0EE0E0070AD032460A
:1047C000684607EB470101230AEB810100F069FB12
:1047D0008DE8070064107F1C002CEED1194F7F4438
:1047E000AE3F19E0E80715D007EB04100DF1180AE9
:1047F00090E80E008AE80E00C068F04201D19819D6
:1048000008903246012306A903A800F04AFB03AB37
:1048100083E807006D10641C002DE3D14FF0010305
:1048200032466946B8F1000F03A802D000F024FB1D
:1048300001E000F036FBC9E90001C9F808200AB020
:10484000BDE8F087782C000070B516460C4605468A
:10485000FFF77AFE036893F80101012806D0FF2CC8
:104860000FD8185D68B101202C7070BDD3F8070116
:104870003246214603F2071303442846BDE8704040
:1048800018474FF0FF3070BD7546FFF759FEAE4632
:1048900005006946534620F00700854618B020B54C
:1048A000FBF7F8FCBDE820404FF000064FF0000792
:1048B0004FF000084FF0000B21F00701AC46ACE8C8
:1048C000C009ACE8C009ACE8C009ACE8C0098D4635
:1048D00070473A2800D2303820F02002412A01D314
:1048E000A2F13700884201D34FF0FF30704710B576
:1048F0000446AFF300802046BDE81040FBF7B5BC8E
:104900004FF0013C50F8042B51F8043B9A4221D15E
:10491000A2EB0C03934313EACC1317D150F8042BEA
:1049200051F8043B9A4215D1A2EB0C03934313EACE
:10493000CC130BD150F8042B51F8043B9A4209D107
:10494000A2EB0C03934313EACC13DBD04FF000002F
:10495000704700BFD01A01BAB1FA81F101F0180115
:1049600022FA01F0CB40C1F12001DBB2C0B2C01A83
:104970002CFA01F3D11A914311EAC311E6D1704721
:104980005FEA400C08BF91F0000F4FEA8C234FEA1A
:10499000C12243EA51514FEA1C5018BF00F5F040C4
:1049A0004FEA300018BF41F000415FEA6C5C00F054
:1049B0002980BCF1FF3F08BF40F080407047130CD6
:1049C00006BF12044FF0100C4FF0000C130E04BF82
:1049D00012020CF1080C130F04BF12010CF1040CAD
:1049E000930F04BF92000CF1020CD30F04BF5200CE
:1049F0000CF1010C11464FF00002A0F11F00A0EBDA
:104A00000C00704711F0004F08BF704731F00041B3
:104A10003FF4D5AF0B0C06BF09044FF0100C4FF05C
:104A2000000C0B0E04BF09020CF1080C0B0F04BFA5
:104A300009010CF1040C8B0F04BF89000CF1020C6E
:104A4000CB0F04BF49000CF1010CCCF12003A0EB0B
:104A50000C0022FA03F302FA0CF241EA030100F11E
:104A60000100704720F07F4C80EA030023F07F476D
:104A7000ACEB070303F57C5300F0004003F1FF03A8
:104A80002DE980494FEA154B09B44FEA144325EA52
:104A90000B4E24EA03480FF2042606EB13274908BD
:104AA0003E785FEA320203FB0667C7F5000707FBA3
:104AB00006F64FEA54374FEAD64606F1020607FBE0
:104AC000066CCCF1005C4FEA1C472CEA074C07FB54
:104AD00006F40CFB06F504EB15464FEA961634BFB8
:104AE00000204FF000404FEAD13706FB07FC4FEAA9
:104AF0001C4C0CFB0BF7D21B03FB0CF761EB070103
:104B00000CFB0EF7B0EB074072EB17420CFB08F7FB
:104B100034BFA2EB0742B2EB074261EB17414FEA09
:104B20000C444FEA910706FB07FC4FEA1C4C0CFBB8
:104B30000BF7B0EBC74072EB573203FB0CF734BFF7
:104B4000A2EBC742B2EBC74261EB57310CFB0EF749
:104B5000B0EBC70072EB57720CFB08F734BFA2EB47
:104B6000C702B2EBC70261EB5771039F4FEA816145
:104B700041EA921104EBCC044FEAD1374FEA82624A
:104B800006FB07FC42EA90124FEA80604FEA1C4C99
:104B90000CFB0BF7D21B03FB0CF761EB07010CFBC3
:104BA0000EF7B0EB074072EB17420CFB08F734BF6F
:104BB000A2EB0742B2EB074261EB17414FEA8C557B
:104BC0004FEA910704EB9C2406FB07FC4FEA1C4CC0
:104BD0000CFB0BF7B0EBC74072EB573203FB0CF743
:104BE00034BFA2EBC742B2EBC74261EB57310CFBBB
:104BF0000EF7B0EBC70072EB57720CFB08F734BF2F
:104C0000A2EBC702B2EBC70261EB577115EB4C2563
:104C10004FEA816141EA92114FEA82624FEAD1374D
:104C200042EA901206FB07FC44F100044FEA806060
:104C30004FEA1C4C0CFB0BF7D21B03FB0CF761EB90
:104C400007010CFB0EF7B0EB074072EB17420CFBB1
:104C500008F734BFA2EB0742B2EB074261EB174102
:104C600015EB1C154FEA813141EA92414FEA82323D
:104C700042EA90424FEA80304FEA0C7644F1000459
:104C800048EA03434EEA0B484FF0000EB2EB080C23
:104C900071EB030724BF624639464EEB0E0E4FF010
:104CA000000B0018524149414BEB0B0BB2EB080CC7
:104CB00071EB03077BF1000B24BF624639464EEBD4
:104CC0000E0E4FF0000B0018524149414BEB0B0BFD
:104CD000B2EB080C71EB03077BF1000B24BF6246BB
:104CE00039464EEB0E0E51EA020718BF46F0010698
:104CF00016EB0E7655F1000254F1000103D5BDE824
:104D00008901BDE80088BDE88901BDE80048B61901
:104D1000524141EB0101A3F10103704780807F7E86
:104D20007D7C7B7A79787776767574737271717021
:104D30006F6E6E6D6C6C6B6A6A69686867666665D3
:104D40006464636362616160605F5F5E5E5D5D5C61
:104D50005C5B5B5A5A5959585857575656555555D2
:104D60005454535352525251515050504F4F4F4E32
:104D70004E4D4D4D4C4C4C4B4B4B4A4A4A49494980
:104D800048484847474747464646454545444444C2
:104D9000444343434342424242414141002B9C46EB
:104DA00030D477002BD01CB54FEA370703B44FF04F
:104DB00010004FF01001BAF1000F06D0BCF1000F47
:104DC000DCBF40F0080040F008014FF000000FBCCD
:104DD000BDE810400BF1010BBBF1010F08BF5FEA0A
:104DE000170722BF12F1010211F101014FF000413A
:104DF00043F1000300F0004043EA00007047F9D39C
:104E00005708D0E746EA064613F1400F4FEA164628
:104E10001FDD13F1200FDFBF16430A4600212033A8
:104E20005B42BED0C3F1200746EA064602FA07F706
:104E30004FEA164646EA0706C3F1200722FA03F2B4
:104E400001FA07F721FA03F14FF0000342EA0702E3
:104E5000A7E746EA020646EA06464FEA164646EA4B
:104E60000106BCBF46EA0646360C4FF000034FF081
:104E700000024FF0000194E72DE9804C9A469346DA
:104E800070B491E8380007C831EA400C48BF34EAF2
:104E9000430C03D5FFF7E6FDFFF780FFF0BCBDE84C
:104EA000008C2DE9804C9A46934670B491E8380006
:104EB00007C810F0804F08BF13F0804F03D100F0F7
:104EC00005F8FFF76BFFF0BCBDE8008C20F07F47D2
:104ED00080EA030023F07F4C07EB0C03A3F57C531F
:104EE00000F00040A3F1FE0392F0000F00F0B38049
:104EF00095F0000F00F077802DE901494FEA11404D
:104F00004FEA144621EA004800FB06FC24EA064763
:104F100008FB06F607FB08F800FB07F718EB064846
:104F20004CEB164C4FEA124B18EB07484FEA15466C
:104F30004CEB174022EA0B4E0BFB06FC25EA06471A
:104F40000EFB06F607FB0EFE0BFB07F71EEB064EED
:104F50004CEB164C4FF000061EEB074E4CEB174B7C
:104F600018EB0B0840F1000018EB0E0B58EB000893
:104F700040F100008F1A4FF000013CBFC943661B8F
:104F800014BFB5EB040C00213CBFC943F61B4FEA2C
:104F900017444EEA8E0E27EA04454FEA1C4704FBED
:104FA00007622CEA074C05FB07F70CFB05F604FB30
:104FB0000CFC16EB074642EB174216EB0C4642EB95
:104FC0001C421BEB060658EB0202414146EA9E06D4
:104FD00001D5BDE80189B619524141EB0101A3F1A8
:104FE0000103BDE801894FEA14454FEA114724EA5D
:104FF000054621EA074C05FB07F406FB07F70CFB07
:1050000006F105FB0CFC11EB074144EB17444FEA9A
:10501000124711EB0C4144EB1C4422EA074C05FB00
:1050200007F206FB07F70CFB06F605FB0CFC16EB7C
:10503000074642EB174216EB0C4642EB1C456A183A
:1050400054F1000148BF7047B619524141EB0101CC
:10505000A3F10103704795F0000F37D04FEA1142DA
:105060004FEA144721EA024624EA074C02FB07F103
:1050700006FB07F70CFB06F402FB0CFC14EB0744E1
:1050800041EB17414FEA154714EB0C4441EB1C412F
:1050900025EA074C02FB07F506FB07F70CFB06F6B3
:1050A00002FB0CFC16EB074645EB174516EB0C46CE
:1050B00045EB1C42121951F1000148BF7047B61967
:1050C000524141EB0101A3F1010370474FEA14453E
:1050D0004FEA114724EA054621EA074C05FB07F190
:1050E00006FB07F70CFB06F24FF0000605FB0CFC75
:1050F00012EB074241EB174112EB0C4251EB1C4102
:1051000048BF7047921841EB0101A3F101037047BA
:10511000490050EAC12018BF04204A0D18BF40F0D2
:10512000010040F2FF72B2EB515F08BF40F0020095
:10513000012808BF052070472DE9F0414F1E00EB04
:10514000C7010446D1E9000115461E4637F00602A4
:105150000DD02A46334601F045F87F1E04EBC70305
:10516000D3E9002300F0D6FD37F00602F1D1022F7B
:1051700025D0042F13D0062F18BFBDE8F0812A4692
:10518000334601F02FF8D4E90A2300F0C3FD2A4684
:10519000334601F027F8D4E9082300F0BBFD2A4686
:1051A000334601F01FF8D4E9062300F0B3FD2A4688
:1051B000334601F017F8D4E9042300F0ABFD2A468A
:1051C000334601F00FF8D4E9022300F0A3FD2A468C
:1051D000334601F007F8D4E90023BDE8F04100F0C0
:1051E00099BD0000002213461046014900F04EBE52
:1051F0000000F03F00F08EBD00221346104611461D
:1052000000F044BE40F2013200204FF0E04101F0D6
:10521000BCBB0000024A0020110701F0B6BB000031
:1052200001FDFFFF30380A2801D20120704700201D
:10523000704700002DE9F04D1D460C4698B017460A
:1052400021F0004123F00043002814BF4FF0010C6F
:105250004FF0000C0CEB440CFE4A0CEB02064FEA3C
:10526000620C66452BD33E0018BF012606EB4506AF
:105270001644F94A964222D3F84A53EA070C02D060
:10528000944205D148B918B000201146BDE8F08D10
:10529000002808BF4FF0000C01D04FF0010C0CEBC0
:1052A000440212F5001F0AD8002F14BF4FF0010C62
:1052B0004FF0000C0CEB450212F5001F07D918B097
:1052C0003A462B462146BDE8F04DFFF793BF00223A
:1052D000DFF88CA3002CB8BF534526DADFF884C36F
:1052E0006345A8BF022220DADFF870C39C451CDCAE
:1052F000DFF874C30CEB235CBCF1140F08DDCCF1B8
:10530000340627FA06FC0CFA06F6BE420DD108E078
:105310005FB9CCF1140623FA06FC0CFA06F69E429D
:1053200003D10CF00102C2F1020251EA000C19D1C2
:10533000002D17DA002C18BF022A01D0012A07D04D
:105340000220FEF716FD18B0BDE8F04DFFF74ABF8A
:105350000220FEF70EFDFFF745FF18B081F0004177
:10536000BDE8F08DB7F1000C6CD1534525D104F1A7
:10537000804212F5801201BF00280020B74918B002
:1053800008BFBDE8F08DB548884207DC002DA1BFFD
:105390006046294618B0BDE8F08D07E0281E05DA02
:1053A00080F0004118B06046BDE8F08DAF49794407
:1053B000D1E9000118B0BDE8F08DDFF8A0C2634567
:1053C00025D1002D1FDA19B1514512D1D8B909E004
:1053D000002840F0EC82A24A214618B062F31E0178
:1053E000BDE8F08D0020214618B060F31E01BDE835
:1053F000F08D08DA18B02346BDE8F04D02460020D3
:10540000614600F043BD18B02146BDE8F08D51451E
:1054100018DAB5F1804F0DD0A5F1005CBCF1FF5C4E
:1054200010D1B4F1000C0DDB18B06146BDE8F04DB1
:1054300000F0ECBB234618B00246BDE8F04D19461B
:1054400000F0D0BE060024F0004C3BD1D9B151454C
:1054500033D1002C06DD002DA1BF0020514618B02D
:10546000BDE8F08D002C01DD002D1BDB002C13DAD4
:10547000002D11DB012A4FF0000014BF78497C4950
:1054800018B0BDE8F08D022A18BF002C0AD0012AFE
:1054900008D1002C06DA0AE0002CB8BF002D11DA82
:1054A000012A04D0002018B00146BDE8F08D18B0E4
:1054B00000204FF00041BDE8F08DA1F14050B0F167
:1054C0007F601AD0012000EBE47050EA020421D082
:1054D000624C521E4FF0000B104304BF4FF0000B04
:1054E000644C654883427CDD644A654893421FDD15
:1054F000884217DB002D25DB37E0002C00DA4AB1AB
:10550000022A0CBF01204FF0FF3018B0BDE8F04D6B
:1055100000F014BE0120FEF72CFC18B0BDE8F04DE1
:10552000FFF76ABE4D4A8A4202DC002D0ADC1CE00D
:10553000814202DA002D18DA04E0484B994220DD5E
:10554000002D12DD0220FEF714FCFFF75BFE05467E
:105550000E46002253465846214600F043FE18B03E
:1055600066F31E012846BDE8F08D0220FEF701FC1F
:10557000FFF750FE0A46214618B062F31E01BDE84F
:10558000F08D00223046614601F052F880460E460A
:105590006FF0010201F0F9F94FF05532394B00F08C
:1055A00055FF4246334600F01DFE0022364B00F008
:1055B0004DFF82464246334604911046194600F09C
:1055C00011FE5246049B00F00DFE8A4600904FF0FB
:1055D000C0422E4B4046314600F004FE2C4A2B4B75
:1055E00000E027E0CDE906015146009800F0FAFD01
:1055F00082460191274A284B4046314600F0F2FD91
:105600005246019B01F014F882460B460246059172
:10561000DDE9060100F07EFBDDE906230026884671
:10562000304601F005F85246059B00F00FFF024698
:1056300000F07EB90020B1F5801F07DA3522304630
:10564000614601F0A2F906466FF0340000EB2150EC
:1056500024E00000FFFF1F00FFFF0F000000F03FED
:105660000000F07F0000404301FCFFFFB61F000078
:105670000000F0FF0000F0BF0000E0410000F04338
:10568000FFFFEF3F5555D53F0000E03F4715F73F7F
:10569000FE822B6544DF5DF80BAE543EA0F2FF3076
:1056A0000190C1F3130040F07F6141F0405102913D
:1056B000FE498842D8BF002004DDFD498142C8BFB1
:1056C000012001DD0D9008E000200D900198401CA4
:1056D00001900298A0F5801002900299F548784454
:1056E0000B910D9900EBC100D0E900230F933046D8
:1056F0000A920B9900F09CFFCDE90601DDE90A2131
:1057000030460F9B00F006FB02460B460020EA499C
:1057100000F0BCFB059102460B460090DDE9060156
:1057200000F060FD1490E5488A464FF00008784488
:105730000299006812904FF0005040EA61010D9804
:105740000F9B01EB804000F5002109910A9A129805
:1057500000F06EFF32460B9B00F078FE4246534647
:1057600000F040FD0646029140465146099B129AC0
:1057700000F038FDDDE9062300F068FE3246029BAA
:1057800000F056FF059B009A00F02CFD0091149A42
:10579000049053461046194600F024FD0646024682
:1057A000C7480B46029106217844FFF7C5FCCDE9B6
:1057B0000510029B32461046194600F013FDDDE944
:1057C000053200F00FFD0591064653464046194646
:1057D000149A00F09FFA009B049A00F003FD3246F1
:1057E000059B00F097FACDE9051042465346104656
:1057F000194600F0F7FC0022B24B02910A9000F02B
:1058000089FADDE9053200F085FA0E464246AD4BD5
:10581000404600F00DFF029B0A9A00F009FFDDE907
:10582000053200F013FE424602910A9033461046BC
:10583000514600F0D7FCCDE906015346149A02996F
:105840000A9800F0CFFC8A460290334642460099FF
:10585000049800F0C7FC5346029A00F05BFA8246B7
:105860000B4602460591DDE9060100F053FADDE939
:10587000062300208846064600F0DAFE5246059BC5
:1058800000F0E4FD824609914FF060428E4B3046B5
:10589000414600F0A7FC049006918C4A8A4B504682
:1058A000099900F09FFC82460291894A894B304653
:1058B000414600F097FC5246029B00F02BFA864BC3
:1058C0007B440D9A03EBC203D3E9002300F022FAD4
:1058D0000E900791019800F031FC0591DDE9061367
:1058E00082460E9A049800F015FA7C4A7A440D9B81
:1058F00002EBC303D3E900230093029200F00AFAFB
:105900005246059B00F006FA00268846524630466D
:10591000059B00F08DFE009B029A00F089FE069B1D
:10592000049A00F085FE079B0E9A00F08FFD024658
:1059300000200B4602903846294600F053FC824670
:1059400001912B4638461946029A00F071FE324604
:10595000434600F047FC5246019B00F0DBF9074646
:105960008A46324643462946029800F03BFC0546EB
:105970000E463A46534600F0CDF9594A88469142C0
:1059800021DBA8EB020353EA000210D12A4633467A
:1059900000F04EFECDE90401524A534B38465146C1
:1059A00000F0B8F9DDE9042300F01AFD21D202204D
:1059B000FEF7DFF9FFF726FC0A46214618B062F32E
:1059C0001E01BDE8F08D494B28F000429A4210D3E9
:1059D000474A08EB020353EA00027FF4C6AD2A46A9
:1059E000334600F025FE3A46534600F0F9FC7FF6B8
:1059F000BCAD0022019228F000403E493E4A01EB36
:105A00002051824223DA481C4FF4801121FA00F021
:105A100040443A4AC0F30A517A44394BA1F2FF316B
:105A2000CB4020EA0303C0F3130040F48010C1F11F
:105A30001401C84012680190B8F1000FBCBF404289
:105A400001902846314600F0F3FD05460E462A46F1
:105A500033463846514600F05DF94FF000084246A3
:105A6000284B4046059100F0BDFBCDE90601264AD2
:105A7000264B4046059900F0B5FB009102902A465E
:105A800033464046059900F0D3FD3A46534600F0B0
:105A9000DDFC1F4A1F4B00F0A5FB009B029A00F0A3
:105AA00039F90746884602460B4635E08E980300D2
:105AB0007AB60B00F61B00000000F03F361C000019
:105AC0005C1B00000000084009C7EE3FFD033ADC04
:105AD000F5015B14E02F3EBE341A0000F8190000F7
