:020000040800F2
:10000000E807002079020008D5280008D728000852
:10001000DB280008DF280008E328000800000000B3
:10002000000000000000000000000000E7280008B9
:10003000E928000800000000EB280008ED2800086F
:10004000930200089302000893020008930200083C
:10005000930200089302000893020008930200082C
:10006000930200089302000893020008930200081C
:10007000930200089302000893020008930200080C
:1000800093020008930200089302000893020008FC
:1000900093020008930200089302000893020008EC
:1000A00093020008930200089302000893020008DC
:1000B00093020008733800089302000893020008B6
:1000C00093020008930200089302000893020008BC
:1000D00093020008492C0008792C0008272D0008FD
:1000E000930200089302000893020008930200089C
:1000F000930200089302000893020008930200088C
:10010000930200089302000893020008930200087B
:10011000930200089302000893020008930200086B
:10012000930200089302000893020008930200085B
:1001300000F002F800F090F80AA090E8000C824469
:100140008344AAF10107DA4501D100F085F8AFF246
:10015000090EBAE80F0013F0010F18BFFB1A43F0A5
:1001600001031847A8630000C8630000103A24BFC9
:1001700078C878C1FAD8520724BF30C830C144BF0C
:1001800004680C607047000000230024002500264E
:10019000103A28BF78C1FBD8520728BF30C148BFEA
:1001A0000B6070476E2903F0F586702904F04782D2
:1001B000662905F0F984652905F0F684672905F0BC
:1001C000F3846129AFF3008003681B0A28BF41F064
:1001D0008001692903F0E284642903F0DF84752932
:1001E00003F0DC846F2904F0D481782904F01382B1
:1001F000E92904F06F81E42904F06C81F52904F009
:100200006981EF2904F0D181F82904F01282036892
:10021000DB0928BF41F08001632904F0E1827329E2
:1002200004F0E682E32904F0F182F32904F0F68277
:10023000002070471FB504F03FFA040000200021A1
:1002400004F0F8FF401C60600020002104F0DCFF97
:10025000E0601FBD10B510BD04F07AFB1146FFF73A
:10026000E9FF02F043FA04F0A1FB03B4FFF7F2FF49
:1002700003BC02F0B3FB000009488047094800476F
:10028000FEE7FEE7FEE7FEE7FEE7FEE7FEE7FEE746
:10029000FEE7FEE704480549054A064B70470000A3
:1002A0009703000831010008E8010020E80700205A
:1002B000E8030020E80300200CB500200190009026
:1002C0006C48006840F480306A49086000BF6948A3
:1002D000006800F4003000900198401C01900098E4
:1002E00018B90198B0F5A06FF1D16248006800F428
:1002F000003010B10120009001E000200090009833
:10030000012843D15C48006840F010005A49086059
:100310000846006820F0030008600846006840F0C6
:1003200002000860534840685249486008464068E7
:1003300048600846406840F480604860084640686D
:1003400020F47C1048600846406840F4E81048609B
:100350000846006840F08070086000BF45480068AB
:1003600000F000700028F9D04248406820F00300F7
:10037000404948600846406840F00200486000BFBD
:100380003C48406800F00C000828F9D10CBD10B5BD
:10039000FFF792FF10BD10B53648006840F001002D
:1003A000344908600846406834490840314948608B
:1003B00008460068324908402E490860084600682F
:1003C00020F4802008600846406820F4FE00486061
:1003D0004FF41F008860FFF7DAFF4FF000602949F3
:1003E000086010BD10B5002100200022214B5B6881
:1003F00003F00C0121B1042906D0082928D107E017
:10040000214B224C236027E01F4B204C236023E02C
:10041000184B5B6803F47010164B5B6803F4803272
:10042000022303EB904022B9194B4343174C23603E
:100430000DE0104B5B6803F4003323B1144B4343CE
:10044000124C236003E0104B4343104C236003E045
:100450000D4B0E4C236000BF00BF064B5B68C3F31F
:1004600003130C4CE15C094B1B68CB40074C236029
:1004700010BD000000100240002002400000FFF804
:10048000FFFFF6FE08ED00E000127A0000000020F9
:1004900000093D000400002031490143314A116048
:1004A000704770B5002100230F22C47804B32D4C8F
:1004B000246804F4E064C4F5E064210AC1F1040393
:1004C000CA40447804FA03F18478144021430901B6
:1004D000254C0678A155047804F01F050124AC4092
:1004E00005786D11AD0005F1E025C5F8004109E082
:1004F000047804F01F050124AC401C4D06787611E9
:1005000045F8264070BD1A4A0A400243154B1B1F8E
:100510001A60704739B1134A121D12680243114B19
:100520001B1D1A6006E00F4A121D126882430D4B14
:100530001B1D1A607047042808D14FF0E02109699B
:1005400041F004014FF0E022116107E04FF0E0219B
:10055000096921F004014FF0E022116170470000A9
:100560000000FA050CED00E000E400E080E100E0AE
:1005700080FFFF1F10B50446FA48844208D10121CC
:10058000401500F057FF0021601500F053FF17E001
:10059000F548844208D10121001500F04BFF0021ED
:1005A000201500F047FF0BE0F048844208D10121FC
:1005B000C80300F03FFF00214FF4004000F03AFF75
:1005C00010BD30B50246002000235068E84C2040A2
:1005D0000D790C6844EA0524204350609068E54C8E
:1005E0002040D1E902542C434D7944EA450420438C
:1005F0009060D06A20F470000C7C641EE4B2234347
:1006000040EA0350D06230BD0021016001714171A8
:100610008160C16001210174704721B1826842F09C
:100620000102826003E0826822F00102826070476A
:1006300021B1826842F48072826003E0826822F411
:1006400080728260704710B50023CBB21AB1446843
:100650001C43446002E044689C43446010BD8168D0
:1006600041F0080181607047014600208A6802F06D
:1006700008020AB1012000E000207047816841F0C3
:10068000040181607047014600208A6802F004027C
:100690000AB1012000E00020704721B1826842F4D5
:1006A000A002826003E0826822F4A00282607047A8
:1006B000014600208A6802F480020AB1012000E0AD
:1006C0000020704710B50A4600210023416821F43C
:1006D0006041531E41EA4331416010BD21B142687F
:1006E00042F40062426003E0426822F40062426029
:1006F0007047F0B504460D4600200021092D11DD9C
:10070000E068A5F10A0606EB4607072606FA07F198
:100710008843A5F10A0606EB460603FA06F10843EC
:10072000E0600CE0206905EB4507072606FA07F1B3
:10073000884305EB450603FA06F108432061072AC2
:100740000FDA606B561E06EB86071F2606FA07F1C6
:100750008843561E06EB860605FA06F108436063D9
:1007600022E00D2A0FDA206BD61F06EB86071F2624
:1007700006FA07F18843D61F06EB860605FA06F14E
:100780000843206310E0E06AA2F10D0606EB86073D
:100790001F2606FA07F18843A2F10D0606EB86062E
:1007A00005FA06F10843E062F0BD21B1826842F427
:1007B0008012826003E0826822F4801282607047B7
:1007C0000146C86C80B2704766484C30006870477C
:1007D00021B1426842F48062426003E0426822F440
:1007E00080624260704721B1426842F480524260A8
:1007F00003E0426822F48052426070470A460021BA
:10080000816821F4E04111438160704721B1826821
:1008100042F40042826003E0826822F40042826077
:10082000704721B1826842F40212826003E082685C
:1008300022F4021282607047014600208A6802F4A6
:1008400000120AB1012000E000207047F0B5044614
:100850001546002000220026092911DDE068A1F1DB
:100860000A0707EB470C072707FA0CF29043A1F1A0
:100870000A0707EB470703FA07F21043E0600CE0B2
:10088000206901EB410C072707FA0CF2904301EBBA
:10089000410703FA07F210432061A06BC0F3015631
:1008A000EF1C06F1010CA7EB0C0707EB870C1F27C9
:1008B00007FA0CF29043EF1C06F1010CA7EB0C07B2
:1008C00007EB870701FA07F21043A063F0BD10B5EC
:1008D0000A4600210023816B21F44011531E41EA96
:1008E0000351816310BD08B5002300930090009B65
:1008F0000B440093009B1A6008BD08B50246002017
:100900000090009201F12800009B1844009000988C
:10091000006880B208BD0A4600214168164B1940A4
:100920001143416070474162826270470A4600216C
:10093000416821F01F0111434160704740B10949EE
:100940000831096841F40001064A0832116007E0E5
:1009500004490831096821F40001024A0832116093
:10096000704700000024014000280140003C014085
:10097000FFFEF0FFFDF7F1FFFFFD3FFF0246002005
:1009800013680B400BB1012000E000207047CA4300
:100990000260704770B502460020002300240B124D
:1009A0005568CEB205EA060415681D4015B10CB1B4
:1009B000012000E0002070BD00220A12D343036032
:1009C0007047000010B50446CC48844208D101218C
:1009D000042000F02FFD0021042000F02BFD46E054
:1009E000C748844208D10121082000F023FD0021DE
:1009F000082000F01FFD3AE0C248844208D10121DE
:100A0000102000F017FD0021102000F013FD2EE053
:100A1000BD48844208D10121202000F00BFD0021B7
:100A2000202000F007FD22E0B848844208D10121CF
:100A3000402000F0FFFC0021402000F0FBFC16E00D
:100A4000B348844208D10121802000F0F3FC00214A
:100A5000802000F0EFFC0AE0AE48844207D101217B
:100A6000801500F0E7FC0021A01500F0E3FC10BDAC
:100A700010B50121084600F0DDFC0021012000F046
:100A8000D9FC10BD2DE9F0410246002500260020CA
:100A900000230024002791F803C00CF00F0591F803
:100AA00003C00CF0100CBCF1000F03D091F802C091
:100AB0004CEA050591F800C0BCF1000F31D0146874
:100AC00000202BE04FF0010C0CFA00F3B1F800C04D
:100AD0000CEA03069E4220D183004FF00F0C0CFA63
:100AE00003F7BC4305FA03FC4CEA040491F803C085
:100AF000BCF1280F06D14FF0010C0CFA00FCC2F833
:100B000014C00AE091F803C0BCF1480F05D14FF0C2
:100B1000010C0CFA00FCC2F810C0401C0828D1D30C
:100B20001460B1F800C0BCF1FF0F34DD5468002040
:100B30002EE000F1080C4FF0010808FA0CF3B1F8B0
:100B400000C00CEA03069E4221D183004FF00F0C37
:100B50000CFA03F7BC4305FA03FC4CEA040491F8D1
:100B600003C0BCF1280F05D100F1080C08FA0CF8FD
:100B7000C2F8148091F803C0BCF1480F07D100F10E
:100B8000080C4FF0010808FA0CF8C2F81080401C5D
:100B90000828CED35460BDE8F0814FF6FF71018084
:100BA000022181700421C1707047024600209368C1
:100BB0000B400BB1012000E000207047014688681F
:100BC00080B2704702460020D3680B400BB1012071
:100BD00000E0002070470146C86880B2704701619C
:100BE0007047416170470AB1016100E0416170479F
:100BF000C16070474FF480320A4382618161826133
:100C000082698269704702460020434B18684FF69C
:100C10008073184040EA021008433F4B1860704749
:100C20003E49C8617047F0B50A4600230024002100
:100C3000002500F00046B6F1004F02D1364EF169B2
:100C400001E0354E7168C0F3034583B200F44016ED
:100C5000B6F5401F08D121F070612F4E766826F05E
:100C600070662D4F7E6012E000F48016B6F5801F8E
:100C700006D1032606FA05F4A14341F0706106E0AF
:100C8000460D360103FA06F6B14341F0706122B118
:100C9000460D360103FA06F6314300F00046B6F180
:100CA000004F02D11C4EF16101E01B4E7160F0BD9E
:100CB00030B500228B071C0F0F2303FA04F2164BEA
:100CC00008338C1053F824309343134C08348D10A0
:100CD00044F8253023468C1053F824308C07240F19
:100CE00000FA04F423430C4C08348D1044F82530EA
:100CF00030BD0A49DC31086070470000000801403F
:100D0000000C014000100140001401400018014097
:100D1000001C014000200140000001400000204272
:100D200010B50446F748844209D10121480500F076
:100D30008EFB00214FF4001000F089FB08E0012138
:100D4000880500F084FB00214FF4800000F07FFB59
:100D500010BD2DE9F04385B004460D460026B1468E
:100D60000427DFF8A483A6884FF6C07006406846C3
:100D700000F0D9FADDF80880E448B8FBF0F01FFA7B
:100D800080F946EA0906A68020884FF6FE710840E1
:100D900020800026DE49286888420CD82868400058
:100DA000B8FBF0F087B2042F00DA04273E4309F1C4
:100DB0000100208427E0E8884BF6FF71884206D1C5
:100DC000286800EB4000B8FBF0F087B209E0286823
:100DD00000EBC00101EB0010B8FBF0F087B247F464
:100DE0008047C7F30B0008B947F0010747F40040FC
:100DF00006434FF4967009FB00F04FF47A7190FBB4
:100E0000F1F0401C2084A683208840F0010020805F
:100E100026884FF6F5300640A888698908430643BE
:100E20002680A88929890843208105B0BDE8F08380
:100E300041F288310160002181804BF6FF71C18051
:100E40000021018141814FF480418181704721B1AE
:100E5000028842F00102028004E002884FF6FE732D
:100E60001A400280704721B1828842F40062828079
:100E700004E082884FF2FF731A408280704721B1EC
:100E8000828842F48052828004E082884EF6FF73AA
:100E90001A408280704721B1028842F48072028039
:100EA00004E002884FF6FF631A400280704721B1C8
:100EB000028842F40072028004E002884FF6FF5379
:100EC0001A400280704721B1028842F48062028099
:100ED00004E002884FF6FF331A40028070470A464A
:100EE000002181894FF60173194002F0FE03194376
:100EF0008181704721B1828942F00102828104E040
:100F000082894FF6FE731A408281704721B10288B0
:100F100042F04002028004E002884FF6BF731A409C
:100F2000028070471AB183880B43838002E0838874
:100F30008B4383807047018270470146088AC0B2A4
:100F4000704712B141F0010102E04FF6FE73194003
:100F50000182704708B50246002000900092009878
:100F6000084400900098008808BD21B1028842F42E
:100F70000042028003E00288C2F30E020280704742
:100F8000B1F5006F04D1028842F40062028004E0EF
:100F900002884FF2FF731A4002807047B1F5005F7C
:100FA00004D1028842F40052028004E002884DF627
:100FB000FF731A400280704721B1028842F48052C8
:100FC000028004E002884EF6FF731A4002807047E8
:100FD000B1F5006F04D1028842F40062028004E09F
:100FE00002884FF2FF731A400280704721B10288D5
:100FF00042F02002028004E002884FF6DF731A40BC
:10100000028070470146088B0012704721B10288A8
:1010100042F01002028004E002884FF6EF731A409B
:101020000280704721B9028842F08002028004E009
:1010300002884FF67F731A4002807047B1F5804FE7
:1010400005D0828B4BF6FF731A40828303E0828BBC
:1010500042F480428283704770B502460024002526
:1010600000230020958A138B1B0445EA030626F013
:101070007F4404EA01068E4201D1012000E00020F5
:1010800070BD10B501460020002300228B8A0A8B18
:10109000120443EA020424F07F4010BD0CB502465E
:1010A000002000230193009300920B0F019321F085
:1010B0007F41019B1BB1009B1433009303E0090C9B
:1010C000009B18330093009B1B680B400BB1012061
:1010D00000E000200CBD002221F07F42D343838238
:1010E000704730B5024600200023948801F0E06587
:1010F00004EA154321F07F41948A0C4054B14BB16E
:10110000012008E00054004000127A0040420F0025
:10111000A0860100002030BD002221F07F42D34391
:1011200083827047DF48006840F00100DD490860B5
:1011300008464068DC490840DA49486008460068CB
:10114000DA490840D74908600846006820F4802042
:1011500008600846406820F4FE0048604FF41F0015
:1011600088607047CF49096821F48031CD4A116009
:101170001146096821F480211160B0F5803F03D049
:10118000B0F5802F0ED106E0C649096841F48031E0
:10119000C44A116007E0C349096841F4A021C14A6B
:1011A000116000E000BF00BF704710B5014600228B
:1011B000002300204A11012A02D1BA4C236806E01C
:1011C000022A02D1B74C236A01E0B64C636A01F0EF
:1011D0001F02012494401C400CB1012000E00020BB
:1011E00010BD38B5002000900024002500BF31203C
:1011F000FFF7DBFF05460098401C00900098B0F513
:10120000A06F01D0002DF2D03120FFF7CEFF08B142
:10121000012400E00024204638BD01460020A14AF8
:10122000106820F0F80040EAC10010607047A04943
:1012300008607047024600209A4B586820F47C10E2
:1012400042EA01031843974B586070479849086673
:10125000704701460020934A506820F0030008437D
:10126000506070478F48406800F00C00704701469E
:1012700000208C4A506820F0F0000843506070470E
:1012800001460020874A506820F4E060084350601F
:10129000704701460020834A506820F4605040EABD
:1012A000C1005060704729B17E4A527A02437D4B9B
:1012B0005A7204E07B4A527A82437A4B5A727047E0
:1012C0007B49D8310860704701460020754A506854
:1012D00020F440400843506070470021714A20329A
:1012E0001170704A82F82010012802D004280AD117
:1012F00004E001216B4A2032117005E00521694AA2
:101300002032117000E000BF00BF704769490860DB
:1013100070476449096A0143624A1162704765492E
:1013200044390860704730B50021002200240023B2
:101330005C4D6D6805F00C0121B1042905D0082928
:1013400023D105E05C4D056022E05B4D05601FE0A8
:10135000544D6D6805F47012524D6D6805F480347B
:10136000022505EB92421CB9544D554305600BE034
:101370004C4D6D6805F400351DB1504D5543056069
:1013800002E04D4D5543056002E04B4D056000BF46
:1013900000BF444D6D6805F0F0010909484D6B5CD4
:1013A0000568DD4045603F4D6D6805F4E061090A60
:1013B000434D6B5C4568DD4085603A4D6D6805F4D2
:1013C0006051C90A3E4D6B5C4568DD40C560354DD6
:1013D0006D6805F44041890B3A4D6B5CC568B5FBFF
:1013E000F3F5056130BD29B12E4A526902432D4BF8
:1013F0005A6104E02B4A526982432A4B5A61704772
:1014000029B1284A92690243264B9A6104E0254A91
:1014100092698243234B9A61704729B1214AD2696C
:101420000243204BDA6104E01E4AD26982431D4B1D
:10143000DA61704729B11B4AD2680243194BDA605E
:1014400004E0184AD2688243164BDA60704729B12B
:10145000144A12690243134B1A6104E0114A1269DB
:101460008243104B1A617047124940390860704737
:101470000F49C86470470B49C87170470948406AF2
:1014800040F0807007494862704701460020054AD5
:1014900092680A400AB1012000E00020704701492B
:1014A00088727047001002400000FFF8FFFFF6FE50
:1014B000000042428004424200127A0000093D00CE
:1014C000140000202400002010B50446FE48844289
:1014D00008D10121C014FFF7ADFF0021E014FFF790
:1014E000A9FFC4E0B4F1804F08D101210846FFF7FD
:1014F000AEFF00210120FFF7AAFFB8E0F3488442C5
:1015000008D101210220FFF7A2FF00210220FFF7EE
:101510009EFFACE0EE48844208D101210420FFF791
:1015200096FF00210420FFF792FFA0E0E9488442E3
:1015300008D101210820FFF78AFF00210820FFF7CA
:1015400086FF94E0E448844208D101211020FFF78F
:101550007EFF00211020FFF77AFF88E0DF488442F9
:1015600008D101212020FFF772FF00212020FFF782
:101570006EFF7CE0DA48844208D101214014FFF775
:1015800059FF00216014FFF755FF70E0D5488442F1
:1015900009D10121C804FFF74DFF00214FF40020BD
:1015A000FFF748FF63E0D048844209D101210805D4
:1015B000FFF740FF00214FF48010FFF73BFF56E09C
:1015C000CA48844209D101214805FFF733FF0021B1
:1015D0004FF40010FFF72EFF49E0C548844208D1C0
:1015E00001214020FFF733FF00214020FFF72FFFAC
:1015F0003DE0C048844208D101218020FFF727FF49
:1016000000218020FFF723FF31E0BB48844208D14E
:1016100001218015FFF71BFF0021A015FFF717FF21
:1016200025E0B648844209D101210804FFF702FFF2
:1016300000214FF48030FFF7FDFE18E0B0488442EF
:1016400009D101214804FFF7F5FE00214FF40030D5
:10165000FFF7F0FE0BE0AB48844208D1012188047B
:10166000FFF7E8FE00214FF48020FFF7E3FE10BDF6
:1016700000220288944B98420ED0994B98420BD08E
:10168000B0F1804F08D0914B984205D0904B9842D2
:1016900002D0904B984204D14FF68F731A404B887A
:1016A0001A438D4B984207D08C4B984204D04FF68A
:1016B000FF431A40CB881A4302808B8883850B88AE
:1016C0000385814B98420BD0854B984208D08B4BB9
:1016D000984205D08A4B984202D08A4B984201D159
:1016E0000B7A038601238382704770B500240022A1
:1016F0000023058C4FF6FE7635400584028C8388E6
:10170000048B4FF68F752C40B51E2C400D882C4352
:10171000751E2A400D892A434D882A436A4DA842E6
:101720000BD06F4DA84208D0744DA84205D0744D1F
:10173000A84202D0734DA84213D14FF6F7752A4044
:101740004D892A434FF6FB752A408D882A434FF670
:10175000FF652B404FF6FF552B408D892B43CD89DC
:101760002B4383800483CD888586028470BD70B549
:10177000002400220023058C4FF6EF7635400584C7
:10178000028C8388048B48F6FF752C404FF6FF458A
:101790002C400D884FF6FF7606EA05252C434FF6C0
:1017A000DF752A400D8906EA05152A434D8806EAA9
:1017B00005152A43444DA84202D0494DA8421DD1E7
:1017C0004FF67F752A404D894FF6FF7606EA0515DC
:1017D0002A434FF6BF752A408D8806EA05152A432D
:1017E0004FF6FF352B404FF2FF752B408D8906EAEF
:1017F00085052B43CD8906EA85052B438380048329
:10180000CD880587028470BD70B5002400220023B6
:10181000058C4FF6FF6635400584028C8388848BE7
:101820004FF68F752C404FF6FC752C400D882C43DD
:101830004FF6FF552A400D894FF6FF7606EA05253B
:101840002A434D8806EA05252A431F4DA84202D0A7
:10185000234DA8421DD14FF2FF752A404D894FF606
:10186000FF7606EA05252A434FF6FF352A408D8884
:1018700006EA05252A434EF6FF752B404DF6FF7507
:101880002B408D8906EA05152B43CD8906EA0515FF
:101890002B4383808483CD888587028470BD70B597
:1018A000002200230024058C4EF6FF763540058487
:1018B000038C8488828B48F6FF752A404FF6FF45DB
:1018C0002A400D8820E00000002C01400004004068
:1018D00000080040000C00400010004000140040D0
:1018E00000340140004C01400050014000540140D0
:1018F00000180040001C0040002000400040014053
:1019000000440140004801404FF6FF7606EA0525F5
:101910002A434DF6FF752B400D8906EA05352B430A
:101920004D8806EA05352B43FA4DA84202D0FA4D00
:10193000A84208D14BF6FF752C408D894FF6FF76F3
:1019400006EA85152C4384808283CD88A0F8405018
:10195000038470BD828B4FF2FF331A408283828BE7
:101960004FF6FF7303EA01231A4382837047F0B5F1
:101970000C461546002200210026078C4EF6FF7CFF
:1019800007EA0C070784828B018C4FF6FF7707EA82
:10199000043640F6FF473A404FF6FF7707EA05273F
:1019A0003A434FF6FF7707EA03373A43D94FB84235
:1019B0000ED0D94FB8420BD0B0F1804F08D0D74FDE
:1019C000B84205D0D64FB84202D0D64FB84206D161
:1019D0004DF6FF77394046F48057394305E047F626
:1019E000FF57394044F48057394382830184F0BD66
:1019F000828B4FF6F3731A408283828B0A43828371
:101A00007047F0B50C461546002200210026078CD1
:101A10004FF6FF6C07EA0C070784828B018C4FF6A8
:101A2000FF7707EA04264FF60C773A404FF6FF7728
:101A300007EA03172F433A43B64FB8420ED0B64FCA
:101A4000B8420BD0B0F1804F08D0B44FB84205D0A7
:101A5000B34FB84202D0B34FB84206D14FF6FF574A
:101A6000394046F48077394305E04FF2FF5739405B
:101A700044F48077394382830184F0BD028B4FF2B6
:101A8000FF331A400283028B4FF6FF7303EA0123F0
:101A90001A4302837047F0B50C4615460022002118
:101AA0000026078C4FF6EF7C07EA0C070784028BB1
:101AB000018C4FF6FF7707EA041640F6FF473A40DD
:101AC0004FF6FF7707EA03373A434FF6FF7707EA07
:101AD00005273A438F4FB8420ED08F4FB8420BD0F4
:101AE000B0F1804F08D08D4FB84205D08C4FB8422E
:101AF00002D08C4FB84206D14FF6DF77394046F01E
:101B00001007394305E04FF65F77394044F010077E
:101B1000394302830184F0BD028B4FF6F3731A4000
:101B20000283028B0A4302837047F0B50C461546C8
:101B300000220021068C4FF6FE773E400684028B81
:101B4000018C4FF60C7632407E1C06EA03162E43BB
:101B50003243704EB0420ED06F4EB0420BD0B0F157
:101B6000804F08D06D4EB04205D06D4EB04202D0CD
:101B70006C4EB04206D14FF6FD76314044F001067E
:101B8000314305E04FF6F576314044F0010631432C
:101B900002830184F0BD70B505460C465D48854260
:101BA0000ED05D4885420BD0B5F1804F08D05B4820
:101BB000854205D05A48854202D05A48854200D114
:101BC00000E000BF208850B92389A2886188284698
:101BD000FFF7ABFFE1882846FFF79EFF25E020884E
:101BE00004280AD12389A28861882846FFF753FF79
:101BF000E1882846FFF742FF17E0208808280AD12D
:101C00002389A28861882846FFF7FBFEE1882846E1
:101C1000FFF7EEFE09E02389A28861882846FFF7D6
:101C2000A6FEE1882846FFF795FE70BD2DE9F0413C
:101C300005460C4600260127608808B9022600E008
:101C40000026A088012801D1022700E00127208872
:101C5000A0B92389A28861882846FFF766FFE1883A
:101C60002846FFF759FF23893A4631462846FFF7B1
:101C700012FFE1882846FFF701FF13E02389A288BD
:101C800061882846FFF707FFE1882846FFF7F6FE40
:101C900023893A4631462846FFF747FFE188284620
:101CA000FFF73AFFBDE8F0810A884B881A438B881A
:101CB0001A43CB881A430B891A434B891A438B89E1
:101CC0001A43A0F8442070474FF6FF71818000212D
:101CD0000180C180418001727047002101804180F4
:101CE0008180C180018141818181C1817047002152
:101CF00001804180012181800021C18001817047E4
:101D00000021018041808180C180018141818181E8
:101D100070470000002C01400034014000040040E6
:101D200000080040000C004021B1028842F001028E
:101D3000028004E002884FF6FE731A40028070476A
:101D400031B1B0F8442042F40042A0F8442005E04C
:101D5000B0F84420C2F30E02A0F8442070471AB134
:101D600083890B43838102E083898B43838170479E
:101D70008182704741EA0203A0F8483070471AB1E7
:101D800083890B43838102E083898B43838170477E
:101D900001894FF6F8721140018170470A4600210F
:101DA00001894FF68F73194011430181704730B597
:101DB00004460D4629462046FFF7F0FF208940F0F3
:101DC0000700208130BD2DE9F04104460D4616463E
:101DD0001F46602D06D13B46012231462046FFF7C3
:101DE0005AFE05E03B46012231462046FFF79DFEA4
:101DF00029462046FFF7D2FF208940F007002081C6
:101E0000BDE8F08130B50C4600210189C9B24FF61A
:101E1000FF7505EA0325154325432943018130BD9C
:101E20002DE9F04105460E461746984600244346E4
:101E30003A4631462846FFF7E5FF2C894FF6F87001
:101E4000044044F007044FF68F70044044F07004DF
:101E50002C81BDE8F081F0B504460D4616461F46BC
:101E60003B46324629462046FFF7CCFF208940F406
:101E700080402081F0BD0185828270470A460021A2
:101E800001884FF68F731940114301807047F0B5F8
:101E90000C4615461E460021002200230189028BB4
:101EA000038C4FF6F877394021434FF6FC473A4010
:101EB00040F201173A434FF6DD773B404FF6FF778C
:101EC00007EA06172F433B43018102830384F0BDD9
:101ED0000A460021018B4FF68F731940114301838D
:101EE00070470A460021018B48F6FF7319404FF6F0
:101EF000FF7303EA02231943018370470A46002156
:101F0000818B4FF68F7319401143818370470A46C6
:101F10000021818B48F6FF7319404FF6FF7303EAE7
:101F2000022319438183704721B1028842F0800265
:101F3000028004E002884FF67F731A4002807047E7
:101F400021B1828842F00402828004E082884FF648
:101F5000FB731A408280704721B1828842F00802E8
:101F6000828004E082884FF6F7731A4082807047BF
:101F700021B1828842F00102828004E082884FF61B
:101F8000FE731A40828070470A460021018B4FF68B
:101F9000F77319401143018370470A460021018BF2
:101FA0004FF2FF7319404FF6FF7303EA0223194300
:101FB000018370470A460021818B4FF6F773194061
:101FC0001143818370470A460021818B4FF2FF73D2
:101FD00019404FF6FF7303EA0223194381837047C8
:101FE0000A460021018B4FF6FB7319401143018310
:101FF00070470A460021018B4FF6FF3319404FF618
:10200000FF7303EA02231943018370470A46002144
:10201000818B4FF6FB7319401143818370470A4649
:102020000021818B4FF6FF3319404FF6FF7303EA0F
:1020300002231943818370470A460021018B4FF622
:102040007F7319401143018370470A460021018BB9
:10205000C1F30E014FF6FF7303EA02231943018314
:1020600070470A460021818B4FF67F731940114358
:10207000818370470A460021818BC1F30E014FF620
:10208000FF7303EA02231943818370470A46002144
:10209000018C4FF6FD7319401143018470470A46C5
:1020A0000021018C4FF6F7731940114301847047EA
:1020B0000A460021018C4FF6DF7319404FF6FF737B
:1020C00003EA02131943018470470A460021018C78
:1020D0004FF67F7319404FF6FF7303EA021319435B
:1020E000018470470A460021018C4FF6FF531940C6
:1020F0004FF6FF7303EA02231943018470470A462F
:102100000021018C4FF2FF7319404FF6FF7303EA71
:1021100002231943018470470A460021018C4DF6C1
:10212000FF7319404FF6FF7303EA0233194301842A
:10213000704730B5002301248C40A3B2048C9C432B
:102140000484048C02FA01F5ADB22C43048430BD42
:1021500030B5002304248C40A3B2048C9C43048437
:10216000048C02FA01F5ADB22C43048430BD70B585
:102170000346002000241846183001258D40ACB2DB
:102180001D8CA5431D8409B1082909D100EB61000C
:10219000056825F0700505600568154305600EE0CB
:1021A0000D1FC5F34E052844056825F4E04505607C
:1021B00005684FF6FF7606EA02263543056070BDD6
:1021C00021B1028842F00202028004E002884FF648
:1021D000FD731A400280704721B1028842F0040268
:1021E000028004E002884FF6FB731A4002807047B9
:1021F00021B1828842F08002828004E082884FF61A
:102200007F731A408280704702884FF6F7731A4036
:10221000028002880A430280704782884FF68F73DB
:102220001A40828082880A438280704702894FF672
:10223000F8731A40028102890A43028170470289B9
:102240004FF67F731A40028102890A430281704768
:102250008184704781857047818670470187704708
:1022600081877047A0F84010704702884FF6FF43FF
:102270001A40028002880A43028070470146888E15
:1022800070470146088F70470146888F70470146A6
:10229000B1F8400070470146888C70470146088DB0
:1022A000704702460020138A0B400BB1012000E06A
:1022B00000207047CA430282704730B502460020B2
:1022C00000230024158A05EA0103958905EA010423
:1022D00013B10CB1012000E0002030BDCA430282DE
:1022E0007047000010B50446FB48844209D1012123
:1022F0008803FFF79FF800214FF48040FFF79AF81A
:1023000032E0F648844209D101214804FFF79FF8E2
:1023100000214FF40030FFF79AF825E0F04884429E
:1023200009D101218804FFF792F800214FF48020A1
:10233000FFF78DF818E0EB48844209D10121C80469
:10234000FFF785F800214FF40020FFF780F80BE03D
:10235000E548844208D101210805FFF778F80021FB
:102360004FF48010FFF773F810BD2DE9F04786B0E9
:1023700005460E460024A24600BFA1460027B089AC
:1023800000B100BF2F462C8A4CF6FF700440F08845
:1023900004432C82AC894EF6F3100440B088318996
:1023A0000843718908430443AC81AC8A4FF6FF406F
:1023B0000440B0890443AC8201A8FEF7B4FFC648CC
:1023C000874202D1DDF810A001E0DDF80CA0A88959
:1023D00000F4004040B10AEBCA0000EB0A1031687B
:1023E0004900B0FBF1F807E00AEBCA0000EB0A1065
:1023F00031688900B0FBF1F86420B8FBF0F004010B
:102400002009642101FB1089A88900F4004040B133
:10241000322000EBC900B0FBF1F000F007000443EC
:1024200008E0322000EB09106421B0FBF1F000F06D
:102430000F0004432C8106B0BDE8F0874FF416511D
:10244000016000218180C18001810C214181002136
:102450008181704710B502460020108A4FF2FF03B9
:1024600018400B884C8823438C882343CC88234313
:102470001843108210BD0021018041808180C180FD
:10248000704721B1828942F40052828104E082893E
:102490004DF6FF731A4082817047F0B50346002461
:1024A00000260025002040F66A17B94200D100BF7F
:1024B0001846C1F3421401F01F06012707FA06F57A
:1024C000012C01D10C3004E0022C01D1103000E0CD
:1024D00014301AB107682F43076002E00768AF4362
:1024E0000760F0BD1AB1838A0B43838202E0838ABE
:1024F0008B4383827047028A4FF6F0731A40028240
:10250000028A0A430282704782894FF2FF731A409F
:10251000828182890A438281704721B1828942F097
:102520000202828104E082894FF6FD731A408281A3
:102530007047028A4FF6DF731A400282028A0A430A
:102540000282704721B1028A42F48042028204E092
:10255000028A4BF6FF731A4002827047C1F30802E9
:102560008280704701468888C0F3080070478189DF
:1025700041F0010181817047028BD2B20283028B4C
:1025800042EA012202837047028B02F47F420283F7
:10259000028B0A430283704721B1828A42F02002F3
:1025A000828204E0828A4FF6DF731A40828270478B
:1025B00021B1828A42F01002828204E0828A4FF6C0
:1025C000EF731A408282704721B1828A42F008027A
:1025D000828204E0828A4FF6F7731A408282704743
:1025E00021B1828942F40042828103E08289C2F3F0
:1025F0000E028281704721B1828A42F40062828297
:1026000004E0828A4FF2FF731A4082827047828A06
:102610004FF6FB731A408282828A0A438282704795
:1026200021B1828A42F00202828204E0828A4FF65D
:10263000FD731A408282704702460020B1F5007F88
:1026400000D100BF13880B400BB1012000E0002037
:10265000704701F40072B2F5007F00D100BFCA4399
:102660000280704770B50246002400230025002038
:1026700040F66A16B14200D100BFC1F3421501F025
:102680001F03012606FA03F3012D02D19689334078
:1026900006E0022D02D1168A334001E0968A3340CB
:1026A0000C12012606FA04F41688344013B10CB15A
:1026B000012000E0002070BD10B50022002340F68C
:1026C0006A14A14200D100BF0A1201249440A3B2AF
:1026D000DC43048010BD000000380140004400408D
:1026E00000480040004C00400050004008B500F099
:1026F00015FD00F0FDF800F02FFC00F0B5FD4FF4E3
:10270000165000F07AF94FF4165000F0C2F94FF469
:10271000165000F00EFA00F0CBFB41F61F4142F2DA
:102720000F7001F079F802234CA21946002000F046
:1027300023FE042000F03DF98FE04BA1002001F0C2
:102740001DF8012000F035F90FE000F088FD4FF48E
:10275000FA7000F00AF9022349A21946002000F09D
:102760000BFE4FF4FA7000F000F94A480078002898
:10277000EBD0484800780228E7D046480078012886
:102780006BD100F063FC04460120434908604349D3
:10279000C1F8B80100F093FC41A1002000F0EEFF69
:1027A00000F05DFD4EE04148006802F08BFF0746F7
:1027B00000223F4B02F02EFE054602F051FD8146FD
:1027C0003C48006802F07EFF07460022384B02F0CA
:1027D00021FE054602F044FD824637480094036816
:1027E000364849460268504600F000FF3448016808
:1027F0002848007800F022FB01F0C0F84FF4FA708E
:1028000000F0B3F801F0D9F82E480078C0EB401181
:10281000C1EB002028490968B1EB001F02D9022052
:102820001C49087000F0D8FB012802D10320194987
:10283000087018480078022803D01648007803284A
:1028400000D100E0AFE700BF00F045FC1EA1002072
:1028500000F094FF022000F0ACF86EE75374617250
:1028600074696E672E2E2E00C7EBCAB9D3C34150D0
:1028700050C1ACBDD3B2A2BFAACABCB3E4B5E70095
:102880005761697420666F7220636F6E6E65637442
:102890000000000047000020B40122420000224254
:1028A000BFAACABCB3E4B5E7000000005400002092
:1028B0000088C34050000020480000204C00002049
:1028C0005C0000203E000020BDE1CAF8B3E4B5E79B
:1028D00000000000704700BFFEE700BFFEE700BF3A
:1028E000FEE700BFFEE77047704770477047000083
:1028F00010B56FF00400FDF71EFE3448006834493F
:10290000B0FBF1F0334908700846007800EB400155
:10291000C1EBC0104FF6FF7101EAC0002E490880DC
:1029200010BD01462B4A12784A434FF0E0235A610A
:1029300000229A611A46126942F001021A6100BF30
:102940004FF0E022106900F001021AB100F4803269
:10295000002AF5D04FF0E022126922F001024FF078
:10296000E0231A6100229A61704701461A4A1288D0
:102970004A434FF0E0235A6100229A611A461269D5
:1029800042F001021A6100BF4FF0E022106900F02E
:1029900001021AB100F48032002AF5D04FF0E02293
:1029A000126922F001024FF0E0231A6100229A61BD
:1029B000704730B50446002505E04FF47A70FFF704
:1029C000D4FF681CC5B2A542F7D330BD000000207B
:1029D00000127A00280000202A000020014600BFD3
:1029E000704700BFF94A128802F04002002AF9D06D
:1029F000C2B2F64B1B1D1A80704710B586B0044654
:102A0000012144F20400FEF7FBFC4FF40070ADF826
:102A1000140003208DF8160018208DF8170005A962
:102A2000EB48FEF72FF84FF48060ADF81400042057
:102A30008DF8170005A9E648FEF724F825208DF843
:102A4000000003208DF801008DF8020001208DF8B0
:102A500003006846FDF725FD01940020ADF808004D
:102A6000ADF80A00ADF80C00ADF810000C20ADF880
:102A70000E0001A9D548FFF778FC012240F225514C
:102A8000D248FFF70AFD0121D048FFF7FAFC06B053
:102A900010BD10B586B0044601210420FEF7B0FC3D
:102AA00001214804FEF7B9FCCA48FFF71BFC1820B7
:102AB0008DF817000420ADF8140003208DF81600DF
:102AC00005A9C348FDF7DEFF04208DF81700082094
:102AD000ADF8140005A9BE48FDF7D4FF019400200D
:102AE000ADF810000C20ADF80E000020ADF80C0081
:102AF000ADF80A00ADF8080001A9B648FFF735FCAB
:102B00000121B448FFF7BDFC012240F22551B14834
:102B1000FFF7C3FC26208DF8000001208DF803008C
:102B20008DF801008DF802006846FDF7BAFC06B08A
:102B300010BD10B586B0044601210820FEF760FCE8
:102B400001218804FEF769FC4FF48060ADF81400A1
:102B500003208DF8160018208DF8170005A99E484F
:102B6000FDF790FF4FF40060ADF8140004208DF8DD
:102B7000170005A99848FDF785FF01940020ADF8DE
:102B800010000C20ADF80E000020ADF80C00ADF8E0
:102B90000A00ADF8080001A99048FFF7E6FB012103
:102BA0008E48FFF76EFC012240F225518B48FFF75B
:102BB00074FC27208DF8000001208DF80300002010
:102BC0008DF801008DF802006846FDF76AFC06B03A
:102BD00010BD0FB430B5CBB0054601AC50A8009085
:102BE00001A8009A4F9900F089FF002000900BE0A7
:102BF00014F8011B2846FFF7B1FC00BF402128460E
:102C0000FFF71AFD0028F9D020780028F0D14BB04A
:102C100030BC5DF814FB2DE9F04107460C46154623
:102C200000260DE014F8011B3846FFF797FC00BFA3
:102C300040213846FFF700FD0028F9D0701C86B20D
:102C4000AE42EFDBBDE8F08110B540F225515F48A0
:102C5000FFF708FD78B140F225515C48FFF72CFDE5
:102C60005A48FFF77FFCC4B221465C48FFF776FC68
:102C700000205B49088010BD10B540F22551554831
:102C8000FFF7F0FC00284DD020215248FFF7E1FC6F
:102C90005048FFF767FCC4B221464E48FFF75EFC80
:102CA0005048007840B92A2C02D101204D490870C3
:102CB00000204D49087035E04B4800780F2803DAB2
:102CC0004A4849490978445447480078401C4649D5
:102CD0000870232C26D145480078312802D03228AC
:102CE0001AD118E041484078312808D101204049E4
:102CF00008703E48807830383E4908700AE03B480A
:102D00004078322803D102203949087002E00020BF
:102D10003749087000E000BF00BF0020314908704B
:102D20003149087010BD10B540F225512B48FFF70E
:102D300099FC00286ED03048007830490870274848
:102D4000FFF710FC2C490870084601782148FFF76E
:102D500005FC2B480078C0B928480078012814D118
:102D600025480078032810D12448007825490870A8
:102D7000214800784870012021490870022022492A
:102D8000087000202149086053E01D4800780128A0
:102D90004FD11D48007802280BD117480078401DFC
:102DA0001B49087008460078282802DD00201449D5
:102DB0000870154800781649097888422BDA0E48C1
:102DC00000781049104A127888542DE000380140EC
:102DD0000008014000440040000C01400048004051
:102DE0003C000020400000203F000020580100204F
:102DF000470000203E000020450000204400002045
:102E0000460000206800002043000020B401224258
:102E10002D00002011E00120134908700020134903
:102E2000087001201249086012480078401C1149BE
:102E3000087020211048FFF70CFC10BD2DE9FC475D
:102E400004468946484602F03DFC074600220B4BEB
:102E500002F0E0FA2246CDE9000109A10B48FFF794
:102E6000B8FEBDE8FC8700002C00002046000020D2
:102E7000B401224243000020004800400088C340C3
:102E8000533A25642C453A252E3466000044004010
:102E900008B501210420FEF7B3FA0320ADF80000C5
:102EA00000208DF8030069462948FDF7EBFD08BDB9
:102EB00000B585B0FFF7ECFF01214802FEF7A0FA4C
:102EC000002000908DF804008DF805004FF460207C
:102ED00002900020039001208DF8100069461D48E3
:102EE000FDF76FFB4FF44040FEF7EEF90121194862
:102EF000FDF793FB1748FDF7B2FB00BF1548FDF740
:102F0000B3FB0028FAD11348FDF7B8FB00BF114806
:102F1000FDF7B9FB0028FAD105B000BD70B5044635
:102F2000002501231A4621460A48FDF7E2FB01214C
:102F30000848FDF7B2FB00BF02210648FDF71EFD61
:102F40000028F9D00348FDF73BFC0546284670BD34
:102F5000000801400024014008B501210420FEF7CB
:102F60004FFA01210820FEF74BFA01211020FEF74D
:102F700047FA8020ADF8000010208DF803000320F0
:102F80008DF8020069465A48FDF77CFD0320ADF834
:102F9000000004208DF8030003208DF8020069462C
:102FA0005448FDF76FFD4FF4C040ADF8000010200D
:102FB0008DF8030003208DF8020069464E48FDF7A6
:102FC00061FD00204D49086001204D49C1F8B40160
:102FD00000204C49086008BD7CB50020019000909D
:102FE000002613E04849096801AA88180178491C9D
:102FF00001704649D1F804116A4688180178491CC5
:1030000001701420FFF78DFC701CC6B2FA2EE9DBAC
:103010009DF804009DF80510884201DD002400E0C1
:1030200001249DF800009DF80110884201DD002573
:1030300000E001251CB9012D01D100207CBD012C2F
:1030400002D10DB90120F9E70220F7E770B500249D
:10305000002500260CE00020FFF760FF044401205B
:10306000FFF75CFF05441420FFF75BFC701C86B281
:10307000C82EF0DBC820B4FBF0F4B5FBF0F5A54298
:103080000ED9281BB0F5FA7F01D2002070BD0020B8
:103090001C49091F08601A49C1F8B8010220F5E768
:1030A000601BB0F5FA7F01D20020EFE7012015493F
:1030B000091F08601249C1F8B8010320E6E70120A2
:1030C0000E4908600020124908601249086001207A
:1030D000114908707047002008490860012008491C
:1030E000C1F8B4010020074908600B490870704717
:1030F00000080140000C0140001001409C012142E9
:1031000000002242B8012242008121420080214277
:10311000480000204C0000204700002000B585B08A
:1031200001214805FEF779F901210820FEF768F929
:10313000C020ADF8000003208DF802001C208DF89F
:1031400003006946FA48FDF79DFCFA48FDF7E8FDE3
:103150000020ADF808004BF6FF70ADF80A003020F3
:10316000ADF80C004FF48060ADF80E000001ADF832
:103170001000F14801900121EE48FDF768FE01A919
:10318000EC48FDF7E6FD05B000BD70B504460D4600
:1031900000BF4FF40031E748FDF780FF0028F8D169
:1031A0000121E448FDF777FE00BFE449E148FDF75F
:1031B00053FF0028F9D000227821DE48FDF7C1FE38
:1031C00000BFDF49DB48FDF747FF0028F9D0214663
:1031D000D848FDF7B0FE00BFD949891CD548FDF796
:1031E0003BFF0028F8D02946D248FDF7A4FE00BFD7
:1031F000D349891CCF48FDF72FFF0028F8D00121C3
:10320000CC48FDF754FE70BD10B5044621460020A1
:10321000FFF7BBFF10BD10B5044621464020FFF765
:10322000B4FF10BD70B50646002415E004F1B001EE
:10323000C8B2FFF7E9FF0020FFF7E6FF1020FFF715
:10324000E3FF002504E03046FFF7E5FF681CC5B248
:10325000802DF8DB601CC4B2082CE7DB70BD10B514
:103260000020FFF7DFFF10BD10B56420FFF77DFBE6
:10327000AE20FFF7C9FF2020FFF7C6FF1020FFF7A1
:10328000C3FFB020FFF7C0FFC820FFF7BDFF00203D
:10329000FFF7BAFF1020FFF7B7FF4020FFF7B4FF9A
:1032A0008120FFF7B1FFFF20FFF7AEFFA120FFF75E
:1032B000ABFFA620FFF7A8FFA820FFF7A5FF3F2040
:1032C000FFF7A2FFA420FFF79FFFD320FFF79CFF8B
:1032D0000020FFF799FFD520FFF796FFF020FFF7BA
:1032E00093FFD920FFF790FF2220FFF78DFFDA2010
:1032F000FFF78AFF1220FFF787FFDB20FFF784FF2D
:103300002020FFF781FF8D20FFF77EFF1420FFF7BD
:103310007BFFAF20FFF778FF0A20FFF726FBFFF7C0
:103320009EFF10BD70B504460D4605F1B001C8B250
:10333000FFF76AFF102141EA1410FFF765FF04F060
:103340000F0141F00100FFF75FFF70BD10B58D2048
:10335000FFF75AFF1420FFF757FFAF20FFF754FF86
:1033600010BD10B58D20FFF74FFF1020FFF74CFF69
:10337000AE20FFF749FF10BD2DE9F047064689460C
:1033800017469A464FF0000800240025BAF1010FB5
:1033900003D0BAF1020F5ED125E020E0785D20383D
:1033A00000F0FF087E2E04DD002609F1010000F088
:1033B000FF0949463046FFF7B5FF002409E008EB56
:1033C0004801604A02EB4101085DFFF724FF601CE1
:1033D000C4B2062CF3DBB01DC6B2681CC5B2785D62
:1033E0000028DBD137E032E0785D203800F0FF08BC
:1033F000782E04DD002609F1010000F0FF0949469E
:103400003046FFF78FFF002407E004EB08114E4A17
:10341000505CFFF700FF601CC4B2082CF5DB09F11B
:103420000100C1B23046FFF77DFF002408E004EB45
:1034300008110831444A505CFFF7EDFE601CC4B22D
:10344000082CF4DB06F10800C6B2681CC5B2785D32
:103450000028C9D100BF00BFBDE8F0872DE9F047C3
:1034600081460F4690460024002601257DE0002479
:10347000012513E03548005D18F8061088420BD18D
:103480003249601C095C701C18F80000814203D1AD
:10349000C4EBC400450005E0A01CC4B22B48005D8D
:1034A0007F28E7DC00BFB9F1760F03DD4FF000099C
:1034B000781CC7B239464846FFF734FF012D21D0AA
:1034C00039464846FFF72EFF002407E01F49485DB4
:1034D000FFF7A1FE681C85B2601CC4B20E2CF5DBA0
:1034E000781CC1B24846FFF71DFF002407E01749CA
:1034F000485DFFF790FE681C85B2601CC4B20E2CBC
:10350000F5DB2CE0701CC6B239464846FFF70AFFCF
:10351000002404E00020FFF77EFE601CC4B2102CE3
:10352000F8DB781CC1B24846FFF7FCFE002414E02B
:10353000000C014000540040801A06000100030006
:10354000820007001C5C0008445E0008AC5B0008B9
:103550000020FFF760FE601CC4B2102CF8DB09F1FC
:103560000E0000F0FF09B01CC6B218F806000028D3
:103570007FF47DAFBDE8F0872DE9F05F06460F468A
:1035800090461C46DDF828A04FF0000BE11704EB35
:103590005171C910A4EBC10131B92046E11704EB08
:1035A0005171C1F3C70506E02046E11704EB5171E4
:1035B000C910491CCDB23D4614E029463046FFF7FC
:1035C000B1FEB1460AE059460BF1010B1AF80100B1
:1035D000FFF721FE09F1010000F0FF09C145F2DB10
:1035E000681CC5B2A542E8DBBDE8F09F2DE9FF4F9E
:1035F00081B0894692461D46019802F05FFA07465F
:103600003A460B4647A1494800F08AFA0223474A46
:1036100000210846FFF7B0FE484602F04FFA074681
:103620003A460B4642A1414800F07AFA02233F4A4B
:1036300019460020FFF7A0FE504602F03FFA074669
:103640003A460B463CA1394800F06AFA0223374A51
:1036500004210020FFF790FE3C2D2FD93C20B5FB24
:10366000F0F084B23C20B5FBF0F100FB11563C2C8D
:1036700017DD94FBF0F01FFA80FB3C2094FBF0F187
:1036800000FB114084B223465A462EA127480096DB
:1036900000F046FA0223254A06210020FFF76CFEBF
:1036A00017E0334622462BA1204800F039FA0223C6
:1036B0001E4A06210020FFF75FFE0AE02A4629A1E4
:1036C0001A4800F02DFA0223184A06210020FFF7BD
:1036D00053FE0E9830B101280BD0022810D00328D9
:1036E0001CD114E0012321A219466E20FFF744FEED
:1036F00014E001231EA219466E20FFF73DFE0DE0E7
:1037000001231CA219466E20FFF736FE06E00123B6
:1037100019A219466E20FFF72FFE00BF00BF05B0AB
:10372000BDE8F08F563A252E3466760068010020F9
:10373000433A252E34666100453A252E3466772FAC
:1037400068000000543A253264682532646D2532E1
:1037500064730000543A2532646D2532647320206E
:1037600000000000543A2536647320004600000033
:1037700053000000500000004E0000002DE9F04111
:103780008EB080460E4600270024304600F006FB2F
:10379000C5B2FD208DF8040000208DF80500E81C5E
:1037A000C0B28DF8060001208DF8070040EA08102D
:1037B000C0B28DF8080000BF04E001A8005D4740DA
:1037C000601C84B2052CF8DB002403E0305D474028
:1037D000601C84B2AC42F9DB2A4631460DF1090087
:1037E00000F0FBFA681D01A90F54A81DC2B20948D8
:1037F000FFF711FA0EB0BDE8F08170B5044620461F
:1038000000F0CCFAC5B22A4621460248FFF703FA77
:1038100070BD0000003801407FB505460C4601210F
:103820000220FDF7FAFDADF80850ADF80440002085
:10383000ADF80A00ADF8060001A92948FDF718FF08
:10384000012211462648FEF78AFA1D208DF8000055
:1038500000208DF8010003208DF8020001208DF872
:1038600003006846FCF71DFE01211D48FEF75CFAC7
:103870007FBD2DE9FF5F01211948FEF71EFD68B3EA
:1038800001211748FEF72AFD16480068401C15491B
:1038900008601548006801F015FF80460022134BB0
:1038A00001F0B8FD0646124A124B01F01FFF044614
:1038B000114A124B01F01AFF82468B4610480068ED
:1038C00002F0FCF852465B46CDE9000101F0FAFC3B
:1038D000CDE9020101F0C4FC09490860BDE8FF9F81
:1038E0000004004048000020540000200088C3402D
:1038F0009A99999999990D40DFBC9A785634323F3C
:103900004C00002010B50246514000230BE001F0AE
:1039100001044910C1F30E0114B14AF20100414003
:1039200089B2581CC3B2082BF1DB084610BD2DE943
:10393000F04305460E464FF6FF744FF0000909E0CC
:1039400028782146FFF7DEFF04466D1C09F10100CF
:103950001FFA80F9B145F3DB2046E11704EB116152
:103960000912A4EB0121CFB2E11704EB1161C1F3FD
:10397000072848EA07242046BDE8F08308B501205F
:103980005249087003204870002088704820C87091
:10399000002008710620487106214C48FFF7C7FF38
:1039A00000909DF80100494988719DF80000C87198
:1039B00008224748FFF72FF908BD08B545480078A9
:1039C00001287DD100204349087043480078012830
:1039D0007AD142480078801EC1B23F48FFF7A7FF66
:1039E00000909DF800103D480078401E3A4A105C57
:1039F000814269D19DF8011038480078801E105C22
:103A0000814261D11046C07800061146097940EA2A
:103A100001401146497940EA01201146897908435D
:103A20002F4908601046C07900061146097A40EA1D
:103A300001401146497A40EA01201146897A08433B
:103A4000284908601046C07A00061146097B40EA02
:103A500001401146497B40EA01201146897B084319
:103A6000214908601046C07B00061146097C40EAE7
:103A700001401146497C40EA01201146897C0843F7
:103A80001A4908601046C07C00061146097D40EACC
:103A900001401146497D40EA01201146897D0843D5
:103AA000134908601046C07D00061146097E40EAB1
:103AB00001401146497E40EA01201146897E00E01E
:103AC00002E008430B49086008BD00002E000020FA
:103AD000004800402C000020680000202D0000203D
:103AE0005000002054000020580000205C000020FE
:103AF0006000002064000020704700001CB50C46E8
:103B0000064B7B4469460090204600F06CFC04465E
:103B10000020694600F07AFC20461CBD0709000021
:103B20000FB41CB5084B06AA7B4469460090059863
:103B300000F059FC04460020694600F067FC20466E
:103B40001CBC5DF814FB0000E108000070B50446E1
:103B500085690068C10601D5302600E02026C0072F
:103B600007D070BDD4E9012130469047206A401C3F
:103B700020626D1EF6D570BD70B50446856900786B
:103B8000C00707D170BDD4E9012120209047206AE9
:103B9000401C20626D1EF6D570BD00002DE9F0417D
:103BA0000646002410687529314616A510D000F08D
:103BB0005DF9002802DA404213A507E031688A0760
:103BC00001D512A502E0490704D511A5012401E0A1
:103BD00000F055F900210A2206F1240709E0B0FBA4
:103BE000F2FCB0FBF2F302FB1C00303078541846B4
:103BF000491C0028F3D123462A463046BDE8F0414F
:103C000000F06FB9000000002D0000002B00000044
:103C1000200000002DE9F05F894604464FF0000ABD
:103C2000DFF874B1FB44C0F820A02046E168884763
:103C3000002874D0252806D0D4E901219047206AB5
:103C4000401C2062F1E700265F462046E168884775
:103C50002028054607DB312D05D2781910F8200CF5
:103C600008B10643F1E7B00701D526F00406C4F811
:103C70001CA00027C4F818A02A2D09D0284601F05E
:103C8000BBFA38B304EB8708303DC8F8185019E088
:103C900059F8041B204604EB87029161E1688847CC
:103CA000012F054618D1E069002820DA26F0200609
:103CB0001DE0D8F8180000EB800005EB400030381C
:103CC000C8F818002046E1688847054601F094FAD4
:103CD0000028EED1012F0AD02E2D08D12046E16810
:103CE00088477F1C0546022F46F02006C4DBA069EA
:103CF000002803DA404246F00106A061F00701D037
:103D000026F010066C2D0BD0682D09D04C2D39D023
:103D10006A2D35D0742D35D07A2D33D016E038E0A9
:103D2000E1682F4620468847B842054609D16C2FE6
:103D300026D04FF48060E168064320468847054658
:103D400004E06C2F1AD04FF4807006430DB3A5F138
:103D50004100192802D8203546F400664A46294613
:103D6000204626604E46FCF71DFA80B101280BD094
:103D7000F61D26F0070000F1080956E74020E4E7A9
:103D80008020D8E70020D6E706F104094DE7284651
:103D900052E7206ABDE8F09F0C28000010B5431CD4
:103DA00002E010F8011B71B18107FAD14FF0013226
:103DB00002C88C1A8C4314EAC211F9D0C01A0A0640
:103DC00003D0C01E10BDC01A10BD0A0401D0801E51
:103DD00010BD0902FCD0401E10BD032A40F2308005
:103DE00010F0030C00F0158011F8013BBCF1020F3C
:103DF000624498BF11F801CB00F8013B38BF11F8BD
:103E0000013BA2F1040298BF00F801CB38BF00F8D3
:103E1000013B11F0030300F01D84083AC0F0088054
:103E200051F8043B083A51F804CBA0E80810F5E734
:103E3000121D5CBF51F8043B40F8043BAFF3008017
:103E4000D20724BF11F8013B11F801CB48BF11F88C
:103E5000012B24BF00F8013B00F801CB48BF00F85C
:103E6000012B7047704770477047704709684A05D3
:103E700001D540B27047C905FCD500B2704709684A
:103E80004A0501D5C0B27047C905FCD580B270475C
:103E900070B50C460546012A05D02878800600D565
:103EA000EA69002302E0012305E05B1C934202D291
:103EB000E05C0028F9D1A869E618C01AA861286A50
:103EC000184428622846FFF741FE04E0D5E90121A5
:103ED00014F8010B9047B442F8D32846FFF74CFE84
:103EE00070BD2DE9F0470D4699469246044600F113
:103EF00024080168880604D5E06921F010012160DA
:103F000000E00120A84201DD471B00E00027A16975
:103F10007A1902EB0900081AA0612078C00602D4C1
:103F20002046FFF713FE002608E0D4E901211AF825
:103F300006009047206A401C761C20624E45F4DB48
:103F40002078C0060AD52046FFF700FE06E0D4E937
:103F5000012130209047206A401C2062381EA7F1C2
:103F60000107F4DC07E0D4E9012118F805009047C7
:103F7000206A401C2062281EA5F10105F3DC2046C2
:103F8000FFF7FAFD2078000602D50220BDE8F08791
:103F90000120FBE711680268006A530501D508702B
:103FA0000AE0D30501D5088006E0130603D5C21741
:103FB000C1E9000200E008600120704770472DE968
:103FC000FF4F0C461E464FF0FF378BB0D2E9000181
:103FD000DDF860800A908A46C1F30A5505B93D466E
:103FE000002108464FF00000BAF1000F00F4400035
:103FF00005DA00EB80004FF4400101EA50004FEA7F
:104000009059B9F1010F00DDB9460A9850EA4A000B
:104010000ED044F61050A5F2FF3545432F14B8F1E9
:10402000000F1ED07542291E1EDDC9F100021CE0E2
:10403000B8F1010F4FF0000001D0302103E0F2434E
:1040400005E02154401CB042FBDB30460022002139
:1040500021540B99C1F80880C1E900200FB0BDE8D8
:10406000F08FBD1B6D1CDEE74A4600DA694206A8E8
:1040700000F0D8FB06AB93E8070003AB83E807002A
:1040800050460A9900F0DCFC8DE80700A0F50050CE
:104090001F3800900398002D0ADD42F21F014A46A6
:1040A0000844002303A90390684600F045FF09E097
:1040B000A0F500504A461F38002303A90390684624
:1040C00000F04FFF8DE807000004000C03D04FF014
:1040D000FF30410800E01046B8F1000F03D0002285
:1040E000009215461EE0751E05D400F0E9FA303244
:1040F00062556D1EF9D5B3460122084302D0002255
:104100007F1C04E02078302801D100227F1E002A85
:10411000099784D01DE0112D07DA00F0D1FA303272
:1041200062556D1C50EA0102F5D1084302D0009897
:10413000C8B10EE00021681E05E0235C625C635498
:104140002254401E491C8142F7DBAB46A81B401E8F
:104150000990002004F80B000B98099AC0F8088019
:10416000C0E9002B7AE711264FF0000857E72DE948
:10417000F04F88460446D21D22F0070191B0D1E9E4
:104180000001CDE90A0101F023F802460B98C00FA7
:1041900001D02D2007E02068810701D52B2002E007
:1041A000202101EAC000032A099001D0072A05DB7B
:1041B00003464146204600F0C9FA0BE1207880060C
:1041C00001D5E06900E00620B8F1650F814606D010
:1041D000B8F1660F18D0B8F1670F70D131E0002048
:1041E000B9F1110F009001DB112301E009F1010386
:1041F0000AAA01A90CA8FFF7E2FEDDE90C7000266F
:1042000009F10105834647E001204B4600904FF03D
:1042100000470AAA01A90CA8FFF7D1FEDDE90DB0FD
:104220000C995D46002610B909F101000D18B9EB93
:10423000050003D4C0F1FF3609F10105A5EB090023
:104240002BE0B9F1010F01DA4FF001090020B9F1BB
:10425000110F0090484601DD112300E003460AAA31
:1042600001A90CA8FFF7ABFEDDE90C704D46002656
:104270008346207800070AD4AB4500DA5D4601A8E2
:10428000012D04DD411911F8011C302907D04F45DB
:1042900002DA17F1040F04DA012082460FE06D1EE6
:1042A000EEE7002F02DCED1B3E4403E0781CA84241
:1042B00000DD7D1CB81B00F1010A4FF0004720789B
:1042C000000703D4AA4501DB4FF0FF3A0021B7F104
:1042D000004F0DF143088DF8431024D002202B230A
:1042E000002F01DA7F422D230A21021EA0F10100D6
:1042F00000DC5FB197FBF1FC97FBF1F201FB1C7C4A
:1043000017460CF1300C08F801CDEEE7A8F10100DA
:1043100003702188090501D5452100E06521A0F140
:10432000010800F8011C09980FA9A1EB0807FF1D5F
:1043300000B10120411901EBEA70A1693844081A63
:10434000401EA0612078C00602D42046FFF7FEFB85
:10435000099828B1D4E901219047206A401C2062C5
:104360002078C00622D52046FFF7F0FB1EE0002E85
:1043700004DBB34502DD01A8805D00E03020D4E914
:1043800001219047206A401C2062761CAAF101009E
:104390005FEA000A0AD100F08FF9C0680168405C4A
:1043A000D4E901219047206A401C2062281EA5F113
:1043B0000105DCDC07E0D4E9012118F8010B904786
:1043C000206A401C2062381EA7F10107F3DC20465A
:1043D000FFF7D2FB032011B041E6000001694A1C3F
:1043E00002610878704700B58FB0CDE90131002136
:1043F000059105497944CDE9031011466846FFF758
:1044000009FC0FB000BD0000E5FFFFFF0A6802F8DD
:10441000010B0A60704700002DE9FF5F15468A46D0
:104420000446DFF8AC80F8440027D8E900103E4687
:10443000CDE9001010E03AF816106A4602A800F024
:1044400063FA411C07D02178890603D5E26939183F
:1044500091420DD80744761C2078800602D5E06989
:10446000B84205DDAE42E6DB3AF816000028E2D19C
:10447000A069C01BA0612046FFF768FBD8E90010C7
:10448000CDE90010002017E03AF818106A4602A89B
:1044900000F03AFAB0F1FF3F81460BD000250DF154
:1044A000080B05E0D4E901211BF8050090476D1CBD
:1044B0004D45F7D308F10100B0428046E4DB206AA5
:1044C000384420622046FFF757FBBDE8FF9F0000FD
:1044D0001E2000002DE9F0418046D21D22F0070287
:1044E0000025D2E90002F52915A614D0011E72F1AB
:1044F000000106DA0023D0EB030063EB020211A6F1
:1045000008E0D8F800108B0701D50FA602E0490794
:1045100001D50EA601251146002408F1240704E068
:1045200000F0CEF830323A55641C50EA0102F7D15F
:104530002B46324621464046BDE8F041FFF7D1BC4C
:10454000000000002D0000002B00000020000000F3
:1045500030B4002100F1240408E002F00705D2087D
:10456000303542EA4372DB086554491C52EA0305C0
:10457000F3D10468002310A2250707D5A40600D4B0
:1045800021B1C46901230DA2641EC46130BCFFF7D0
:10459000A8BC10B5044621461068FFF770FC02461F
:1045A0002046BDE810400023D2E7D21D22F00701CB
:1045B000D1E90023CCE7000000000000300000003B
:1045C000F0B40D460188090502D5214C7C4402E077
:1045D0001F4C7C440E34002100F1240608E002F058
:1045E0000F071209E75D42EA03721B097754491C61
:1045F00052EA0307F3D102780023120704D5702D85
:1046000006D009B1022311342246F0BCFFF769BC81
:1046100001231034F8E770B504460D4621461068B2
:10462000FFF72DFC024629462046BDE870400023D6
:10463000C6E7D21D22F00703D3E90023C0E70368D1
:10464000126843F0200303600823C3610023B7E727
:10465000801E000010B5203AC0F00B80B1E8185061
:10466000203AA0E81850B1E81850A0E81850BFF45C
:10467000F5AF5FEA027C24BFB1E81850A0E81850FB
:1046800044BF18C918C0BDE810405FEA827C24BF4F
:1046900051F8043B40F8043B08BF7047D20728BFDD
:1046A00031F8023B48BF11F8012B28BF20F8023B2C
:1046B00048BF00F8012B704700487047A801002050
:1046C00030B5B0F10A024FEA900E71F100034EEAE4
:1046D000817EB0EB0E0061EB91014FEA101E4EEAB5
:1046E000017E10EB0E0041EB11114FEA102E4EEA45
:1046F000016E10EB0E0041EB11214FEA104E4EEA15
:10470000014E10EB0E0041EB1141401841F1000148
:104710004FEAD00040EA41704FEAD10110EB80052A
:104720004FEA810444EA907444EB01046D1944EBB0
:104730000404521BA3414FF0000348BF0A3200D5C6
:1047400030BD401C41F1000130BD00002DE9F041B9
:104750001F46044603260168072A01F4006004DBB3
:1047600008B116A505E016A503E008B115A500E0FF
:1047700015A521F010002060A069C01EA0610FB136
:10478000401EA0612046FFF7E1F94FB1D4E90121B5
:1047900038469047206A401C2062C01C206206E018
:1047A000206AFAE7D4E9012115F8010B9047761E3B
:1047B000F8D22046FFF7E0F9BDE8F0814E414E0007
:1047C0006E616E00494E4600696E660010B5436921
:1047D00013B1AFF3008001E0FFF75AFB012010BDD9
:1047E000127800F124010A7000224A700122EDE7DC
:1047F00011684FF0FF32E9E710B5436913B1AFF329
:10480000008001E0FFF708FE012010BD128800F1D2
:10481000240182840022C2840122EDE711684FF056
:10482000FF32E9E72DE9F047814616468AB0354860
:1048300078440DC88DE80D0032487844801C03ACE4
:104840000DC884E80D0041F69B300844372190FBE9
:10485000F1F290FBF1F5A5F1800501FB12041B3C80
:1048600002D56442012000E00020DFF898A08046D5
:104870000027FA44AAF1BE0A0EE0E0070AD0324649
:10488000684607EB470101230AEB810100F069FB51
:104890008DE8070064107F1C002CEED1194F7F4477
:1048A000AE3F19E0E80715D007EB04100DF1180A28
:1048B00090E80E008AE80E00C068F04201D1981915
:1048C00008903246012306A903A800F04AFB03AB77
:1048D00083E807006D10641C002DE3D14FF0010345
:1048E00032466946B8F1000F03A802D000F024FB5D
:1048F00001E000F036FBC9E90001C9F808200AB060
:10490000BDE8F087C01C000070B516460C46054691
:1049100000F044F8036893F80101012806D0FF2C49
:104920000FD8185D68B101202C7070BDD3F8070155
:104930003246214603F2071303442846BDE870407F
:1049400018474FF0FF3070BD0048704788010020C5
:104950007546FFF7F9FFAE4605006946534620F05D
:104960000700854618B020B5FBF794FCBDE8204051
:104970004FF000064FF000074FF000084FF0000B1B
:1049800021F00701AC46ACE8C009ACE8C009ACE8CE
:10499000C009ACE8C0098D467047000010B5FFF7AC
:1049A0008BFE001D10BD00BF8D08000010B5044631
:1049B000AFF300802046BDE81040FBF756BC000076
:1049C0004FF0013C50F8042B51F8043B9A4221D19E
:1049D000A2EB0C03934313EACC1317D150F8042B2A
:1049E00051F8043B9A4215D1A2EB0C03934313EA0E
:1049F000CC130BD150F8042B51F8043B9A4209D147
:104A0000A2EB0C03934313EACC13DBD04FF000006E
:104A1000704700BFD01A01BAB1FA81F101F0180154
:104A200022FA01F0CB40C1F12001DBB2C0B2C01AC2
:104A30002CFA01F3D11A914311EAC311E6D1704760
:104A40005FEA400C08BF91F0000F4FEA8C234FEA59
:104A5000C12243EA51514FEA1C5018BF00F5F04003
:104A60004FEA300018BF41F000415FEA6C5C00F093
:104A70002980BCF1FF3F08BF40F080407047130C15
:104A800006BF12044FF0100C4FF0000C130E04BFC1
:104A900012020CF1080C130F04BF12010CF1040CEC
:104AA000930F04BF92000CF1020CD30F04BF52000D
:104AB0000CF1010C11464FF00002A0F11F00A0EB19
:104AC0000C00704711F0004F08BF704731F00041F3
:104AD0003FF4D5AF0B0C06BF09044FF0100C4FF09C
:104AE000000C0B0E04BF09020CF1080C0B0F04BFE5
:104AF00009010CF1040C8B0F04BF89000CF1020CAE
:104B0000CB0F04BF49000CF1010CCCF12003A0EB4A
:104B10000C0022FA03F302FA0CF241EA030100F15D
:104B20000100704720F07F4C80EA030023F07F47AC
:104B3000ACEB070303F57C5300F0004003F1FF03E7
:104B40002DE980494FEA154B09B44FEA144325EA91
:104B50000B4E24EA03480FF2042606EB13274908FC
:104B60003E785FEA320203FB0667C7F5000707FBE2
:104B700006F64FEA54374FEAD64606F1020607FB1F
:104B8000066CCCF1005C4FEA1C472CEA074C07FB93
:104B900006F40CFB06F504EB15464FEA961634BFF7
:104BA00000204FF000404FEAD13706FB07FC4FEAE8
:104BB0001C4C0CFB0BF7D21B03FB0CF761EB070142
:104BC0000CFB0EF7B0EB074072EB17420CFB08F73B
:104BD00034BFA2EB0742B2EB074261EB17414FEA49
:104BE0000C444FEA910706FB07FC4FEA1C4C0CFBF8
:104BF0000BF7B0EBC74072EB573203FB0CF734BF37
:104C0000A2EBC742B2EBC74261EB57310CFB0EF788
:104C1000B0EBC70072EB57720CFB08F734BFA2EB86
:104C2000C702B2EBC70261EB5771039F4FEA816184
:104C300041EA921104EBCC044FEAD1374FEA826289
:104C400006FB07FC42EA90124FEA80604FEA1C4CD8
:104C50000CFB0BF7D21B03FB0CF761EB07010CFB02
:104C60000EF7B0EB074072EB17420CFB08F734BFAE
:104C7000A2EB0742B2EB074261EB17414FEA8C55BA
:104C80004FEA910704EB9C2406FB07FC4FEA1C4CFF
:104C90000CFB0BF7B0EBC74072EB573203FB0CF782
:104CA00034BFA2EBC742B2EBC74261EB57310CFBFA
:104CB0000EF7B0EBC70072EB57720CFB08F734BF6E
:104CC000A2EBC702B2EBC70261EB577115EB4C25A3
:104CD0004FEA816141EA92114FEA82624FEAD1378D
:104CE00042EA901206FB07FC44F100044FEA8060A0
:104CF0004FEA1C4C0CFB0BF7D21B03FB0CF761EBD0
:104D000007010CFB0EF7B0EB074072EB17420CFBF0
:104D100008F734BFA2EB0742B2EB074261EB174141
:104D200015EB1C154FEA813141EA92414FEA82327C
:104D300042EA90424FEA80304FEA0C7644F1000498
:104D400048EA03434EEA0B484FF0000EB2EB080C62
:104D500071EB030724BF624639464EEB0E0E4FF04F
:104D6000000B0018524149414BEB0B0BB2EB080C06
:104D700071EB03077BF1000B24BF624639464EEB13
:104D80000E0E4FF0000B0018524149414BEB0B0B3C
:104D9000B2EB080C71EB03077BF1000B24BF6246FA
:104DA00039464EEB0E0E51EA020718BF46F00106D7
:104DB00016EB0E7655F1000254F1000103D5BDE863
:104DC0008901BDE80088BDE88901BDE80048B61941
:104DD000524141EB0101A3F10103704780807F7EC6
:104DE0007D7C7B7A79787776767574737271717061
:104DF0006F6E6E6D6C6C6B6A6A6968686766666513
:104E00006464636362616160605F5F5E5E5D5D5CA0
:104E10005C5B5B5A5A595958585757565655555511
:104E20005454535352525251515050504F4F4F4E71
:104E30004E4D4D4D4C4C4C4B4B4B4A4A4A494949BF
:104E40004848484747474746464645454544444401
:104E5000444343434342424242414141002B9C462A
:104E600030D477002BD01CB54FEA370703B44FF08E
:104E700010004FF01001BAF1000F06D0BCF1000F86
:104E8000DCBF40F0080040F008014FF000000FBC0C
:104E9000BDE810400BF1010BBBF1010F08BF5FEA49
:104EA000170722BF12F1010211F101014FF0004179
:104EB00043F1000300F0004043EA00007047F9D3DB
:104EC0005708D0E746EA064613F1400F4FEA164668
:104ED0001FDD13F1200FDFBF16430A4600212033E8
:104EE0005B42BED0C3F1200746EA064602FA07F746
:104EF0004FEA164646EA0706C3F1200722FA03F2F4
:104F000001FA07F721FA03F14FF0000342EA070222
:104F1000A7E746EA020646EA06464FEA164646EA8A
:104F20000106BCBF46EA0646360C4FF000034FF0C0
:104F300000024FF0000194E72DE9804C9A46934619
:104F400070B491E8380007C831EA400C48BF34EA31
:104F5000430C03D5FFF7E6FDFFF780FFF0BCBDE88B
:104F6000008C2DE9804C9A46934670B491E8380045
:104F700007C810F0804F08BF13F0804F03D100F036
:104F800005F8FFF76BFFF0BCBDE8008C20F07F4711
:104F900080EA030023F07F4C07EB0C03A3F57C535E
:104FA00000F00040A3F1FE0392F0000F00F0B38088
:104FB00095F0000F00F077802DE901494FEA11408C
:104FC0004FEA144621EA004800FB06FC24EA0647A3
:104FD00008FB06F607FB08F800FB07F718EB064886
:104FE0004CEB164C4FEA124B18EB07484FEA1546AC
:104FF0004CEB174022EA0B4E0BFB06FC25EA06475A
:105000000EFB06F607FB0EFE0BFB07F71EEB064E2C
:105010004CEB164C4FF000061EEB074E4CEB174BBB
:1050200018EB0B0840F1000018EB0E0B58EB0008D2
:1050300040F100008F1A4FF000013CBFC943661BCE
:1050400014BFB5EB040C00213CBFC943F61B4FEA6B
:1050500017444EEA8E0E27EA04454FEA1C4704FB2C
:1050600007622CEA074C05FB07F70CFB05F604FB6F
:105070000CFC16EB074642EB174216EB0C4642EBD4
:105080001C421BEB060658EB0202414146EA9E0613
:1050900001D5BDE80189B619524141EB0101A3F1E7
:1050A0000103BDE801894FEA14454FEA114724EA9C
:1050B000054621EA074C05FB07F406FB07F70CFB46
:1050C00006F105FB0CFC11EB074144EB17444FEADA
:1050D000124711EB0C4144EB1C4422EA074C05FB40
:1050E00007F206FB07F70CFB06F605FB0CFC16EBBC
:1050F000074642EB174216EB0C4642EB1C456A187A
:1051000054F1000148BF7047B619524141EB01010B
:10511000A3F10103704795F0000F37D04FEA114219
:105120004FEA144721EA024624EA074C02FB07F142
:1051300006FB07F70CFB06F402FB0CFC14EB074420
:1051400041EB17414FEA154714EB0C4441EB1C416E
:1051500025EA074C02FB07F506FB07F70CFB06F6F2
:1051600002FB0CFC16EB074645EB174516EB0C460D
:1051700045EB1C42121951F1000148BF7047B619A6
:10518000524141EB0101A3F1010370474FEA14457D
:105190004FEA114724EA054621EA074C05FB07F1CF
:1051A00006FB07F70CFB06F24FF0000605FB0CFCB4
:1051B00012EB074241EB174112EB0C4251EB1C4141
:1051C00048BF7047921841EB0101A3F101037047FA
:1051D000490050EAC12018BF04204A0D18BF40F012
:1051E000010040F2FF72B2EB515F08BF40F00200D5
:1051F000012808BF0520704730380A2801D2012055
:10520000704700207047000010B500290AD00878C8
:10521000002807D005487844FFF7D2FB002801D0CA
:10522000002010BD0248784410BD00001613000095
:105230000E13000010B500290AD00878002807D006
:1052400005487844FFF7BCFB002801D0002010BDC2
:105250000248784410BD000006130000FE12000052
:1052600021F00042A2F16052B2F5801F01F000432C
:1052700028BFD2F17F6C0BD95FEA001C43EAC2025F
:1052800042EB507018BF704728BF20F001007047F4
:10529000B2F5801FBCBF184670474FEA410C1CF5A1
:1052A000001F02D2084600F07ABC70B500F0C8FAC0
:1052B00000000089FFF7F6BF4FF00040A0F5800026
:1052C0007047000010B591EA030F48BF83F0004318
:1052D00000F11283841A71EB030C05D2121943EB0F
:1052E0000C03001B61EB0C01DFF824E14FEA1154C1
:1052F000A4EB135C1EEA430F18BF9EEA445F73D011
:1053000023EA0E03DCF1200E21EA045143F480135A
:1053100032D322FA0CFE10EB0E0023FA0CFE41EB06
:105320000E01CCF1200E03FA0EFE10EB0E0051F12F
:105330000001B1F5801FCCF1200E32D201EB0451F7
:1053400012FA0EF2BDE8104058BF7047401C38BF3B
:105350005FEA420218BF7047002814BF20F0010026
:1053600041F100014FEA410313F5001F38BF7047B8
:10537000A1F1C04100F0B2BA012A43EB0302ACF143
:10538000200CDCF11F0E32BF4FF0000E23FA0CF39D
:1053900010EB030041EB0451B4EB115FD0D0A1EB53
:1053A000045101F5801149085FEA300001EB045116
:1053B0000ED350F1000038BF12FA0EFE08D1BDE83E
:1053C0001040C9E7401C38BF5FEA4202CAD1C3E7B8
:1053D000BDE810404FEA410313F5001F38BF704786
:1053E000A1F1C04100F07ABA9EEA445F08D011EA08
:1053F0005E0FBDE8104004BF01F00041002070477F
:10540000BDE8104070B500F01BFA00BF64FBBE3E63
:105410000000E0FF2DE9C04130B4DFF8A0C23CEA53
:10542000111418BF3CEA131400F0EC8081EA030564
:105430001CEA111444EAD57418BF1CEA131500F0D5
:10544000C780A4EB05044FF0004545EAC12145EAB9
:10545000C32341EA505143EA525304F17F74994205
:1054600004F500344FEAC0204FEAC22208BF904240
:1054700000F09C804FEA13650FF24016765D4FEA0C
:10548000134506FB05F7C7F1807706FB07F74FEAE0
:10549000D737A7FB03687642C8F58038A7FB06CE4E
:1054A00038BFA8F1010807FB08E64FF0000EA6FB85
:1054B000028CE6FB03CEDCF1000CCEF1004E38BFCF
:1054C000AEF1010EA6FB0C584FF000074FF000059F
:1054D000E6FB0E87A1FB08C6A0FB07CE16EB0E0667
:1054E00045F10005E1FB076515F1E04E7EBFA4F52F
:1054F00080345FEA46066D4116F1800745F10005EC
:105500004FEA17274FEA066647EA0567A6F1DE4627
:10551000B6F1805F4FEA15251FD9384624F0010CFB
:1055200005EBC471BCF1FE6F01EB0C1102D8F0BCAD
:10553000BDE8008124425CBF01F5801E9EEAC47F65
:1055400002D4F0BCBDE80081244238D4F0BCA1F103
:10555000C041BDE8004100F0C1B94FEAD22242EAA1
:1055600043524FEAD323A7FB02864FEAD02040EAFA
:10557000415007FB03661EEA0E0F4FEAD12105FBDF
:10558000026658BFA6EB0056B6EB00564FEA520E25
:105590004EEAC37E18EB0E0E56EB530EBDD518EB3C
:1055A00002085E417F1C55F10005B6E74FF48015F7
:1055B0004FF000074FF000064FF00008ADE7F0BCD9
:1055C0004FF0000001F1C04101F00041BDE8008151
:1055D00011EA0C1F0CEA131500D00CE013EA0C1FA3
:1055E00000F025804FF00000F0BC81EA030101F0DB
:1055F0000041BDE80081F0BCBDE8004181EA030143
:1056000000F06CB9F0BCBDE8004170B500F018F9CD
:10561000097EFC3E00F007B881EA03014FF000006C
:1056200001F00041704781EA030100F057B9F0BC76
:10563000BDE800414FF0000021497047FFFDFBF934
:10564000F7F5F4F2F0EEEDEBE9E8E6E4E3E1E0DEB5
:10565000DDDBDAD8D7D5D4D3D1D0CFCDCCCBCAC827
:10566000C7C6C5C4C2C1C0BFBEBDBCBBBAB9B8B74E
:10567000B6B5B4B3B2B1B0AFAEADACABAAA9A8A841
:10568000A7A6A5A4A3A3A2A1A09F9F9E9D9C9C9B0F
:105690009A999998979796959594939392919190BA
:1056A0008F8F8E8E8D8C8C8B8B8A8989888887874B
:1056B0008685858484838382828181800000FF07C0
:1056C0000000F87FB0FA80F310FA03F10AD0C3F1BA
:1056D0001D0303F580634FEA41504FEA035202EB8A
:1056E000D12170474FF0000070470000DFF848C13B
:1056F00070B51CEA111E1EBF1CEA13159EEA0C0FA2
:1057000095EA0C0F00F06F8081EA030423EA4C1342
:105710004EEAD47E21EA4C1141F4801143F4801307
:10572000AE44A1FB024CA0FB0365AEF17F7E3619AF
:1057300055EB0C05A1FB034C4CF10003A0FB021C34
:1057400016EB0C06654153F10003094218BF46F001
:10575000010613F4007F0BD14FEA03314FEA053005
:10576000340341EA155140EA16506FF003020AE093
:105770004FEAC3214FEAC520F40241EA555140EAFD
:1057800056506FF0020202EB2E4201EB025585EA01
:10579000CE710AD05FEA440C18BF24F0004450F1E7
:1057A000000041F1000120EAD47040F2FE7C624525
:1057B00000D270BDA84214BF4FF080444FF0404467
:1057C000002E08BF0024BEF1806FA8BFA1F1C04128
:1057D000BDE8704080F282804FF0000001F1C041CE
:1057E00001F0004170479EEA0C0F0CEA131518BF38
:1057F00095EA0C0F06D04FF0000081EA030E0EF080
:10580000004170BD00F01CF88900013E00F007B8AF
:1058100000F009B84FEA430C5FEA5C5C08D081EA0B
:10582000030100F05BB84FEA410C5FEA5C5CF6D123
:105830004FF00000014970470000FF070000F87FAB
:105840000EF1020E2EF0030E5EF8046B364205D404
:10585000012A43EB030515F5001F12D8012841EB7F
:10586000010C1CF5001F0CD80ED14FEAD17C15F5A8
:10587000001F0CEB4C0C0CF1020C08BF4CEBD37C62
:1058800004E04FF0080C01E04FEAD37C0CEB4C0530
:1058900026FA05F606F00706B6F1040C06D20EEB62
:1058A000860CBDE870404CF0010C6047DFE80CF05E
:1058B000090B02024FF000414FF00000A1F500215A
:1058C00070BD19461046012851EB010418BFD4F5EC
:1058D000001484BF002001F0004170BD0808A0F54D
:1058E00000114FEA3101704710B591EA030F48BF2C
:1058F00083F000433FF5EEAC841A71EB030C07D242
:1059000012198CF0004C43EB0C03001B61EB0C01F3
:10591000DFF8A4E14FEA1154A4EB135C1EEA430F35
:1059200018BF9EEA445F00F0B08023EA6E03524243
:1059300021EA0451C3EB6E0338BF5B1EDCF1200E7D
:1059400025D322FA0CFE10EB0E0043FA0CFE41EBBD
:105950000E01CCF1200E03FA0EFE10EB0E0051F1F9
:105960000001CCF1200E29D412FA0EF201EB045101
:10597000BDE8104058BF7047401C1CBFB2F1004F3B
:10598000704700280CBF491C20F00100704712EB43
:10599000020E43EB030218BF4FF0010E4EEA420223
:1059A000ACF1200CDCF11E0E54D943FA0CFE10EBC6
:1059B0000E0051F1FF31CCF11E0ED5D50EF1010EC6
:1059C00012FA0EFE404141EB010101EB445C5FEA3B
:1059D0005C5C10D910EBDE7001EB045138BFBEF1F6
:1059E000004FBDE8104018BF704700280CBF491C8D
:1059F00020F00100704730D24FEAD42C11F500118D
:105A000024F400641BD0B1FA81F20B3AA41AA41E4C
:105A1000D2F12003914030FA03F31943904001EB97
:105A2000CC71002C01EB0451BDE81040A8BF7047B9
:105A300001F1C0414FF0000001F000417047B0FAA1
:105A400080F310FA03F100D110BDE41A173C4805A9
:105A5000C90AE4E701EB045110BD491001EB045100
:105A6000BDE810404FEA300002E04FF000017047FF
:105A70004A0008BF0042F8D0B2F5001F28BF7047A7
:105A800001F000414FF0000070479EEA445F07D0EC
:105A900011EA5E0FBDE8104004BF002100207047EE
:105AA000BDE8104070B5FFF7CBFE00BF40DFF63E0B
:105AB00083F00041104670470000E0FF43004FEACA
:105AC000D30C4FEA3C0C43401FBF40070CF1605120
:105AD00013F0FE4F70471CF0006F03D100200CF054
